{
	"Users/drewhyte/Sites/BLOCKCHAIN/klay-oracle/contracts/v0.0.5/Oracle.sol": {
		"Oracle": {
			"abi": [
				{
					"inputs": [
						{
							"internalType": "address",
							"name": "_nodeAddress",
							"type": "address"
						},
						{
							"internalType": "string",
							"name": "_adapterId",
							"type": "string"
						}
					],
					"stateMutability": "nonpayable",
					"type": "constructor"
				},
				{
					"anonymous": false,
					"inputs": [
						{
							"indexed": true,
							"internalType": "string",
							"name": "adapterId",
							"type": "string"
						},
						{
							"indexed": true,
							"internalType": "uint256",
							"name": "requestId",
							"type": "uint256"
						}
					],
					"name": "NewOracleRequest",
					"type": "event"
				},
				{
					"inputs": [],
					"name": "adapterId",
					"outputs": [
						{
							"internalType": "string",
							"name": "",
							"type": "string"
						}
					],
					"stateMutability": "view",
					"type": "function"
				},
				{
					"inputs": [
						{
							"internalType": "uint256",
							"name": "requestId",
							"type": "uint256"
						},
						{
							"internalType": "bytes32",
							"name": "data",
							"type": "bytes32"
						}
					],
					"name": "fulfillOracleRequest",
					"outputs": [
						{
							"internalType": "bool",
							"name": "",
							"type": "bool"
						}
					],
					"stateMutability": "nonpayable",
					"type": "function"
				},
				{
					"inputs": [
						{
							"internalType": "bytes4",
							"name": "callbackFunctionId",
							"type": "bytes4"
						},
						{
							"internalType": "string",
							"name": "adapterID",
							"type": "string"
						},
						{
							"internalType": "address",
							"name": "callBackContract",
							"type": "address"
						}
					],
					"name": "newOracleRequest",
					"outputs": [
						{
							"internalType": "bool",
							"name": "",
							"type": "bool"
						}
					],
					"stateMutability": "nonpayable",
					"type": "function"
				},
				{
					"inputs": [],
					"name": "nodeAddress",
					"outputs": [
						{
							"internalType": "address",
							"name": "",
							"type": "address"
						}
					],
					"stateMutability": "view",
					"type": "function"
				},
				{
					"inputs": [
						{
							"internalType": "uint256",
							"name": "",
							"type": "uint256"
						}
					],
					"name": "requests",
					"outputs": [
						{
							"internalType": "uint256",
							"name": "requestId",
							"type": "uint256"
						},
						{
							"internalType": "address",
							"name": "nodeAddress",
							"type": "address"
						},
						{
							"internalType": "string",
							"name": "adapterId",
							"type": "string"
						},
						{
							"internalType": "bytes4",
							"name": "callbackFunctionId",
							"type": "bytes4"
						},
						{
							"internalType": "address",
							"name": "callBackContract",
							"type": "address"
						},
						{
							"internalType": "bytes32",
							"name": "data",
							"type": "bytes32"
						}
					],
					"stateMutability": "view",
					"type": "function"
				}
			],
			"devdoc": {
				"kind": "dev",
				"methods": {},
				"version": 1
			},
			"evm": {
				"assembly": "    /* \"Users/drewhyte/Sites/BLOCKCHAIN/klay-oracle/contracts/v0.0.5/Oracle.sol\":90:1589  contract Oracle is OracleInterface {... */\n  mstore(0x40, 0x80)\n    /* \"Users/drewhyte/Sites/BLOCKCHAIN/klay-oracle/contracts/v0.0.5/Oracle.sol\":511:646  constructor(address _nodeAddress, string memory _adapterId) {... */\n  callvalue\n  dup1\n  iszero\n  tag_1\n  jumpi\n  0x00\n  dup1\n  revert\ntag_1:\n  pop\n  mload(0x40)\n  sub(codesize, bytecodeSize)\n  dup1\n  bytecodeSize\n  dup4\n  codecopy\n  dup2\n  dup2\n  add\n  0x40\n  mstore\n  dup2\n  add\n  swap1\n  tag_2\n  swap2\n  swap1\n  tag_3\n  jump\t// in\ntag_2:\n    /* \"Users/drewhyte/Sites/BLOCKCHAIN/klay-oracle/contracts/v0.0.5/Oracle.sol\":595:607  _nodeAddress */\n  dup2\n    /* \"Users/drewhyte/Sites/BLOCKCHAIN/klay-oracle/contracts/v0.0.5/Oracle.sol\":581:592  nodeAddress */\n  0x00\n  dup1\n    /* \"Users/drewhyte/Sites/BLOCKCHAIN/klay-oracle/contracts/v0.0.5/Oracle.sol\":581:607  nodeAddress = _nodeAddress */\n  0x0100\n  exp\n  dup2\n  sload\n  dup2\n  0xffffffffffffffffffffffffffffffffffffffff\n  mul\n  not\n  and\n  swap1\n  dup4\n  0xffffffffffffffffffffffffffffffffffffffff\n  and\n  mul\n  or\n  swap1\n  sstore\n  pop\n    /* \"Users/drewhyte/Sites/BLOCKCHAIN/klay-oracle/contracts/v0.0.5/Oracle.sol\":629:639  _adapterId */\n  dup1\n    /* \"Users/drewhyte/Sites/BLOCKCHAIN/klay-oracle/contracts/v0.0.5/Oracle.sol\":617:626  adapterId */\n  0x01\n    /* \"Users/drewhyte/Sites/BLOCKCHAIN/klay-oracle/contracts/v0.0.5/Oracle.sol\":617:639  adapterId = _adapterId */\n  swap1\n  dup1\n  mload\n  swap1\n  0x20\n  add\n  swap1\n  tag_6\n  swap3\n  swap2\n  swap1\n  tag_7\n  jump\t// in\ntag_6:\n  pop\n    /* \"Users/drewhyte/Sites/BLOCKCHAIN/klay-oracle/contracts/v0.0.5/Oracle.sol\":511:646  constructor(address _nodeAddress, string memory _adapterId) {... */\n  pop\n  pop\n    /* \"Users/drewhyte/Sites/BLOCKCHAIN/klay-oracle/contracts/v0.0.5/Oracle.sol\":90:1589  contract Oracle is OracleInterface {... */\n  jump(tag_8)\ntag_7:\n  dup3\n  dup1\n  sload\n  tag_9\n  swap1\n  tag_10\n  jump\t// in\ntag_9:\n  swap1\n  0x00\n  mstore\n  keccak256(0x00, 0x20)\n  swap1\n  0x1f\n  add\n  0x20\n  swap1\n  div\n  dup2\n  add\n  swap3\n  dup3\n  tag_12\n  jumpi\n  0x00\n  dup6\n  sstore\n  jump(tag_11)\ntag_12:\n  dup3\n  0x1f\n  lt\n  tag_13\n  jumpi\n  dup1\n  mload\n  not(0xff)\n  and\n  dup4\n  dup1\n  add\n  or\n  dup6\n  sstore\n  jump(tag_11)\ntag_13:\n  dup3\n  dup1\n  add\n  0x01\n  add\n  dup6\n  sstore\n  dup3\n  iszero\n  tag_11\n  jumpi\n  swap2\n  dup3\n  add\ntag_14:\n  dup3\n  dup2\n  gt\n  iszero\n  tag_15\n  jumpi\n  dup3\n  mload\n  dup3\n  sstore\n  swap2\n  0x20\n  add\n  swap2\n  swap1\n  0x01\n  add\n  swap1\n  jump(tag_14)\ntag_15:\ntag_11:\n  pop\n  swap1\n  pop\n  tag_16\n  swap2\n  swap1\n  tag_17\n  jump\t// in\ntag_16:\n  pop\n  swap1\n  jump\t// out\ntag_17:\ntag_18:\n  dup1\n  dup3\n  gt\n  iszero\n  tag_19\n  jumpi\n  0x00\n  dup2\n  0x00\n  swap1\n  sstore\n  pop\n  0x01\n  add\n  jump(tag_18)\ntag_19:\n  pop\n  swap1\n  jump\t// out\n    /* \"#utility.yul\":7:428   */\ntag_21:\n    /* \"#utility.yul\":96:101   */\n  0x00\n    /* \"#utility.yul\":121:187   */\n  tag_23\n    /* \"#utility.yul\":137:186   */\n  tag_24\n    /* \"#utility.yul\":179:185   */\n  dup5\n    /* \"#utility.yul\":137:186   */\n  tag_25\n  jump\t// in\ntag_24:\n    /* \"#utility.yul\":121:187   */\n  tag_26\n  jump\t// in\ntag_23:\n    /* \"#utility.yul\":112:187   */\n  swap1\n  pop\n    /* \"#utility.yul\":210:216   */\n  dup3\n    /* \"#utility.yul\":203:208   */\n  dup2\n    /* \"#utility.yul\":196:217   */\n  mstore\n    /* \"#utility.yul\":248:252   */\n  0x20\n    /* \"#utility.yul\":241:246   */\n  dup2\n    /* \"#utility.yul\":237:253   */\n  add\n    /* \"#utility.yul\":286:289   */\n  dup5\n    /* \"#utility.yul\":277:283   */\n  dup5\n    /* \"#utility.yul\":272:275   */\n  dup5\n    /* \"#utility.yul\":268:284   */\n  add\n    /* \"#utility.yul\":265:290   */\n  gt\n    /* \"#utility.yul\":262:374   */\n  iszero\n  tag_27\n  jumpi\n    /* \"#utility.yul\":293:372   */\n  tag_28\n  tag_29\n  jump\t// in\ntag_28:\n    /* \"#utility.yul\":262:374   */\ntag_27:\n    /* \"#utility.yul\":383:422   */\n  tag_30\n    /* \"#utility.yul\":415:421   */\n  dup5\n    /* \"#utility.yul\":410:413   */\n  dup3\n    /* \"#utility.yul\":405:408   */\n  dup6\n    /* \"#utility.yul\":383:422   */\n  tag_31\n  jump\t// in\ntag_30:\n    /* \"#utility.yul\":102:428   */\n  pop\n    /* \"#utility.yul\":7:428   */\n  swap4\n  swap3\n  pop\n  pop\n  pop\n  jump\t// out\n    /* \"#utility.yul\":434:577   */\ntag_32:\n    /* \"#utility.yul\":491:496   */\n  0x00\n    /* \"#utility.yul\":522:528   */\n  dup2\n    /* \"#utility.yul\":516:529   */\n  mload\n    /* \"#utility.yul\":507:529   */\n  swap1\n  pop\n    /* \"#utility.yul\":538:571   */\n  tag_34\n    /* \"#utility.yul\":565:570   */\n  dup2\n    /* \"#utility.yul\":538:571   */\n  tag_35\n  jump\t// in\ntag_34:\n    /* \"#utility.yul\":434:577   */\n  swap3\n  swap2\n  pop\n  pop\n  jump\t// out\n    /* \"#utility.yul\":597:952   */\ntag_36:\n    /* \"#utility.yul\":664:669   */\n  0x00\n    /* \"#utility.yul\":713:716   */\n  dup3\n    /* \"#utility.yul\":706:710   */\n  0x1f\n    /* \"#utility.yul\":698:704   */\n  dup4\n    /* \"#utility.yul\":694:711   */\n  add\n    /* \"#utility.yul\":690:717   */\n  slt\n    /* \"#utility.yul\":680:802   */\n  tag_38\n  jumpi\n    /* \"#utility.yul\":721:800   */\n  tag_39\n  tag_40\n  jump\t// in\ntag_39:\n    /* \"#utility.yul\":680:802   */\ntag_38:\n    /* \"#utility.yul\":831:837   */\n  dup2\n    /* \"#utility.yul\":825:838   */\n  mload\n    /* \"#utility.yul\":856:946   */\n  tag_41\n    /* \"#utility.yul\":942:945   */\n  dup5\n    /* \"#utility.yul\":934:940   */\n  dup3\n    /* \"#utility.yul\":927:931   */\n  0x20\n    /* \"#utility.yul\":919:925   */\n  dup7\n    /* \"#utility.yul\":915:932   */\n  add\n    /* \"#utility.yul\":856:946   */\n  tag_21\n  jump\t// in\ntag_41:\n    /* \"#utility.yul\":847:946   */\n  swap2\n  pop\n    /* \"#utility.yul\":670:952   */\n  pop\n    /* \"#utility.yul\":597:952   */\n  swap3\n  swap2\n  pop\n  pop\n  jump\t// out\n    /* \"#utility.yul\":958:1638   */\ntag_3:\n    /* \"#utility.yul\":1047:1053   */\n  0x00\n    /* \"#utility.yul\":1055:1061   */\n  dup1\n    /* \"#utility.yul\":1104:1106   */\n  0x40\n    /* \"#utility.yul\":1092:1101   */\n  dup4\n    /* \"#utility.yul\":1083:1090   */\n  dup6\n    /* \"#utility.yul\":1079:1102   */\n  sub\n    /* \"#utility.yul\":1075:1107   */\n  slt\n    /* \"#utility.yul\":1072:1191   */\n  iszero\n  tag_43\n  jumpi\n    /* \"#utility.yul\":1110:1189   */\n  tag_44\n  tag_45\n  jump\t// in\ntag_44:\n    /* \"#utility.yul\":1072:1191   */\ntag_43:\n    /* \"#utility.yul\":1230:1231   */\n  0x00\n    /* \"#utility.yul\":1255:1319   */\n  tag_46\n    /* \"#utility.yul\":1311:1318   */\n  dup6\n    /* \"#utility.yul\":1302:1308   */\n  dup3\n    /* \"#utility.yul\":1291:1300   */\n  dup7\n    /* \"#utility.yul\":1287:1309   */\n  add\n    /* \"#utility.yul\":1255:1319   */\n  tag_32\n  jump\t// in\ntag_46:\n    /* \"#utility.yul\":1245:1319   */\n  swap3\n  pop\n    /* \"#utility.yul\":1201:1329   */\n  pop\n    /* \"#utility.yul\":1389:1391   */\n  0x20\n    /* \"#utility.yul\":1378:1387   */\n  dup4\n    /* \"#utility.yul\":1374:1392   */\n  add\n    /* \"#utility.yul\":1368:1393   */\n  mload\n    /* \"#utility.yul\":1420:1438   */\n  0xffffffffffffffff\n    /* \"#utility.yul\":1412:1418   */\n  dup2\n    /* \"#utility.yul\":1409:1439   */\n  gt\n    /* \"#utility.yul\":1406:1523   */\n  iszero\n  tag_47\n  jumpi\n    /* \"#utility.yul\":1442:1521   */\n  tag_48\n  tag_49\n  jump\t// in\ntag_48:\n    /* \"#utility.yul\":1406:1523   */\ntag_47:\n    /* \"#utility.yul\":1547:1621   */\n  tag_50\n    /* \"#utility.yul\":1613:1620   */\n  dup6\n    /* \"#utility.yul\":1604:1610   */\n  dup3\n    /* \"#utility.yul\":1593:1602   */\n  dup7\n    /* \"#utility.yul\":1589:1611   */\n  add\n    /* \"#utility.yul\":1547:1621   */\n  tag_36\n  jump\t// in\ntag_50:\n    /* \"#utility.yul\":1537:1621   */\n  swap2\n  pop\n    /* \"#utility.yul\":1339:1631   */\n  pop\n    /* \"#utility.yul\":958:1638   */\n  swap3\n  pop\n  swap3\n  swap1\n  pop\n  jump\t// out\n    /* \"#utility.yul\":1644:1773   */\ntag_26:\n    /* \"#utility.yul\":1678:1684   */\n  0x00\n    /* \"#utility.yul\":1705:1725   */\n  tag_52\n  tag_53\n  jump\t// in\ntag_52:\n    /* \"#utility.yul\":1695:1725   */\n  swap1\n  pop\n    /* \"#utility.yul\":1734:1767   */\n  tag_54\n    /* \"#utility.yul\":1762:1766   */\n  dup3\n    /* \"#utility.yul\":1754:1760   */\n  dup3\n    /* \"#utility.yul\":1734:1767   */\n  tag_55\n  jump\t// in\ntag_54:\n    /* \"#utility.yul\":1644:1773   */\n  swap2\n  swap1\n  pop\n  jump\t// out\n    /* \"#utility.yul\":1779:1854   */\ntag_53:\n    /* \"#utility.yul\":1812:1818   */\n  0x00\n    /* \"#utility.yul\":1845:1847   */\n  0x40\n    /* \"#utility.yul\":1839:1848   */\n  mload\n    /* \"#utility.yul\":1829:1848   */\n  swap1\n  pop\n    /* \"#utility.yul\":1779:1854   */\n  swap1\n  jump\t// out\n    /* \"#utility.yul\":1860:2168   */\ntag_25:\n    /* \"#utility.yul\":1922:1926   */\n  0x00\n    /* \"#utility.yul\":2012:2030   */\n  0xffffffffffffffff\n    /* \"#utility.yul\":2004:2010   */\n  dup3\n    /* \"#utility.yul\":2001:2031   */\n  gt\n    /* \"#utility.yul\":1998:2054   */\n  iszero\n  tag_58\n  jumpi\n    /* \"#utility.yul\":2034:2052   */\n  tag_59\n  tag_60\n  jump\t// in\ntag_59:\n    /* \"#utility.yul\":1998:2054   */\ntag_58:\n    /* \"#utility.yul\":2072:2101   */\n  tag_61\n    /* \"#utility.yul\":2094:2100   */\n  dup3\n    /* \"#utility.yul\":2072:2101   */\n  tag_62\n  jump\t// in\ntag_61:\n    /* \"#utility.yul\":2064:2101   */\n  swap1\n  pop\n    /* \"#utility.yul\":2156:2160   */\n  0x20\n    /* \"#utility.yul\":2150:2154   */\n  dup2\n    /* \"#utility.yul\":2146:2161   */\n  add\n    /* \"#utility.yul\":2138:2161   */\n  swap1\n  pop\n    /* \"#utility.yul\":1860:2168   */\n  swap2\n  swap1\n  pop\n  jump\t// out\n    /* \"#utility.yul\":2174:2270   */\ntag_63:\n    /* \"#utility.yul\":2211:2218   */\n  0x00\n    /* \"#utility.yul\":2240:2264   */\n  tag_65\n    /* \"#utility.yul\":2258:2263   */\n  dup3\n    /* \"#utility.yul\":2240:2264   */\n  tag_66\n  jump\t// in\ntag_65:\n    /* \"#utility.yul\":2229:2264   */\n  swap1\n  pop\n    /* \"#utility.yul\":2174:2270   */\n  swap2\n  swap1\n  pop\n  jump\t// out\n    /* \"#utility.yul\":2276:2402   */\ntag_66:\n    /* \"#utility.yul\":2313:2320   */\n  0x00\n    /* \"#utility.yul\":2353:2395   */\n  0xffffffffffffffffffffffffffffffffffffffff\n    /* \"#utility.yul\":2346:2351   */\n  dup3\n    /* \"#utility.yul\":2342:2396   */\n  and\n    /* \"#utility.yul\":2331:2396   */\n  swap1\n  pop\n    /* \"#utility.yul\":2276:2402   */\n  swap2\n  swap1\n  pop\n  jump\t// out\n    /* \"#utility.yul\":2408:2715   */\ntag_31:\n    /* \"#utility.yul\":2476:2477   */\n  0x00\n    /* \"#utility.yul\":2486:2599   */\ntag_69:\n    /* \"#utility.yul\":2500:2506   */\n  dup4\n    /* \"#utility.yul\":2497:2498   */\n  dup2\n    /* \"#utility.yul\":2494:2507   */\n  lt\n    /* \"#utility.yul\":2486:2599   */\n  iszero\n  tag_71\n  jumpi\n    /* \"#utility.yul\":2585:2586   */\n  dup1\n    /* \"#utility.yul\":2580:2583   */\n  dup3\n    /* \"#utility.yul\":2576:2587   */\n  add\n    /* \"#utility.yul\":2570:2588   */\n  mload\n    /* \"#utility.yul\":2566:2567   */\n  dup2\n    /* \"#utility.yul\":2561:2564   */\n  dup5\n    /* \"#utility.yul\":2557:2568   */\n  add\n    /* \"#utility.yul\":2550:2589   */\n  mstore\n    /* \"#utility.yul\":2522:2524   */\n  0x20\n    /* \"#utility.yul\":2519:2520   */\n  dup2\n    /* \"#utility.yul\":2515:2525   */\n  add\n    /* \"#utility.yul\":2510:2525   */\n  swap1\n  pop\n    /* \"#utility.yul\":2486:2599   */\n  jump(tag_69)\ntag_71:\n    /* \"#utility.yul\":2617:2623   */\n  dup4\n    /* \"#utility.yul\":2614:2615   */\n  dup2\n    /* \"#utility.yul\":2611:2624   */\n  gt\n    /* \"#utility.yul\":2608:2709   */\n  iszero\n  tag_72\n  jumpi\n    /* \"#utility.yul\":2697:2698   */\n  0x00\n    /* \"#utility.yul\":2688:2694   */\n  dup5\n    /* \"#utility.yul\":2683:2686   */\n  dup5\n    /* \"#utility.yul\":2679:2695   */\n  add\n    /* \"#utility.yul\":2672:2699   */\n  mstore\n    /* \"#utility.yul\":2608:2709   */\ntag_72:\n    /* \"#utility.yul\":2457:2715   */\n  pop\n    /* \"#utility.yul\":2408:2715   */\n  pop\n  pop\n  pop\n  jump\t// out\n    /* \"#utility.yul\":2721:3041   */\ntag_10:\n    /* \"#utility.yul\":2765:2771   */\n  0x00\n    /* \"#utility.yul\":2802:2803   */\n  0x02\n    /* \"#utility.yul\":2796:2800   */\n  dup3\n    /* \"#utility.yul\":2792:2804   */\n  div\n    /* \"#utility.yul\":2782:2804   */\n  swap1\n  pop\n    /* \"#utility.yul\":2849:2850   */\n  0x01\n    /* \"#utility.yul\":2843:2847   */\n  dup3\n    /* \"#utility.yul\":2839:2851   */\n  and\n    /* \"#utility.yul\":2870:2888   */\n  dup1\n    /* \"#utility.yul\":2860:2941   */\n  tag_74\n  jumpi\n    /* \"#utility.yul\":2926:2930   */\n  0x7f\n    /* \"#utility.yul\":2918:2924   */\n  dup3\n    /* \"#utility.yul\":2914:2931   */\n  and\n    /* \"#utility.yul\":2904:2931   */\n  swap2\n  pop\n    /* \"#utility.yul\":2860:2941   */\ntag_74:\n    /* \"#utility.yul\":2988:2990   */\n  0x20\n    /* \"#utility.yul\":2980:2986   */\n  dup3\n    /* \"#utility.yul\":2977:2991   */\n  lt\n    /* \"#utility.yul\":2957:2975   */\n  dup2\n    /* \"#utility.yul\":2954:2992   */\n  eq\n    /* \"#utility.yul\":2951:3035   */\n  iszero\n  tag_75\n  jumpi\n    /* \"#utility.yul\":3007:3025   */\n  tag_76\n  tag_77\n  jump\t// in\ntag_76:\n    /* \"#utility.yul\":2951:3035   */\ntag_75:\n    /* \"#utility.yul\":2772:3041   */\n  pop\n    /* \"#utility.yul\":2721:3041   */\n  swap2\n  swap1\n  pop\n  jump\t// out\n    /* \"#utility.yul\":3047:3328   */\ntag_55:\n    /* \"#utility.yul\":3130:3157   */\n  tag_79\n    /* \"#utility.yul\":3152:3156   */\n  dup3\n    /* \"#utility.yul\":3130:3157   */\n  tag_62\n  jump\t// in\ntag_79:\n    /* \"#utility.yul\":3122:3128   */\n  dup2\n    /* \"#utility.yul\":3118:3158   */\n  add\n    /* \"#utility.yul\":3260:3266   */\n  dup2\n    /* \"#utility.yul\":3248:3258   */\n  dup2\n    /* \"#utility.yul\":3245:3267   */\n  lt\n    /* \"#utility.yul\":3224:3242   */\n  0xffffffffffffffff\n    /* \"#utility.yul\":3212:3222   */\n  dup3\n    /* \"#utility.yul\":3209:3243   */\n  gt\n    /* \"#utility.yul\":3206:3268   */\n  or\n    /* \"#utility.yul\":3203:3291   */\n  iszero\n  tag_80\n  jumpi\n    /* \"#utility.yul\":3271:3289   */\n  tag_81\n  tag_60\n  jump\t// in\ntag_81:\n    /* \"#utility.yul\":3203:3291   */\ntag_80:\n    /* \"#utility.yul\":3311:3321   */\n  dup1\n    /* \"#utility.yul\":3307:3309   */\n  0x40\n    /* \"#utility.yul\":3300:3322   */\n  mstore\n    /* \"#utility.yul\":3090:3328   */\n  pop\n    /* \"#utility.yul\":3047:3328   */\n  pop\n  pop\n  jump\t// out\n    /* \"#utility.yul\":3334:3514   */\ntag_77:\n    /* \"#utility.yul\":3382:3459   */\n  0x4e487b7100000000000000000000000000000000000000000000000000000000\n    /* \"#utility.yul\":3379:3380   */\n  0x00\n    /* \"#utility.yul\":3372:3460   */\n  mstore\n    /* \"#utility.yul\":3479:3483   */\n  0x22\n    /* \"#utility.yul\":3476:3477   */\n  0x04\n    /* \"#utility.yul\":3469:3484   */\n  mstore\n    /* \"#utility.yul\":3503:3507   */\n  0x24\n    /* \"#utility.yul\":3500:3501   */\n  0x00\n    /* \"#utility.yul\":3493:3508   */\n  revert\n    /* \"#utility.yul\":3520:3700   */\ntag_60:\n    /* \"#utility.yul\":3568:3645   */\n  0x4e487b7100000000000000000000000000000000000000000000000000000000\n    /* \"#utility.yul\":3565:3566   */\n  0x00\n    /* \"#utility.yul\":3558:3646   */\n  mstore\n    /* \"#utility.yul\":3665:3669   */\n  0x41\n    /* \"#utility.yul\":3662:3663   */\n  0x04\n    /* \"#utility.yul\":3655:3670   */\n  mstore\n    /* \"#utility.yul\":3689:3693   */\n  0x24\n    /* \"#utility.yul\":3686:3687   */\n  0x00\n    /* \"#utility.yul\":3679:3694   */\n  revert\n    /* \"#utility.yul\":3706:3823   */\ntag_40:\n    /* \"#utility.yul\":3815:3816   */\n  0x00\n    /* \"#utility.yul\":3812:3813   */\n  dup1\n    /* \"#utility.yul\":3805:3817   */\n  revert\n    /* \"#utility.yul\":3829:3946   */\ntag_29:\n    /* \"#utility.yul\":3938:3939   */\n  0x00\n    /* \"#utility.yul\":3935:3936   */\n  dup1\n    /* \"#utility.yul\":3928:3940   */\n  revert\n    /* \"#utility.yul\":3952:4069   */\ntag_49:\n    /* \"#utility.yul\":4061:4062   */\n  0x00\n    /* \"#utility.yul\":4058:4059   */\n  dup1\n    /* \"#utility.yul\":4051:4063   */\n  revert\n    /* \"#utility.yul\":4075:4192   */\ntag_45:\n    /* \"#utility.yul\":4184:4185   */\n  0x00\n    /* \"#utility.yul\":4181:4182   */\n  dup1\n    /* \"#utility.yul\":4174:4186   */\n  revert\n    /* \"#utility.yul\":4198:4300   */\ntag_62:\n    /* \"#utility.yul\":4239:4245   */\n  0x00\n    /* \"#utility.yul\":4290:4292   */\n  0x1f\n    /* \"#utility.yul\":4286:4293   */\n  not\n    /* \"#utility.yul\":4281:4283   */\n  0x1f\n    /* \"#utility.yul\":4274:4279   */\n  dup4\n    /* \"#utility.yul\":4270:4284   */\n  add\n    /* \"#utility.yul\":4266:4294   */\n  and\n    /* \"#utility.yul\":4256:4294   */\n  swap1\n  pop\n    /* \"#utility.yul\":4198:4300   */\n  swap2\n  swap1\n  pop\n  jump\t// out\n    /* \"#utility.yul\":4306:4428   */\ntag_35:\n    /* \"#utility.yul\":4379:4403   */\n  tag_90\n    /* \"#utility.yul\":4397:4402   */\n  dup2\n    /* \"#utility.yul\":4379:4403   */\n  tag_63\n  jump\t// in\ntag_90:\n    /* \"#utility.yul\":4372:4377   */\n  dup2\n    /* \"#utility.yul\":4369:4404   */\n  eq\n    /* \"#utility.yul\":4359:4422   */\n  tag_91\n  jumpi\n    /* \"#utility.yul\":4418:4419   */\n  0x00\n    /* \"#utility.yul\":4415:4416   */\n  dup1\n    /* \"#utility.yul\":4408:4420   */\n  revert\n    /* \"#utility.yul\":4359:4422   */\ntag_91:\n    /* \"#utility.yul\":4306:4428   */\n  pop\n  jump\t// out\n    /* \"Users/drewhyte/Sites/BLOCKCHAIN/klay-oracle/contracts/v0.0.5/Oracle.sol\":90:1589  contract Oracle is OracleInterface {... */\ntag_8:\n  dataSize(sub_0)\n  dup1\n  dataOffset(sub_0)\n  0x00\n  codecopy\n  0x00\n  return\nstop\n\nsub_0: assembly {\n        /* \"Users/drewhyte/Sites/BLOCKCHAIN/klay-oracle/contracts/v0.0.5/Oracle.sol\":90:1589  contract Oracle is OracleInterface {... */\n      mstore(0x40, 0x80)\n      callvalue\n      dup1\n      iszero\n      tag_1\n      jumpi\n      0x00\n      dup1\n      revert\n    tag_1:\n      pop\n      jumpi(tag_2, lt(calldatasize, 0x04))\n      shr(0xe0, calldataload(0x00))\n      dup1\n      0x2aa8481f\n      eq\n      tag_3\n      jumpi\n      dup1\n      0x5cd3275c\n      eq\n      tag_4\n      jumpi\n      dup1\n      0x5fb86b01\n      eq\n      tag_5\n      jumpi\n      dup1\n      0x81d12c58\n      eq\n      tag_6\n      jumpi\n      dup1\n      0xeb3377d5\n      eq\n      tag_7\n      jumpi\n    tag_2:\n      0x00\n      dup1\n      revert\n        /* \"Users/drewhyte/Sites/BLOCKCHAIN/klay-oracle/contracts/v0.0.5/Oracle.sol\":132:158  address public nodeAddress */\n    tag_3:\n      tag_8\n      tag_9\n      jump\t// in\n    tag_8:\n      mload(0x40)\n      tag_10\n      swap2\n      swap1\n      tag_11\n      jump\t// in\n    tag_10:\n      mload(0x40)\n      dup1\n      swap2\n      sub\n      swap1\n      return\n        /* \"Users/drewhyte/Sites/BLOCKCHAIN/klay-oracle/contracts/v0.0.5/Oracle.sol\":652:1187  function newOracleRequest(... */\n    tag_4:\n      tag_12\n      0x04\n      dup1\n      calldatasize\n      sub\n      dup2\n      add\n      swap1\n      tag_13\n      swap2\n      swap1\n      tag_14\n      jump\t// in\n    tag_13:\n      tag_15\n      jump\t// in\n    tag_12:\n      mload(0x40)\n      tag_16\n      swap2\n      swap1\n      tag_17\n      jump\t// in\n    tag_16:\n      mload(0x40)\n      dup1\n      swap2\n      sub\n      swap1\n      return\n        /* \"Users/drewhyte/Sites/BLOCKCHAIN/klay-oracle/contracts/v0.0.5/Oracle.sol\":165:188  string public adapterId */\n    tag_5:\n      tag_18\n      tag_19\n      jump\t// in\n    tag_18:\n      mload(0x40)\n      tag_20\n      swap2\n      swap1\n      tag_21\n      jump\t// in\n    tag_20:\n      mload(0x40)\n      dup1\n      swap2\n      sub\n      swap1\n      return\n        /* \"Users/drewhyte/Sites/BLOCKCHAIN/klay-oracle/contracts/v0.0.5/Oracle.sol\":400:425  Request[] public requests */\n    tag_6:\n      tag_22\n      0x04\n      dup1\n      calldatasize\n      sub\n      dup2\n      add\n      swap1\n      tag_23\n      swap2\n      swap1\n      tag_24\n      jump\t// in\n    tag_23:\n      tag_25\n      jump\t// in\n    tag_22:\n      mload(0x40)\n      tag_26\n      swap7\n      swap6\n      swap5\n      swap4\n      swap3\n      swap2\n      swap1\n      tag_27\n      jump\t// in\n    tag_26:\n      mload(0x40)\n      dup1\n      swap2\n      sub\n      swap1\n      return\n        /* \"Users/drewhyte/Sites/BLOCKCHAIN/klay-oracle/contracts/v0.0.5/Oracle.sol\":1193:1586  function fulfillOracleRequest(... */\n    tag_7:\n      tag_28\n      0x04\n      dup1\n      calldatasize\n      sub\n      dup2\n      add\n      swap1\n      tag_29\n      swap2\n      swap1\n      tag_30\n      jump\t// in\n    tag_29:\n      tag_31\n      jump\t// in\n    tag_28:\n      mload(0x40)\n      tag_32\n      swap2\n      swap1\n      tag_17\n      jump\t// in\n    tag_32:\n      mload(0x40)\n      dup1\n      swap2\n      sub\n      swap1\n      return\n        /* \"Users/drewhyte/Sites/BLOCKCHAIN/klay-oracle/contracts/v0.0.5/Oracle.sol\":132:158  address public nodeAddress */\n    tag_9:\n      0x00\n      dup1\n      sload\n      swap1\n      0x0100\n      exp\n      swap1\n      div\n      0xffffffffffffffffffffffffffffffffffffffff\n      and\n      dup2\n      jump\t// out\n        /* \"Users/drewhyte/Sites/BLOCKCHAIN/klay-oracle/contracts/v0.0.5/Oracle.sol\":652:1187  function newOracleRequest(... */\n    tag_15:\n        /* \"Users/drewhyte/Sites/BLOCKCHAIN/klay-oracle/contracts/v0.0.5/Oracle.sol\":812:816  bool */\n      0x00\n        /* \"Users/drewhyte/Sites/BLOCKCHAIN/klay-oracle/contracts/v0.0.5/Oracle.sol\":828:842  uint requestId */\n      dup1\n        /* \"Users/drewhyte/Sites/BLOCKCHAIN/klay-oracle/contracts/v0.0.5/Oracle.sol\":845:853  requests */\n      0x02\n        /* \"Users/drewhyte/Sites/BLOCKCHAIN/klay-oracle/contracts/v0.0.5/Oracle.sol\":845:860  requests.length */\n      dup1\n      sload\n      swap1\n      pop\n        /* \"Users/drewhyte/Sites/BLOCKCHAIN/klay-oracle/contracts/v0.0.5/Oracle.sol\":828:860  uint requestId = requests.length */\n      swap1\n      pop\n        /* \"Users/drewhyte/Sites/BLOCKCHAIN/klay-oracle/contracts/v0.0.5/Oracle.sol\":871:893  Request memory request */\n      0x00\n        /* \"Users/drewhyte/Sites/BLOCKCHAIN/klay-oracle/contracts/v0.0.5/Oracle.sol\":896:1071  Request(... */\n      mload(0x40)\n      dup1\n      0xc0\n      add\n      0x40\n      mstore\n      dup1\n        /* \"Users/drewhyte/Sites/BLOCKCHAIN/klay-oracle/contracts/v0.0.5/Oracle.sol\":917:926  requestId */\n      dup4\n        /* \"Users/drewhyte/Sites/BLOCKCHAIN/klay-oracle/contracts/v0.0.5/Oracle.sol\":896:1071  Request(... */\n      dup2\n      mstore\n      0x20\n      add\n        /* \"Users/drewhyte/Sites/BLOCKCHAIN/klay-oracle/contracts/v0.0.5/Oracle.sol\":940:951  nodeAddress */\n      0x00\n      dup1\n      sload\n      swap1\n      0x0100\n      exp\n      swap1\n      div\n      0xffffffffffffffffffffffffffffffffffffffff\n      and\n        /* \"Users/drewhyte/Sites/BLOCKCHAIN/klay-oracle/contracts/v0.0.5/Oracle.sol\":896:1071  Request(... */\n      0xffffffffffffffffffffffffffffffffffffffff\n      and\n      dup2\n      mstore\n      0x20\n      add\n        /* \"Users/drewhyte/Sites/BLOCKCHAIN/klay-oracle/contracts/v0.0.5/Oracle.sol\":965:974  adapterID */\n      dup7\n        /* \"Users/drewhyte/Sites/BLOCKCHAIN/klay-oracle/contracts/v0.0.5/Oracle.sol\":896:1071  Request(... */\n      dup2\n      mstore\n      0x20\n      add\n        /* \"Users/drewhyte/Sites/BLOCKCHAIN/klay-oracle/contracts/v0.0.5/Oracle.sol\":988:1006  callbackFunctionId */\n      dup8\n        /* \"Users/drewhyte/Sites/BLOCKCHAIN/klay-oracle/contracts/v0.0.5/Oracle.sol\":896:1071  Request(... */\n      not(0xffffffffffffffffffffffffffffffffffffffffffffffffffffffff)\n      and\n      dup2\n      mstore\n      0x20\n      add\n        /* \"Users/drewhyte/Sites/BLOCKCHAIN/klay-oracle/contracts/v0.0.5/Oracle.sol\":1020:1036  callBackContract */\n      dup6\n        /* \"Users/drewhyte/Sites/BLOCKCHAIN/klay-oracle/contracts/v0.0.5/Oracle.sol\":896:1071  Request(... */\n      0xffffffffffffffffffffffffffffffffffffffff\n      and\n      dup2\n      mstore\n      0x20\n      add\n        /* \"Users/drewhyte/Sites/BLOCKCHAIN/klay-oracle/contracts/v0.0.5/Oracle.sol\":1050:1061  bytes32(\"\") */\n      0x00\n        /* \"Users/drewhyte/Sites/BLOCKCHAIN/klay-oracle/contracts/v0.0.5/Oracle.sol\":896:1071  Request(... */\n      dup1\n      not\n      and\n      dup2\n      mstore\n      pop\n        /* \"Users/drewhyte/Sites/BLOCKCHAIN/klay-oracle/contracts/v0.0.5/Oracle.sol\":871:1071  Request memory request = Request(... */\n      swap1\n      pop\n        /* \"Users/drewhyte/Sites/BLOCKCHAIN/klay-oracle/contracts/v0.0.5/Oracle.sol\":1082:1090  requests */\n      0x02\n        /* \"Users/drewhyte/Sites/BLOCKCHAIN/klay-oracle/contracts/v0.0.5/Oracle.sol\":1096:1103  request */\n      dup2\n        /* \"Users/drewhyte/Sites/BLOCKCHAIN/klay-oracle/contracts/v0.0.5/Oracle.sol\":1082:1104  requests.push(request) */\n      swap1\n      dup1\n      0x01\n      dup2\n      sload\n      add\n      dup1\n      dup3\n      sstore\n      dup1\n      swap2\n      pop\n      pop\n      0x01\n      swap1\n      sub\n      swap1\n      0x00\n      mstore\n      keccak256(0x00, 0x20)\n      swap1\n      0x05\n      mul\n      add\n      0x00\n      swap1\n      swap2\n      swap1\n      swap2\n      swap1\n      swap2\n      pop\n      0x00\n      dup3\n      add\n      mload\n      dup2\n      0x00\n      add\n      sstore\n      0x20\n      dup3\n      add\n      mload\n      dup2\n      0x01\n      add\n      exp(0x0100, 0x00)\n      dup2\n      sload\n      dup2\n      0xffffffffffffffffffffffffffffffffffffffff\n      mul\n      not\n      and\n      swap1\n      dup4\n      0xffffffffffffffffffffffffffffffffffffffff\n      and\n      mul\n      or\n      swap1\n      sstore\n      pop\n      0x40\n      dup3\n      add\n      mload\n      dup2\n      0x02\n      add\n      swap1\n      dup1\n      mload\n      swap1\n      0x20\n      add\n      swap1\n      tag_35\n      swap3\n      swap2\n      swap1\n      tag_36\n      jump\t// in\n    tag_35:\n      pop\n      0x60\n      dup3\n      add\n      mload\n      dup2\n      0x03\n      add\n      exp(0x0100, 0x00)\n      dup2\n      sload\n      dup2\n      0xffffffff\n      mul\n      not\n      and\n      swap1\n      dup4\n      0xe0\n      shr\n      mul\n      or\n      swap1\n      sstore\n      pop\n      0x80\n      dup3\n      add\n      mload\n      dup2\n      0x03\n      add\n      exp(0x0100, 0x04)\n      dup2\n      sload\n      dup2\n      0xffffffffffffffffffffffffffffffffffffffff\n      mul\n      not\n      and\n      swap1\n      dup4\n      0xffffffffffffffffffffffffffffffffffffffff\n      and\n      mul\n      or\n      swap1\n      sstore\n      pop\n      0xa0\n      dup3\n      add\n      mload\n      dup2\n      0x04\n      add\n      sstore\n      pop\n      pop\n        /* \"Users/drewhyte/Sites/BLOCKCHAIN/klay-oracle/contracts/v0.0.5/Oracle.sol\":1148:1157  requestId */\n      dup2\n        /* \"Users/drewhyte/Sites/BLOCKCHAIN/klay-oracle/contracts/v0.0.5/Oracle.sol\":1137:1146  adapterID */\n      dup6\n        /* \"Users/drewhyte/Sites/BLOCKCHAIN/klay-oracle/contracts/v0.0.5/Oracle.sol\":1120:1158  NewOracleRequest(adapterID, requestId) */\n      mload(0x40)\n      tag_37\n      swap2\n      swap1\n      tag_38\n      jump\t// in\n    tag_37:\n      mload(0x40)\n      dup1\n      swap2\n      sub\n      swap1\n      keccak256\n      0x394611a31616be6c6ac9b70c798c776a5d7533f25ad93f61d72db1968d3ec206\n      mload(0x40)\n      mload(0x40)\n      dup1\n      swap2\n      sub\n      swap1\n      log3\n        /* \"Users/drewhyte/Sites/BLOCKCHAIN/klay-oracle/contracts/v0.0.5/Oracle.sol\":1176:1180  true */\n      0x01\n        /* \"Users/drewhyte/Sites/BLOCKCHAIN/klay-oracle/contracts/v0.0.5/Oracle.sol\":1169:1180  return true */\n      swap3\n      pop\n      pop\n      pop\n        /* \"Users/drewhyte/Sites/BLOCKCHAIN/klay-oracle/contracts/v0.0.5/Oracle.sol\":652:1187  function newOracleRequest(... */\n      swap4\n      swap3\n      pop\n      pop\n      pop\n      jump\t// out\n        /* \"Users/drewhyte/Sites/BLOCKCHAIN/klay-oracle/contracts/v0.0.5/Oracle.sol\":165:188  string public adapterId */\n    tag_19:\n      0x01\n      dup1\n      sload\n      tag_39\n      swap1\n      tag_40\n      jump\t// in\n    tag_39:\n      dup1\n      0x1f\n      add\n      0x20\n      dup1\n      swap2\n      div\n      mul\n      0x20\n      add\n      mload(0x40)\n      swap1\n      dup2\n      add\n      0x40\n      mstore\n      dup1\n      swap3\n      swap2\n      swap1\n      dup2\n      dup2\n      mstore\n      0x20\n      add\n      dup3\n      dup1\n      sload\n      tag_41\n      swap1\n      tag_40\n      jump\t// in\n    tag_41:\n      dup1\n      iszero\n      tag_42\n      jumpi\n      dup1\n      0x1f\n      lt\n      tag_43\n      jumpi\n      0x0100\n      dup1\n      dup4\n      sload\n      div\n      mul\n      dup4\n      mstore\n      swap2\n      0x20\n      add\n      swap2\n      jump(tag_42)\n    tag_43:\n      dup3\n      add\n      swap2\n      swap1\n      0x00\n      mstore\n      keccak256(0x00, 0x20)\n      swap1\n    tag_44:\n      dup2\n      sload\n      dup2\n      mstore\n      swap1\n      0x01\n      add\n      swap1\n      0x20\n      add\n      dup1\n      dup4\n      gt\n      tag_44\n      jumpi\n      dup3\n      swap1\n      sub\n      0x1f\n      and\n      dup3\n      add\n      swap2\n    tag_42:\n      pop\n      pop\n      pop\n      pop\n      pop\n      dup2\n      jump\t// out\n        /* \"Users/drewhyte/Sites/BLOCKCHAIN/klay-oracle/contracts/v0.0.5/Oracle.sol\":400:425  Request[] public requests */\n    tag_25:\n      0x02\n      dup2\n      dup2\n      sload\n      dup2\n      lt\n      tag_45\n      jumpi\n      0x00\n      dup1\n      revert\n    tag_45:\n      swap1\n      0x00\n      mstore\n      keccak256(0x00, 0x20)\n      swap1\n      0x05\n      mul\n      add\n      0x00\n      swap2\n      pop\n      swap1\n      pop\n      dup1\n      0x00\n      add\n      sload\n      swap1\n      dup1\n      0x01\n      add\n      0x00\n      swap1\n      sload\n      swap1\n      0x0100\n      exp\n      swap1\n      div\n      0xffffffffffffffffffffffffffffffffffffffff\n      and\n      swap1\n      dup1\n      0x02\n      add\n      dup1\n      sload\n      tag_47\n      swap1\n      tag_40\n      jump\t// in\n    tag_47:\n      dup1\n      0x1f\n      add\n      0x20\n      dup1\n      swap2\n      div\n      mul\n      0x20\n      add\n      mload(0x40)\n      swap1\n      dup2\n      add\n      0x40\n      mstore\n      dup1\n      swap3\n      swap2\n      swap1\n      dup2\n      dup2\n      mstore\n      0x20\n      add\n      dup3\n      dup1\n      sload\n      tag_48\n      swap1\n      tag_40\n      jump\t// in\n    tag_48:\n      dup1\n      iszero\n      tag_49\n      jumpi\n      dup1\n      0x1f\n      lt\n      tag_50\n      jumpi\n      0x0100\n      dup1\n      dup4\n      sload\n      div\n      mul\n      dup4\n      mstore\n      swap2\n      0x20\n      add\n      swap2\n      jump(tag_49)\n    tag_50:\n      dup3\n      add\n      swap2\n      swap1\n      0x00\n      mstore\n      keccak256(0x00, 0x20)\n      swap1\n    tag_51:\n      dup2\n      sload\n      dup2\n      mstore\n      swap1\n      0x01\n      add\n      swap1\n      0x20\n      add\n      dup1\n      dup4\n      gt\n      tag_51\n      jumpi\n      dup3\n      swap1\n      sub\n      0x1f\n      and\n      dup3\n      add\n      swap2\n    tag_49:\n      pop\n      pop\n      pop\n      pop\n      pop\n      swap1\n      dup1\n      0x03\n      add\n      0x00\n      swap1\n      sload\n      swap1\n      0x0100\n      exp\n      swap1\n      div\n      0xe0\n      shl\n      swap1\n      dup1\n      0x03\n      add\n      0x04\n      swap1\n      sload\n      swap1\n      0x0100\n      exp\n      swap1\n      div\n      0xffffffffffffffffffffffffffffffffffffffff\n      and\n      swap1\n      dup1\n      0x04\n      add\n      sload\n      swap1\n      pop\n      dup7\n      jump\t// out\n        /* \"Users/drewhyte/Sites/BLOCKCHAIN/klay-oracle/contracts/v0.0.5/Oracle.sol\":1193:1586  function fulfillOracleRequest(... */\n    tag_31:\n        /* \"Users/drewhyte/Sites/BLOCKCHAIN/klay-oracle/contracts/v0.0.5/Oracle.sol\":1301:1305  bool */\n      0x00\n        /* \"Users/drewhyte/Sites/BLOCKCHAIN/klay-oracle/contracts/v0.0.5/Oracle.sol\":1340:1351  nodeAddress */\n      dup1\n      0x00\n      swap1\n      sload\n      swap1\n      0x0100\n      exp\n      swap1\n      div\n      0xffffffffffffffffffffffffffffffffffffffff\n      and\n        /* \"Users/drewhyte/Sites/BLOCKCHAIN/klay-oracle/contracts/v0.0.5/Oracle.sol\":1326:1351  msg.sender == nodeAddress */\n      0xffffffffffffffffffffffffffffffffffffffff\n      and\n        /* \"Users/drewhyte/Sites/BLOCKCHAIN/klay-oracle/contracts/v0.0.5/Oracle.sol\":1326:1336  msg.sender */\n      caller\n        /* \"Users/drewhyte/Sites/BLOCKCHAIN/klay-oracle/contracts/v0.0.5/Oracle.sol\":1326:1351  msg.sender == nodeAddress */\n      0xffffffffffffffffffffffffffffffffffffffff\n      and\n      eq\n        /* \"Users/drewhyte/Sites/BLOCKCHAIN/klay-oracle/contracts/v0.0.5/Oracle.sol\":1318:1389  require(msg.sender == nodeAddress,\"Oracle: Permission needed for node\") */\n      tag_53\n      jumpi\n      mload(0x40)\n      0x08c379a000000000000000000000000000000000000000000000000000000000\n      dup2\n      mstore\n      0x04\n      add\n      tag_54\n      swap1\n      tag_55\n      jump\t// in\n    tag_54:\n      mload(0x40)\n      dup1\n      swap2\n      sub\n      swap1\n      revert\n    tag_53:\n        /* \"Users/drewhyte/Sites/BLOCKCHAIN/klay-oracle/contracts/v0.0.5/Oracle.sol\":1400:1422  Request memory request */\n      0x00\n        /* \"Users/drewhyte/Sites/BLOCKCHAIN/klay-oracle/contracts/v0.0.5/Oracle.sol\":1425:1433  requests */\n      0x02\n        /* \"Users/drewhyte/Sites/BLOCKCHAIN/klay-oracle/contracts/v0.0.5/Oracle.sol\":1434:1443  requestId */\n      dup5\n        /* \"Users/drewhyte/Sites/BLOCKCHAIN/klay-oracle/contracts/v0.0.5/Oracle.sol\":1425:1444  requests[requestId] */\n      dup2\n      sload\n      dup2\n      lt\n      tag_56\n      jumpi\n      tag_57\n      tag_58\n      jump\t// in\n    tag_57:\n    tag_56:\n      swap1\n      0x00\n      mstore\n      keccak256(0x00, 0x20)\n      swap1\n      0x05\n      mul\n      add\n        /* \"Users/drewhyte/Sites/BLOCKCHAIN/klay-oracle/contracts/v0.0.5/Oracle.sol\":1400:1444  Request memory request = requests[requestId] */\n      mload(0x40)\n      dup1\n      0xc0\n      add\n      0x40\n      mstore\n      swap1\n      dup2\n      0x00\n      dup3\n      add\n      sload\n      dup2\n      mstore\n      0x20\n      add\n      0x01\n      dup3\n      add\n      0x00\n      swap1\n      sload\n      swap1\n      0x0100\n      exp\n      swap1\n      div\n      0xffffffffffffffffffffffffffffffffffffffff\n      and\n      0xffffffffffffffffffffffffffffffffffffffff\n      and\n      0xffffffffffffffffffffffffffffffffffffffff\n      and\n      dup2\n      mstore\n      0x20\n      add\n      0x02\n      dup3\n      add\n      dup1\n      sload\n      tag_60\n      swap1\n      tag_40\n      jump\t// in\n    tag_60:\n      dup1\n      0x1f\n      add\n      0x20\n      dup1\n      swap2\n      div\n      mul\n      0x20\n      add\n      mload(0x40)\n      swap1\n      dup2\n      add\n      0x40\n      mstore\n      dup1\n      swap3\n      swap2\n      swap1\n      dup2\n      dup2\n      mstore\n      0x20\n      add\n      dup3\n      dup1\n      sload\n      tag_61\n      swap1\n      tag_40\n      jump\t// in\n    tag_61:\n      dup1\n      iszero\n      tag_62\n      jumpi\n      dup1\n      0x1f\n      lt\n      tag_63\n      jumpi\n      0x0100\n      dup1\n      dup4\n      sload\n      div\n      mul\n      dup4\n      mstore\n      swap2\n      0x20\n      add\n      swap2\n      jump(tag_62)\n    tag_63:\n      dup3\n      add\n      swap2\n      swap1\n      0x00\n      mstore\n      keccak256(0x00, 0x20)\n      swap1\n    tag_64:\n      dup2\n      sload\n      dup2\n      mstore\n      swap1\n      0x01\n      add\n      swap1\n      0x20\n      add\n      dup1\n      dup4\n      gt\n      tag_64\n      jumpi\n      dup3\n      swap1\n      sub\n      0x1f\n      and\n      dup3\n      add\n      swap2\n    tag_62:\n      pop\n      pop\n      pop\n      pop\n      pop\n      dup2\n      mstore\n      0x20\n      add\n      0x03\n      dup3\n      add\n      0x00\n      swap1\n      sload\n      swap1\n      0x0100\n      exp\n      swap1\n      div\n      0xe0\n      shl\n      not(0xffffffffffffffffffffffffffffffffffffffffffffffffffffffff)\n      and\n      not(0xffffffffffffffffffffffffffffffffffffffffffffffffffffffff)\n      and\n      dup2\n      mstore\n      0x20\n      add\n      0x03\n      dup3\n      add\n      0x04\n      swap1\n      sload\n      swap1\n      0x0100\n      exp\n      swap1\n      div\n      0xffffffffffffffffffffffffffffffffffffffff\n      and\n      0xffffffffffffffffffffffffffffffffffffffff\n      and\n      0xffffffffffffffffffffffffffffffffffffffff\n      and\n      dup2\n      mstore\n      0x20\n      add\n      0x04\n      dup3\n      add\n      sload\n      dup2\n      mstore\n      pop\n      pop\n      swap1\n      pop\n        /* \"Users/drewhyte/Sites/BLOCKCHAIN/klay-oracle/contracts/v0.0.5/Oracle.sol\":1455:1467  bool success */\n      0x00\n        /* \"Users/drewhyte/Sites/BLOCKCHAIN/klay-oracle/contracts/v0.0.5/Oracle.sol\":1473:1480  request */\n      dup2\n        /* \"Users/drewhyte/Sites/BLOCKCHAIN/klay-oracle/contracts/v0.0.5/Oracle.sol\":1473:1497  request.callBackContract */\n      0x80\n      add\n      mload\n        /* \"Users/drewhyte/Sites/BLOCKCHAIN/klay-oracle/contracts/v0.0.5/Oracle.sol\":1473:1502  request.callBackContract.call */\n      0xffffffffffffffffffffffffffffffffffffffff\n      and\n        /* \"Users/drewhyte/Sites/BLOCKCHAIN/klay-oracle/contracts/v0.0.5/Oracle.sol\":1520:1527  request */\n      dup3\n        /* \"Users/drewhyte/Sites/BLOCKCHAIN/klay-oracle/contracts/v0.0.5/Oracle.sol\":1520:1546  request.callbackFunctionId */\n      0x60\n      add\n      mload\n        /* \"Users/drewhyte/Sites/BLOCKCHAIN/klay-oracle/contracts/v0.0.5/Oracle.sol\":1548:1552  data */\n      dup6\n        /* \"Users/drewhyte/Sites/BLOCKCHAIN/klay-oracle/contracts/v0.0.5/Oracle.sol\":1503:1553  abi.encodePacked(request.callbackFunctionId, data) */\n      add(0x20, mload(0x40))\n      tag_65\n      swap3\n      swap2\n      swap1\n      tag_66\n      jump\t// in\n    tag_65:\n      mload(0x40)\n      0x20\n      dup2\n      dup4\n      sub\n      sub\n      dup2\n      mstore\n      swap1\n      0x40\n      mstore\n        /* \"Users/drewhyte/Sites/BLOCKCHAIN/klay-oracle/contracts/v0.0.5/Oracle.sol\":1473:1554  request.callBackContract.call(abi.encodePacked(request.callbackFunctionId, data)) */\n      mload(0x40)\n      tag_67\n      swap2\n      swap1\n      tag_68\n      jump\t// in\n    tag_67:\n      0x00\n      mload(0x40)\n      dup1\n      dup4\n      sub\n      dup2\n      0x00\n      dup7\n      gas\n      call\n      swap2\n      pop\n      pop\n      returndatasize\n      dup1\n      0x00\n      dup2\n      eq\n      tag_71\n      jumpi\n      mload(0x40)\n      swap2\n      pop\n      and(add(returndatasize, 0x3f), not(0x1f))\n      dup3\n      add\n      0x40\n      mstore\n      returndatasize\n      dup3\n      mstore\n      returndatasize\n      0x00\n      0x20\n      dup5\n      add\n      returndatacopy\n      jump(tag_70)\n    tag_71:\n      0x60\n      swap2\n      pop\n    tag_70:\n      pop\n        /* \"Users/drewhyte/Sites/BLOCKCHAIN/klay-oracle/contracts/v0.0.5/Oracle.sol\":1454:1554  (bool success, ) = request.callBackContract.call(abi.encodePacked(request.callbackFunctionId, data)) */\n      pop\n      swap1\n      pop\n        /* \"Users/drewhyte/Sites/BLOCKCHAIN/klay-oracle/contracts/v0.0.5/Oracle.sol\":1572:1579  success */\n      dup1\n        /* \"Users/drewhyte/Sites/BLOCKCHAIN/klay-oracle/contracts/v0.0.5/Oracle.sol\":1565:1579  return success */\n      swap3\n      pop\n      pop\n      pop\n        /* \"Users/drewhyte/Sites/BLOCKCHAIN/klay-oracle/contracts/v0.0.5/Oracle.sol\":1193:1586  function fulfillOracleRequest(... */\n      swap3\n      swap2\n      pop\n      pop\n      jump\t// out\n    tag_36:\n      dup3\n      dup1\n      sload\n      tag_72\n      swap1\n      tag_40\n      jump\t// in\n    tag_72:\n      swap1\n      0x00\n      mstore\n      keccak256(0x00, 0x20)\n      swap1\n      0x1f\n      add\n      0x20\n      swap1\n      div\n      dup2\n      add\n      swap3\n      dup3\n      tag_74\n      jumpi\n      0x00\n      dup6\n      sstore\n      jump(tag_73)\n    tag_74:\n      dup3\n      0x1f\n      lt\n      tag_75\n      jumpi\n      dup1\n      mload\n      not(0xff)\n      and\n      dup4\n      dup1\n      add\n      or\n      dup6\n      sstore\n      jump(tag_73)\n    tag_75:\n      dup3\n      dup1\n      add\n      0x01\n      add\n      dup6\n      sstore\n      dup3\n      iszero\n      tag_73\n      jumpi\n      swap2\n      dup3\n      add\n    tag_76:\n      dup3\n      dup2\n      gt\n      iszero\n      tag_77\n      jumpi\n      dup3\n      mload\n      dup3\n      sstore\n      swap2\n      0x20\n      add\n      swap2\n      swap1\n      0x01\n      add\n      swap1\n      jump(tag_76)\n    tag_77:\n    tag_73:\n      pop\n      swap1\n      pop\n      tag_78\n      swap2\n      swap1\n      tag_79\n      jump\t// in\n    tag_78:\n      pop\n      swap1\n      jump\t// out\n    tag_79:\n    tag_80:\n      dup1\n      dup3\n      gt\n      iszero\n      tag_81\n      jumpi\n      0x00\n      dup2\n      0x00\n      swap1\n      sstore\n      pop\n      0x01\n      add\n      jump(tag_80)\n    tag_81:\n      pop\n      swap1\n      jump\t// out\n        /* \"#utility.yul\":7:419   */\n    tag_83:\n        /* \"#utility.yul\":85:90   */\n      0x00\n        /* \"#utility.yul\":110:176   */\n      tag_85\n        /* \"#utility.yul\":126:175   */\n      tag_86\n        /* \"#utility.yul\":168:174   */\n      dup5\n        /* \"#utility.yul\":126:175   */\n      tag_87\n      jump\t// in\n    tag_86:\n        /* \"#utility.yul\":110:176   */\n      tag_88\n      jump\t// in\n    tag_85:\n        /* \"#utility.yul\":101:176   */\n      swap1\n      pop\n        /* \"#utility.yul\":199:205   */\n      dup3\n        /* \"#utility.yul\":192:197   */\n      dup2\n        /* \"#utility.yul\":185:206   */\n      mstore\n        /* \"#utility.yul\":237:241   */\n      0x20\n        /* \"#utility.yul\":230:235   */\n      dup2\n        /* \"#utility.yul\":226:242   */\n      add\n        /* \"#utility.yul\":275:278   */\n      dup5\n        /* \"#utility.yul\":266:272   */\n      dup5\n        /* \"#utility.yul\":261:264   */\n      dup5\n        /* \"#utility.yul\":257:273   */\n      add\n        /* \"#utility.yul\":254:279   */\n      gt\n        /* \"#utility.yul\":251:363   */\n      iszero\n      tag_89\n      jumpi\n        /* \"#utility.yul\":282:361   */\n      tag_90\n      tag_91\n      jump\t// in\n    tag_90:\n        /* \"#utility.yul\":251:363   */\n    tag_89:\n        /* \"#utility.yul\":372:413   */\n      tag_92\n        /* \"#utility.yul\":406:412   */\n      dup5\n        /* \"#utility.yul\":401:404   */\n      dup3\n        /* \"#utility.yul\":396:399   */\n      dup6\n        /* \"#utility.yul\":372:413   */\n      tag_93\n      jump\t// in\n    tag_92:\n        /* \"#utility.yul\":91:419   */\n      pop\n        /* \"#utility.yul\":7:419   */\n      swap4\n      swap3\n      pop\n      pop\n      pop\n      jump\t// out\n        /* \"#utility.yul\":425:564   */\n    tag_94:\n        /* \"#utility.yul\":471:476   */\n      0x00\n        /* \"#utility.yul\":509:515   */\n      dup2\n        /* \"#utility.yul\":496:516   */\n      calldataload\n        /* \"#utility.yul\":487:516   */\n      swap1\n      pop\n        /* \"#utility.yul\":525:558   */\n      tag_96\n        /* \"#utility.yul\":552:557   */\n      dup2\n        /* \"#utility.yul\":525:558   */\n      tag_97\n      jump\t// in\n    tag_96:\n        /* \"#utility.yul\":425:564   */\n      swap3\n      swap2\n      pop\n      pop\n      jump\t// out\n        /* \"#utility.yul\":570:709   */\n    tag_98:\n        /* \"#utility.yul\":616:621   */\n      0x00\n        /* \"#utility.yul\":654:660   */\n      dup2\n        /* \"#utility.yul\":641:661   */\n      calldataload\n        /* \"#utility.yul\":632:661   */\n      swap1\n      pop\n        /* \"#utility.yul\":670:703   */\n      tag_100\n        /* \"#utility.yul\":697:702   */\n      dup2\n        /* \"#utility.yul\":670:703   */\n      tag_101\n      jump\t// in\n    tag_100:\n        /* \"#utility.yul\":570:709   */\n      swap3\n      swap2\n      pop\n      pop\n      jump\t// out\n        /* \"#utility.yul\":715:852   */\n    tag_102:\n        /* \"#utility.yul\":760:765   */\n      0x00\n        /* \"#utility.yul\":798:804   */\n      dup2\n        /* \"#utility.yul\":785:805   */\n      calldataload\n        /* \"#utility.yul\":776:805   */\n      swap1\n      pop\n        /* \"#utility.yul\":814:846   */\n      tag_104\n        /* \"#utility.yul\":840:845   */\n      dup2\n        /* \"#utility.yul\":814:846   */\n      tag_105\n      jump\t// in\n    tag_104:\n        /* \"#utility.yul\":715:852   */\n      swap3\n      swap2\n      pop\n      pop\n      jump\t// out\n        /* \"#utility.yul\":872:1212   */\n    tag_106:\n        /* \"#utility.yul\":928:933   */\n      0x00\n        /* \"#utility.yul\":977:980   */\n      dup3\n        /* \"#utility.yul\":970:974   */\n      0x1f\n        /* \"#utility.yul\":962:968   */\n      dup4\n        /* \"#utility.yul\":958:975   */\n      add\n        /* \"#utility.yul\":954:981   */\n      slt\n        /* \"#utility.yul\":944:1066   */\n      tag_108\n      jumpi\n        /* \"#utility.yul\":985:1064   */\n      tag_109\n      tag_110\n      jump\t// in\n    tag_109:\n        /* \"#utility.yul\":944:1066   */\n    tag_108:\n        /* \"#utility.yul\":1102:1108   */\n      dup2\n        /* \"#utility.yul\":1089:1109   */\n      calldataload\n        /* \"#utility.yul\":1127:1206   */\n      tag_111\n        /* \"#utility.yul\":1202:1205   */\n      dup5\n        /* \"#utility.yul\":1194:1200   */\n      dup3\n        /* \"#utility.yul\":1187:1191   */\n      0x20\n        /* \"#utility.yul\":1179:1185   */\n      dup7\n        /* \"#utility.yul\":1175:1192   */\n      add\n        /* \"#utility.yul\":1127:1206   */\n      tag_83\n      jump\t// in\n    tag_111:\n        /* \"#utility.yul\":1118:1206   */\n      swap2\n      pop\n        /* \"#utility.yul\":934:1212   */\n      pop\n        /* \"#utility.yul\":872:1212   */\n      swap3\n      swap2\n      pop\n      pop\n      jump\t// out\n        /* \"#utility.yul\":1218:1357   */\n    tag_112:\n        /* \"#utility.yul\":1264:1269   */\n      0x00\n        /* \"#utility.yul\":1302:1308   */\n      dup2\n        /* \"#utility.yul\":1289:1309   */\n      calldataload\n        /* \"#utility.yul\":1280:1309   */\n      swap1\n      pop\n        /* \"#utility.yul\":1318:1351   */\n      tag_114\n        /* \"#utility.yul\":1345:1350   */\n      dup2\n        /* \"#utility.yul\":1318:1351   */\n      tag_115\n      jump\t// in\n    tag_114:\n        /* \"#utility.yul\":1218:1357   */\n      swap3\n      swap2\n      pop\n      pop\n      jump\t// out\n        /* \"#utility.yul\":1363:2160   */\n    tag_14:\n        /* \"#utility.yul\":1449:1455   */\n      0x00\n        /* \"#utility.yul\":1457:1463   */\n      dup1\n        /* \"#utility.yul\":1465:1471   */\n      0x00\n        /* \"#utility.yul\":1514:1516   */\n      0x60\n        /* \"#utility.yul\":1502:1511   */\n      dup5\n        /* \"#utility.yul\":1493:1500   */\n      dup7\n        /* \"#utility.yul\":1489:1512   */\n      sub\n        /* \"#utility.yul\":1485:1517   */\n      slt\n        /* \"#utility.yul\":1482:1601   */\n      iszero\n      tag_117\n      jumpi\n        /* \"#utility.yul\":1520:1599   */\n      tag_118\n      tag_119\n      jump\t// in\n    tag_118:\n        /* \"#utility.yul\":1482:1601   */\n    tag_117:\n        /* \"#utility.yul\":1640:1641   */\n      0x00\n        /* \"#utility.yul\":1665:1717   */\n      tag_120\n        /* \"#utility.yul\":1709:1716   */\n      dup7\n        /* \"#utility.yul\":1700:1706   */\n      dup3\n        /* \"#utility.yul\":1689:1698   */\n      dup8\n        /* \"#utility.yul\":1685:1707   */\n      add\n        /* \"#utility.yul\":1665:1717   */\n      tag_102\n      jump\t// in\n    tag_120:\n        /* \"#utility.yul\":1655:1717   */\n      swap4\n      pop\n        /* \"#utility.yul\":1611:1727   */\n      pop\n        /* \"#utility.yul\":1794:1796   */\n      0x20\n        /* \"#utility.yul\":1783:1792   */\n      dup5\n        /* \"#utility.yul\":1779:1797   */\n      add\n        /* \"#utility.yul\":1766:1798   */\n      calldataload\n        /* \"#utility.yul\":1825:1843   */\n      0xffffffffffffffff\n        /* \"#utility.yul\":1817:1823   */\n      dup2\n        /* \"#utility.yul\":1814:1844   */\n      gt\n        /* \"#utility.yul\":1811:1928   */\n      iszero\n      tag_121\n      jumpi\n        /* \"#utility.yul\":1847:1926   */\n      tag_122\n      tag_123\n      jump\t// in\n    tag_122:\n        /* \"#utility.yul\":1811:1928   */\n    tag_121:\n        /* \"#utility.yul\":1952:2015   */\n      tag_124\n        /* \"#utility.yul\":2007:2014   */\n      dup7\n        /* \"#utility.yul\":1998:2004   */\n      dup3\n        /* \"#utility.yul\":1987:1996   */\n      dup8\n        /* \"#utility.yul\":1983:2005   */\n      add\n        /* \"#utility.yul\":1952:2015   */\n      tag_106\n      jump\t// in\n    tag_124:\n        /* \"#utility.yul\":1942:2015   */\n      swap3\n      pop\n        /* \"#utility.yul\":1737:2025   */\n      pop\n        /* \"#utility.yul\":2064:2066   */\n      0x40\n        /* \"#utility.yul\":2090:2143   */\n      tag_125\n        /* \"#utility.yul\":2135:2142   */\n      dup7\n        /* \"#utility.yul\":2126:2132   */\n      dup3\n        /* \"#utility.yul\":2115:2124   */\n      dup8\n        /* \"#utility.yul\":2111:2133   */\n      add\n        /* \"#utility.yul\":2090:2143   */\n      tag_94\n      jump\t// in\n    tag_125:\n        /* \"#utility.yul\":2080:2143   */\n      swap2\n      pop\n        /* \"#utility.yul\":2035:2153   */\n      pop\n        /* \"#utility.yul\":1363:2160   */\n      swap3\n      pop\n      swap3\n      pop\n      swap3\n      jump\t// out\n        /* \"#utility.yul\":2166:2495   */\n    tag_24:\n        /* \"#utility.yul\":2225:2231   */\n      0x00\n        /* \"#utility.yul\":2274:2276   */\n      0x20\n        /* \"#utility.yul\":2262:2271   */\n      dup3\n        /* \"#utility.yul\":2253:2260   */\n      dup5\n        /* \"#utility.yul\":2249:2272   */\n      sub\n        /* \"#utility.yul\":2245:2277   */\n      slt\n        /* \"#utility.yul\":2242:2361   */\n      iszero\n      tag_127\n      jumpi\n        /* \"#utility.yul\":2280:2359   */\n      tag_128\n      tag_119\n      jump\t// in\n    tag_128:\n        /* \"#utility.yul\":2242:2361   */\n    tag_127:\n        /* \"#utility.yul\":2400:2401   */\n      0x00\n        /* \"#utility.yul\":2425:2478   */\n      tag_129\n        /* \"#utility.yul\":2470:2477   */\n      dup5\n        /* \"#utility.yul\":2461:2467   */\n      dup3\n        /* \"#utility.yul\":2450:2459   */\n      dup6\n        /* \"#utility.yul\":2446:2468   */\n      add\n        /* \"#utility.yul\":2425:2478   */\n      tag_112\n      jump\t// in\n    tag_129:\n        /* \"#utility.yul\":2415:2478   */\n      swap2\n      pop\n        /* \"#utility.yul\":2371:2488   */\n      pop\n        /* \"#utility.yul\":2166:2495   */\n      swap3\n      swap2\n      pop\n      pop\n      jump\t// out\n        /* \"#utility.yul\":2501:2975   */\n    tag_30:\n        /* \"#utility.yul\":2569:2575   */\n      0x00\n        /* \"#utility.yul\":2577:2583   */\n      dup1\n        /* \"#utility.yul\":2626:2628   */\n      0x40\n        /* \"#utility.yul\":2614:2623   */\n      dup4\n        /* \"#utility.yul\":2605:2612   */\n      dup6\n        /* \"#utility.yul\":2601:2624   */\n      sub\n        /* \"#utility.yul\":2597:2629   */\n      slt\n        /* \"#utility.yul\":2594:2713   */\n      iszero\n      tag_131\n      jumpi\n        /* \"#utility.yul\":2632:2711   */\n      tag_132\n      tag_119\n      jump\t// in\n    tag_132:\n        /* \"#utility.yul\":2594:2713   */\n    tag_131:\n        /* \"#utility.yul\":2752:2753   */\n      0x00\n        /* \"#utility.yul\":2777:2830   */\n      tag_133\n        /* \"#utility.yul\":2822:2829   */\n      dup6\n        /* \"#utility.yul\":2813:2819   */\n      dup3\n        /* \"#utility.yul\":2802:2811   */\n      dup7\n        /* \"#utility.yul\":2798:2820   */\n      add\n        /* \"#utility.yul\":2777:2830   */\n      tag_112\n      jump\t// in\n    tag_133:\n        /* \"#utility.yul\":2767:2830   */\n      swap3\n      pop\n        /* \"#utility.yul\":2723:2840   */\n      pop\n        /* \"#utility.yul\":2879:2881   */\n      0x20\n        /* \"#utility.yul\":2905:2958   */\n      tag_134\n        /* \"#utility.yul\":2950:2957   */\n      dup6\n        /* \"#utility.yul\":2941:2947   */\n      dup3\n        /* \"#utility.yul\":2930:2939   */\n      dup7\n        /* \"#utility.yul\":2926:2948   */\n      add\n        /* \"#utility.yul\":2905:2958   */\n      tag_98\n      jump\t// in\n    tag_134:\n        /* \"#utility.yul\":2895:2958   */\n      swap2\n      pop\n        /* \"#utility.yul\":2850:2968   */\n      pop\n        /* \"#utility.yul\":2501:2975   */\n      swap3\n      pop\n      swap3\n      swap1\n      pop\n      jump\t// out\n        /* \"#utility.yul\":2981:3099   */\n    tag_135:\n        /* \"#utility.yul\":3068:3092   */\n      tag_137\n        /* \"#utility.yul\":3086:3091   */\n      dup2\n        /* \"#utility.yul\":3068:3092   */\n      tag_138\n      jump\t// in\n    tag_137:\n        /* \"#utility.yul\":3063:3066   */\n      dup3\n        /* \"#utility.yul\":3056:3093   */\n      mstore\n        /* \"#utility.yul\":2981:3099   */\n      pop\n      pop\n      jump\t// out\n        /* \"#utility.yul\":3105:3214   */\n    tag_139:\n        /* \"#utility.yul\":3186:3207   */\n      tag_141\n        /* \"#utility.yul\":3201:3206   */\n      dup2\n        /* \"#utility.yul\":3186:3207   */\n      tag_142\n      jump\t// in\n    tag_141:\n        /* \"#utility.yul\":3181:3184   */\n      dup3\n        /* \"#utility.yul\":3174:3208   */\n      mstore\n        /* \"#utility.yul\":3105:3214   */\n      pop\n      pop\n      jump\t// out\n        /* \"#utility.yul\":3220:3338   */\n    tag_143:\n        /* \"#utility.yul\":3307:3331   */\n      tag_145\n        /* \"#utility.yul\":3325:3330   */\n      dup2\n        /* \"#utility.yul\":3307:3331   */\n      tag_146\n      jump\t// in\n    tag_145:\n        /* \"#utility.yul\":3302:3305   */\n      dup3\n        /* \"#utility.yul\":3295:3332   */\n      mstore\n        /* \"#utility.yul\":3220:3338   */\n      pop\n      pop\n      jump\t// out\n        /* \"#utility.yul\":3344:3501   */\n    tag_147:\n        /* \"#utility.yul\":3449:3494   */\n      tag_149\n        /* \"#utility.yul\":3469:3493   */\n      tag_150\n        /* \"#utility.yul\":3487:3492   */\n      dup3\n        /* \"#utility.yul\":3469:3493   */\n      tag_146\n      jump\t// in\n    tag_150:\n        /* \"#utility.yul\":3449:3494   */\n      tag_151\n      jump\t// in\n    tag_149:\n        /* \"#utility.yul\":3444:3447   */\n      dup3\n        /* \"#utility.yul\":3437:3495   */\n      mstore\n        /* \"#utility.yul\":3344:3501   */\n      pop\n      pop\n      jump\t// out\n        /* \"#utility.yul\":3507:3622   */\n    tag_152:\n        /* \"#utility.yul\":3592:3615   */\n      tag_154\n        /* \"#utility.yul\":3609:3614   */\n      dup2\n        /* \"#utility.yul\":3592:3615   */\n      tag_155\n      jump\t// in\n    tag_154:\n        /* \"#utility.yul\":3587:3590   */\n      dup3\n        /* \"#utility.yul\":3580:3616   */\n      mstore\n        /* \"#utility.yul\":3507:3622   */\n      pop\n      pop\n      jump\t// out\n        /* \"#utility.yul\":3628:3781   */\n    tag_156:\n        /* \"#utility.yul\":3731:3774   */\n      tag_158\n        /* \"#utility.yul\":3750:3773   */\n      tag_159\n        /* \"#utility.yul\":3767:3772   */\n      dup3\n        /* \"#utility.yul\":3750:3773   */\n      tag_155\n      jump\t// in\n    tag_159:\n        /* \"#utility.yul\":3731:3774   */\n      tag_160\n      jump\t// in\n    tag_158:\n        /* \"#utility.yul\":3726:3729   */\n      dup3\n        /* \"#utility.yul\":3719:3775   */\n      mstore\n        /* \"#utility.yul\":3628:3781   */\n      pop\n      pop\n      jump\t// out\n        /* \"#utility.yul\":3787:4160   */\n    tag_161:\n        /* \"#utility.yul\":3891:3894   */\n      0x00\n        /* \"#utility.yul\":3919:3957   */\n      tag_163\n        /* \"#utility.yul\":3951:3956   */\n      dup3\n        /* \"#utility.yul\":3919:3957   */\n      tag_164\n      jump\t// in\n    tag_163:\n        /* \"#utility.yul\":3973:4061   */\n      tag_165\n        /* \"#utility.yul\":4054:4060   */\n      dup2\n        /* \"#utility.yul\":4049:4052   */\n      dup6\n        /* \"#utility.yul\":3973:4061   */\n      tag_166\n      jump\t// in\n    tag_165:\n        /* \"#utility.yul\":3966:4061   */\n      swap4\n      pop\n        /* \"#utility.yul\":4070:4122   */\n      tag_167\n        /* \"#utility.yul\":4115:4121   */\n      dup2\n        /* \"#utility.yul\":4110:4113   */\n      dup6\n        /* \"#utility.yul\":4103:4107   */\n      0x20\n        /* \"#utility.yul\":4096:4101   */\n      dup7\n        /* \"#utility.yul\":4092:4108   */\n      add\n        /* \"#utility.yul\":4070:4122   */\n      tag_168\n      jump\t// in\n    tag_167:\n        /* \"#utility.yul\":4147:4153   */\n      dup1\n        /* \"#utility.yul\":4142:4145   */\n      dup5\n        /* \"#utility.yul\":4138:4154   */\n      add\n        /* \"#utility.yul\":4131:4154   */\n      swap2\n      pop\n        /* \"#utility.yul\":3895:4160   */\n      pop\n        /* \"#utility.yul\":3787:4160   */\n      swap3\n      swap2\n      pop\n      pop\n      jump\t// out\n        /* \"#utility.yul\":4166:4530   */\n    tag_169:\n        /* \"#utility.yul\":4254:4257   */\n      0x00\n        /* \"#utility.yul\":4282:4321   */\n      tag_171\n        /* \"#utility.yul\":4315:4320   */\n      dup3\n        /* \"#utility.yul\":4282:4321   */\n      tag_172\n      jump\t// in\n    tag_171:\n        /* \"#utility.yul\":4337:4408   */\n      tag_173\n        /* \"#utility.yul\":4401:4407   */\n      dup2\n        /* \"#utility.yul\":4396:4399   */\n      dup6\n        /* \"#utility.yul\":4337:4408   */\n      tag_174\n      jump\t// in\n    tag_173:\n        /* \"#utility.yul\":4330:4408   */\n      swap4\n      pop\n        /* \"#utility.yul\":4417:4469   */\n      tag_175\n        /* \"#utility.yul\":4462:4468   */\n      dup2\n        /* \"#utility.yul\":4457:4460   */\n      dup6\n        /* \"#utility.yul\":4450:4454   */\n      0x20\n        /* \"#utility.yul\":4443:4448   */\n      dup7\n        /* \"#utility.yul\":4439:4455   */\n      add\n        /* \"#utility.yul\":4417:4469   */\n      tag_168\n      jump\t// in\n    tag_175:\n        /* \"#utility.yul\":4494:4523   */\n      tag_176\n        /* \"#utility.yul\":4516:4522   */\n      dup2\n        /* \"#utility.yul\":4494:4523   */\n      tag_177\n      jump\t// in\n    tag_176:\n        /* \"#utility.yul\":4489:4492   */\n      dup5\n        /* \"#utility.yul\":4485:4524   */\n      add\n        /* \"#utility.yul\":4478:4524   */\n      swap2\n      pop\n        /* \"#utility.yul\":4258:4530   */\n      pop\n        /* \"#utility.yul\":4166:4530   */\n      swap3\n      swap2\n      pop\n      pop\n      jump\t// out\n        /* \"#utility.yul\":4536:4913   */\n    tag_178:\n        /* \"#utility.yul\":4642:4645   */\n      0x00\n        /* \"#utility.yul\":4670:4709   */\n      tag_180\n        /* \"#utility.yul\":4703:4708   */\n      dup3\n        /* \"#utility.yul\":4670:4709   */\n      tag_172\n      jump\t// in\n    tag_180:\n        /* \"#utility.yul\":4725:4814   */\n      tag_181\n        /* \"#utility.yul\":4807:4813   */\n      dup2\n        /* \"#utility.yul\":4802:4805   */\n      dup6\n        /* \"#utility.yul\":4725:4814   */\n      tag_182\n      jump\t// in\n    tag_181:\n        /* \"#utility.yul\":4718:4814   */\n      swap4\n      pop\n        /* \"#utility.yul\":4823:4875   */\n      tag_183\n        /* \"#utility.yul\":4868:4874   */\n      dup2\n        /* \"#utility.yul\":4863:4866   */\n      dup6\n        /* \"#utility.yul\":4856:4860   */\n      0x20\n        /* \"#utility.yul\":4849:4854   */\n      dup7\n        /* \"#utility.yul\":4845:4861   */\n      add\n        /* \"#utility.yul\":4823:4875   */\n      tag_168\n      jump\t// in\n    tag_183:\n        /* \"#utility.yul\":4900:4906   */\n      dup1\n        /* \"#utility.yul\":4895:4898   */\n      dup5\n        /* \"#utility.yul\":4891:4907   */\n      add\n        /* \"#utility.yul\":4884:4907   */\n      swap2\n      pop\n        /* \"#utility.yul\":4646:4913   */\n      pop\n        /* \"#utility.yul\":4536:4913   */\n      swap3\n      swap2\n      pop\n      pop\n      jump\t// out\n        /* \"#utility.yul\":4919:5285   */\n    tag_184:\n        /* \"#utility.yul\":5061:5064   */\n      0x00\n        /* \"#utility.yul\":5082:5149   */\n      tag_186\n        /* \"#utility.yul\":5146:5148   */\n      0x22\n        /* \"#utility.yul\":5141:5144   */\n      dup4\n        /* \"#utility.yul\":5082:5149   */\n      tag_174\n      jump\t// in\n    tag_186:\n        /* \"#utility.yul\":5075:5149   */\n      swap2\n      pop\n        /* \"#utility.yul\":5158:5251   */\n      tag_187\n        /* \"#utility.yul\":5247:5250   */\n      dup3\n        /* \"#utility.yul\":5158:5251   */\n      tag_188\n      jump\t// in\n    tag_187:\n        /* \"#utility.yul\":5276:5278   */\n      0x40\n        /* \"#utility.yul\":5271:5274   */\n      dup3\n        /* \"#utility.yul\":5267:5279   */\n      add\n        /* \"#utility.yul\":5260:5279   */\n      swap1\n      pop\n        /* \"#utility.yul\":4919:5285   */\n      swap2\n      swap1\n      pop\n      jump\t// out\n        /* \"#utility.yul\":5291:5409   */\n    tag_189:\n        /* \"#utility.yul\":5378:5402   */\n      tag_191\n        /* \"#utility.yul\":5396:5401   */\n      dup2\n        /* \"#utility.yul\":5378:5402   */\n      tag_192\n      jump\t// in\n    tag_191:\n        /* \"#utility.yul\":5373:5376   */\n      dup3\n        /* \"#utility.yul\":5366:5403   */\n      mstore\n        /* \"#utility.yul\":5291:5409   */\n      pop\n      pop\n      jump\t// out\n        /* \"#utility.yul\":5415:5807   */\n    tag_66:\n        /* \"#utility.yul\":5553:5556   */\n      0x00\n        /* \"#utility.yul\":5568:5641   */\n      tag_194\n        /* \"#utility.yul\":5637:5640   */\n      dup3\n        /* \"#utility.yul\":5628:5634   */\n      dup6\n        /* \"#utility.yul\":5568:5641   */\n      tag_156\n      jump\t// in\n    tag_194:\n        /* \"#utility.yul\":5666:5667   */\n      0x04\n        /* \"#utility.yul\":5661:5664   */\n      dup3\n        /* \"#utility.yul\":5657:5668   */\n      add\n        /* \"#utility.yul\":5650:5668   */\n      swap2\n      pop\n        /* \"#utility.yul\":5678:5753   */\n      tag_195\n        /* \"#utility.yul\":5749:5752   */\n      dup3\n        /* \"#utility.yul\":5740:5746   */\n      dup5\n        /* \"#utility.yul\":5678:5753   */\n      tag_147\n      jump\t// in\n    tag_195:\n        /* \"#utility.yul\":5778:5780   */\n      0x20\n        /* \"#utility.yul\":5773:5776   */\n      dup3\n        /* \"#utility.yul\":5769:5781   */\n      add\n        /* \"#utility.yul\":5762:5781   */\n      swap2\n      pop\n        /* \"#utility.yul\":5798:5801   */\n      dup2\n        /* \"#utility.yul\":5791:5801   */\n      swap1\n      pop\n        /* \"#utility.yul\":5415:5807   */\n      swap4\n      swap3\n      pop\n      pop\n      pop\n      jump\t// out\n        /* \"#utility.yul\":5813:6084   */\n    tag_68:\n        /* \"#utility.yul\":5943:5946   */\n      0x00\n        /* \"#utility.yul\":5965:6058   */\n      tag_197\n        /* \"#utility.yul\":6054:6057   */\n      dup3\n        /* \"#utility.yul\":6045:6051   */\n      dup5\n        /* \"#utility.yul\":5965:6058   */\n      tag_161\n      jump\t// in\n    tag_197:\n        /* \"#utility.yul\":5958:6058   */\n      swap2\n      pop\n        /* \"#utility.yul\":6075:6078   */\n      dup2\n        /* \"#utility.yul\":6068:6078   */\n      swap1\n      pop\n        /* \"#utility.yul\":5813:6084   */\n      swap3\n      swap2\n      pop\n      pop\n      jump\t// out\n        /* \"#utility.yul\":6090:6365   */\n    tag_38:\n        /* \"#utility.yul\":6222:6225   */\n      0x00\n        /* \"#utility.yul\":6244:6339   */\n      tag_199\n        /* \"#utility.yul\":6335:6338   */\n      dup3\n        /* \"#utility.yul\":6326:6332   */\n      dup5\n        /* \"#utility.yul\":6244:6339   */\n      tag_178\n      jump\t// in\n    tag_199:\n        /* \"#utility.yul\":6237:6339   */\n      swap2\n      pop\n        /* \"#utility.yul\":6356:6359   */\n      dup2\n        /* \"#utility.yul\":6349:6359   */\n      swap1\n      pop\n        /* \"#utility.yul\":6090:6365   */\n      swap3\n      swap2\n      pop\n      pop\n      jump\t// out\n        /* \"#utility.yul\":6371:6593   */\n    tag_11:\n        /* \"#utility.yul\":6464:6468   */\n      0x00\n        /* \"#utility.yul\":6502:6504   */\n      0x20\n        /* \"#utility.yul\":6491:6500   */\n      dup3\n        /* \"#utility.yul\":6487:6505   */\n      add\n        /* \"#utility.yul\":6479:6505   */\n      swap1\n      pop\n        /* \"#utility.yul\":6515:6586   */\n      tag_201\n        /* \"#utility.yul\":6583:6584   */\n      0x00\n        /* \"#utility.yul\":6572:6581   */\n      dup4\n        /* \"#utility.yul\":6568:6585   */\n      add\n        /* \"#utility.yul\":6559:6565   */\n      dup5\n        /* \"#utility.yul\":6515:6586   */\n      tag_135\n      jump\t// in\n    tag_201:\n        /* \"#utility.yul\":6371:6593   */\n      swap3\n      swap2\n      pop\n      pop\n      jump\t// out\n        /* \"#utility.yul\":6599:6809   */\n    tag_17:\n        /* \"#utility.yul\":6686:6690   */\n      0x00\n        /* \"#utility.yul\":6724:6726   */\n      0x20\n        /* \"#utility.yul\":6713:6722   */\n      dup3\n        /* \"#utility.yul\":6709:6727   */\n      add\n        /* \"#utility.yul\":6701:6727   */\n      swap1\n      pop\n        /* \"#utility.yul\":6737:6802   */\n      tag_203\n        /* \"#utility.yul\":6799:6800   */\n      0x00\n        /* \"#utility.yul\":6788:6797   */\n      dup4\n        /* \"#utility.yul\":6784:6801   */\n      add\n        /* \"#utility.yul\":6775:6781   */\n      dup5\n        /* \"#utility.yul\":6737:6802   */\n      tag_139\n      jump\t// in\n    tag_203:\n        /* \"#utility.yul\":6599:6809   */\n      swap3\n      swap2\n      pop\n      pop\n      jump\t// out\n        /* \"#utility.yul\":6815:7128   */\n    tag_21:\n        /* \"#utility.yul\":6928:6932   */\n      0x00\n        /* \"#utility.yul\":6966:6968   */\n      0x20\n        /* \"#utility.yul\":6955:6964   */\n      dup3\n        /* \"#utility.yul\":6951:6969   */\n      add\n        /* \"#utility.yul\":6943:6969   */\n      swap1\n      pop\n        /* \"#utility.yul\":7015:7024   */\n      dup2\n        /* \"#utility.yul\":7009:7013   */\n      dup2\n        /* \"#utility.yul\":7005:7025   */\n      sub\n        /* \"#utility.yul\":7001:7002   */\n      0x00\n        /* \"#utility.yul\":6990:6999   */\n      dup4\n        /* \"#utility.yul\":6986:7003   */\n      add\n        /* \"#utility.yul\":6979:7026   */\n      mstore\n        /* \"#utility.yul\":7043:7121   */\n      tag_205\n        /* \"#utility.yul\":7116:7120   */\n      dup2\n        /* \"#utility.yul\":7107:7113   */\n      dup5\n        /* \"#utility.yul\":7043:7121   */\n      tag_169\n      jump\t// in\n    tag_205:\n        /* \"#utility.yul\":7035:7121   */\n      swap1\n      pop\n        /* \"#utility.yul\":6815:7128   */\n      swap3\n      swap2\n      pop\n      pop\n      jump\t// out\n        /* \"#utility.yul\":7134:7553   */\n    tag_55:\n        /* \"#utility.yul\":7300:7304   */\n      0x00\n        /* \"#utility.yul\":7338:7340   */\n      0x20\n        /* \"#utility.yul\":7327:7336   */\n      dup3\n        /* \"#utility.yul\":7323:7341   */\n      add\n        /* \"#utility.yul\":7315:7341   */\n      swap1\n      pop\n        /* \"#utility.yul\":7387:7396   */\n      dup2\n        /* \"#utility.yul\":7381:7385   */\n      dup2\n        /* \"#utility.yul\":7377:7397   */\n      sub\n        /* \"#utility.yul\":7373:7374   */\n      0x00\n        /* \"#utility.yul\":7362:7371   */\n      dup4\n        /* \"#utility.yul\":7358:7375   */\n      add\n        /* \"#utility.yul\":7351:7398   */\n      mstore\n        /* \"#utility.yul\":7415:7546   */\n      tag_207\n        /* \"#utility.yul\":7541:7545   */\n      dup2\n        /* \"#utility.yul\":7415:7546   */\n      tag_184\n      jump\t// in\n    tag_207:\n        /* \"#utility.yul\":7407:7546   */\n      swap1\n      pop\n        /* \"#utility.yul\":7134:7553   */\n      swap2\n      swap1\n      pop\n      jump\t// out\n        /* \"#utility.yul\":7559:8421   */\n    tag_27:\n        /* \"#utility.yul\":7810:7814   */\n      0x00\n        /* \"#utility.yul\":7848:7851   */\n      0xc0\n        /* \"#utility.yul\":7837:7846   */\n      dup3\n        /* \"#utility.yul\":7833:7852   */\n      add\n        /* \"#utility.yul\":7825:7852   */\n      swap1\n      pop\n        /* \"#utility.yul\":7862:7933   */\n      tag_209\n        /* \"#utility.yul\":7930:7931   */\n      0x00\n        /* \"#utility.yul\":7919:7928   */\n      dup4\n        /* \"#utility.yul\":7915:7932   */\n      add\n        /* \"#utility.yul\":7906:7912   */\n      dup10\n        /* \"#utility.yul\":7862:7933   */\n      tag_189\n      jump\t// in\n    tag_209:\n        /* \"#utility.yul\":7943:8015   */\n      tag_210\n        /* \"#utility.yul\":8011:8013   */\n      0x20\n        /* \"#utility.yul\":8000:8009   */\n      dup4\n        /* \"#utility.yul\":7996:8014   */\n      add\n        /* \"#utility.yul\":7987:7993   */\n      dup9\n        /* \"#utility.yul\":7943:8015   */\n      tag_135\n      jump\t// in\n    tag_210:\n        /* \"#utility.yul\":8062:8071   */\n      dup2\n        /* \"#utility.yul\":8056:8060   */\n      dup2\n        /* \"#utility.yul\":8052:8072   */\n      sub\n        /* \"#utility.yul\":8047:8049   */\n      0x40\n        /* \"#utility.yul\":8036:8045   */\n      dup4\n        /* \"#utility.yul\":8032:8050   */\n      add\n        /* \"#utility.yul\":8025:8073   */\n      mstore\n        /* \"#utility.yul\":8090:8168   */\n      tag_211\n        /* \"#utility.yul\":8163:8167   */\n      dup2\n        /* \"#utility.yul\":8154:8160   */\n      dup8\n        /* \"#utility.yul\":8090:8168   */\n      tag_169\n      jump\t// in\n    tag_211:\n        /* \"#utility.yul\":8082:8168   */\n      swap1\n      pop\n        /* \"#utility.yul\":8178:8248   */\n      tag_212\n        /* \"#utility.yul\":8244:8246   */\n      0x60\n        /* \"#utility.yul\":8233:8242   */\n      dup4\n        /* \"#utility.yul\":8229:8247   */\n      add\n        /* \"#utility.yul\":8220:8226   */\n      dup7\n        /* \"#utility.yul\":8178:8248   */\n      tag_152\n      jump\t// in\n    tag_212:\n        /* \"#utility.yul\":8258:8331   */\n      tag_213\n        /* \"#utility.yul\":8326:8329   */\n      0x80\n        /* \"#utility.yul\":8315:8324   */\n      dup4\n        /* \"#utility.yul\":8311:8330   */\n      add\n        /* \"#utility.yul\":8302:8308   */\n      dup6\n        /* \"#utility.yul\":8258:8331   */\n      tag_135\n      jump\t// in\n    tag_213:\n        /* \"#utility.yul\":8341:8414   */\n      tag_214\n        /* \"#utility.yul\":8409:8412   */\n      0xa0\n        /* \"#utility.yul\":8398:8407   */\n      dup4\n        /* \"#utility.yul\":8394:8413   */\n      add\n        /* \"#utility.yul\":8385:8391   */\n      dup5\n        /* \"#utility.yul\":8341:8414   */\n      tag_143\n      jump\t// in\n    tag_214:\n        /* \"#utility.yul\":7559:8421   */\n      swap8\n      swap7\n      pop\n      pop\n      pop\n      pop\n      pop\n      pop\n      pop\n      jump\t// out\n        /* \"#utility.yul\":8427:8556   */\n    tag_88:\n        /* \"#utility.yul\":8461:8467   */\n      0x00\n        /* \"#utility.yul\":8488:8508   */\n      tag_216\n      tag_217\n      jump\t// in\n    tag_216:\n        /* \"#utility.yul\":8478:8508   */\n      swap1\n      pop\n        /* \"#utility.yul\":8517:8550   */\n      tag_218\n        /* \"#utility.yul\":8545:8549   */\n      dup3\n        /* \"#utility.yul\":8537:8543   */\n      dup3\n        /* \"#utility.yul\":8517:8550   */\n      tag_219\n      jump\t// in\n    tag_218:\n        /* \"#utility.yul\":8427:8556   */\n      swap2\n      swap1\n      pop\n      jump\t// out\n        /* \"#utility.yul\":8562:8637   */\n    tag_217:\n        /* \"#utility.yul\":8595:8601   */\n      0x00\n        /* \"#utility.yul\":8628:8630   */\n      0x40\n        /* \"#utility.yul\":8622:8631   */\n      mload\n        /* \"#utility.yul\":8612:8631   */\n      swap1\n      pop\n        /* \"#utility.yul\":8562:8637   */\n      swap1\n      jump\t// out\n        /* \"#utility.yul\":8643:8951   */\n    tag_87:\n        /* \"#utility.yul\":8705:8709   */\n      0x00\n        /* \"#utility.yul\":8795:8813   */\n      0xffffffffffffffff\n        /* \"#utility.yul\":8787:8793   */\n      dup3\n        /* \"#utility.yul\":8784:8814   */\n      gt\n        /* \"#utility.yul\":8781:8837   */\n      iszero\n      tag_222\n      jumpi\n        /* \"#utility.yul\":8817:8835   */\n      tag_223\n      tag_224\n      jump\t// in\n    tag_223:\n        /* \"#utility.yul\":8781:8837   */\n    tag_222:\n        /* \"#utility.yul\":8855:8884   */\n      tag_225\n        /* \"#utility.yul\":8877:8883   */\n      dup3\n        /* \"#utility.yul\":8855:8884   */\n      tag_177\n      jump\t// in\n    tag_225:\n        /* \"#utility.yul\":8847:8884   */\n      swap1\n      pop\n        /* \"#utility.yul\":8939:8943   */\n      0x20\n        /* \"#utility.yul\":8933:8937   */\n      dup2\n        /* \"#utility.yul\":8929:8944   */\n      add\n        /* \"#utility.yul\":8921:8944   */\n      swap1\n      pop\n        /* \"#utility.yul\":8643:8951   */\n      swap2\n      swap1\n      pop\n      jump\t// out\n        /* \"#utility.yul\":8957:9055   */\n    tag_164:\n        /* \"#utility.yul\":9008:9014   */\n      0x00\n        /* \"#utility.yul\":9042:9047   */\n      dup2\n        /* \"#utility.yul\":9036:9048   */\n      mload\n        /* \"#utility.yul\":9026:9048   */\n      swap1\n      pop\n        /* \"#utility.yul\":8957:9055   */\n      swap2\n      swap1\n      pop\n      jump\t// out\n        /* \"#utility.yul\":9061:9160   */\n    tag_172:\n        /* \"#utility.yul\":9113:9119   */\n      0x00\n        /* \"#utility.yul\":9147:9152   */\n      dup2\n        /* \"#utility.yul\":9141:9153   */\n      mload\n        /* \"#utility.yul\":9131:9153   */\n      swap1\n      pop\n        /* \"#utility.yul\":9061:9160   */\n      swap2\n      swap1\n      pop\n      jump\t// out\n        /* \"#utility.yul\":9166:9313   */\n    tag_166:\n        /* \"#utility.yul\":9267:9278   */\n      0x00\n        /* \"#utility.yul\":9304:9307   */\n      dup2\n        /* \"#utility.yul\":9289:9307   */\n      swap1\n      pop\n        /* \"#utility.yul\":9166:9313   */\n      swap3\n      swap2\n      pop\n      pop\n      jump\t// out\n        /* \"#utility.yul\":9319:9488   */\n    tag_174:\n        /* \"#utility.yul\":9403:9414   */\n      0x00\n        /* \"#utility.yul\":9437:9443   */\n      dup3\n        /* \"#utility.yul\":9432:9435   */\n      dup3\n        /* \"#utility.yul\":9425:9444   */\n      mstore\n        /* \"#utility.yul\":9477:9481   */\n      0x20\n        /* \"#utility.yul\":9472:9475   */\n      dup3\n        /* \"#utility.yul\":9468:9482   */\n      add\n        /* \"#utility.yul\":9453:9482   */\n      swap1\n      pop\n        /* \"#utility.yul\":9319:9488   */\n      swap3\n      swap2\n      pop\n      pop\n      jump\t// out\n        /* \"#utility.yul\":9494:9642   */\n    tag_182:\n        /* \"#utility.yul\":9596:9607   */\n      0x00\n        /* \"#utility.yul\":9633:9636   */\n      dup2\n        /* \"#utility.yul\":9618:9636   */\n      swap1\n      pop\n        /* \"#utility.yul\":9494:9642   */\n      swap3\n      swap2\n      pop\n      pop\n      jump\t// out\n        /* \"#utility.yul\":9648:9744   */\n    tag_138:\n        /* \"#utility.yul\":9685:9692   */\n      0x00\n        /* \"#utility.yul\":9714:9738   */\n      tag_232\n        /* \"#utility.yul\":9732:9737   */\n      dup3\n        /* \"#utility.yul\":9714:9738   */\n      tag_233\n      jump\t// in\n    tag_232:\n        /* \"#utility.yul\":9703:9738   */\n      swap1\n      pop\n        /* \"#utility.yul\":9648:9744   */\n      swap2\n      swap1\n      pop\n      jump\t// out\n        /* \"#utility.yul\":9750:9840   */\n    tag_142:\n        /* \"#utility.yul\":9784:9791   */\n      0x00\n        /* \"#utility.yul\":9827:9832   */\n      dup2\n        /* \"#utility.yul\":9820:9833   */\n      iszero\n        /* \"#utility.yul\":9813:9834   */\n      iszero\n        /* \"#utility.yul\":9802:9834   */\n      swap1\n      pop\n        /* \"#utility.yul\":9750:9840   */\n      swap2\n      swap1\n      pop\n      jump\t// out\n        /* \"#utility.yul\":9846:9923   */\n    tag_146:\n        /* \"#utility.yul\":9883:9890   */\n      0x00\n        /* \"#utility.yul\":9912:9917   */\n      dup2\n        /* \"#utility.yul\":9901:9917   */\n      swap1\n      pop\n        /* \"#utility.yul\":9846:9923   */\n      swap2\n      swap1\n      pop\n      jump\t// out\n        /* \"#utility.yul\":9929:10078   */\n    tag_155:\n        /* \"#utility.yul\":9965:9972   */\n      0x00\n        /* \"#utility.yul\":10005:10071   */\n      0xffffffff00000000000000000000000000000000000000000000000000000000\n        /* \"#utility.yul\":9998:10003   */\n      dup3\n        /* \"#utility.yul\":9994:10072   */\n      and\n        /* \"#utility.yul\":9983:10072   */\n      swap1\n      pop\n        /* \"#utility.yul\":9929:10078   */\n      swap2\n      swap1\n      pop\n      jump\t// out\n        /* \"#utility.yul\":10084:10210   */\n    tag_233:\n        /* \"#utility.yul\":10121:10128   */\n      0x00\n        /* \"#utility.yul\":10161:10203   */\n      0xffffffffffffffffffffffffffffffffffffffff\n        /* \"#utility.yul\":10154:10159   */\n      dup3\n        /* \"#utility.yul\":10150:10204   */\n      and\n        /* \"#utility.yul\":10139:10204   */\n      swap1\n      pop\n        /* \"#utility.yul\":10084:10210   */\n      swap2\n      swap1\n      pop\n      jump\t// out\n        /* \"#utility.yul\":10216:10293   */\n    tag_192:\n        /* \"#utility.yul\":10253:10260   */\n      0x00\n        /* \"#utility.yul\":10282:10287   */\n      dup2\n        /* \"#utility.yul\":10271:10287   */\n      swap1\n      pop\n        /* \"#utility.yul\":10216:10293   */\n      swap2\n      swap1\n      pop\n      jump\t// out\n        /* \"#utility.yul\":10299:10453   */\n    tag_93:\n        /* \"#utility.yul\":10383:10389   */\n      dup3\n        /* \"#utility.yul\":10378:10381   */\n      dup2\n        /* \"#utility.yul\":10373:10376   */\n      dup4\n        /* \"#utility.yul\":10360:10390   */\n      calldatacopy\n        /* \"#utility.yul\":10445:10446   */\n      0x00\n        /* \"#utility.yul\":10436:10442   */\n      dup4\n        /* \"#utility.yul\":10431:10434   */\n      dup4\n        /* \"#utility.yul\":10427:10443   */\n      add\n        /* \"#utility.yul\":10420:10447   */\n      mstore\n        /* \"#utility.yul\":10299:10453   */\n      pop\n      pop\n      pop\n      jump\t// out\n        /* \"#utility.yul\":10459:10766   */\n    tag_168:\n        /* \"#utility.yul\":10527:10528   */\n      0x00\n        /* \"#utility.yul\":10537:10650   */\n    tag_241:\n        /* \"#utility.yul\":10551:10557   */\n      dup4\n        /* \"#utility.yul\":10548:10549   */\n      dup2\n        /* \"#utility.yul\":10545:10558   */\n      lt\n        /* \"#utility.yul\":10537:10650   */\n      iszero\n      tag_243\n      jumpi\n        /* \"#utility.yul\":10636:10637   */\n      dup1\n        /* \"#utility.yul\":10631:10634   */\n      dup3\n        /* \"#utility.yul\":10627:10638   */\n      add\n        /* \"#utility.yul\":10621:10639   */\n      mload\n        /* \"#utility.yul\":10617:10618   */\n      dup2\n        /* \"#utility.yul\":10612:10615   */\n      dup5\n        /* \"#utility.yul\":10608:10619   */\n      add\n        /* \"#utility.yul\":10601:10640   */\n      mstore\n        /* \"#utility.yul\":10573:10575   */\n      0x20\n        /* \"#utility.yul\":10570:10571   */\n      dup2\n        /* \"#utility.yul\":10566:10576   */\n      add\n        /* \"#utility.yul\":10561:10576   */\n      swap1\n      pop\n        /* \"#utility.yul\":10537:10650   */\n      jump(tag_241)\n    tag_243:\n        /* \"#utility.yul\":10668:10674   */\n      dup4\n        /* \"#utility.yul\":10665:10666   */\n      dup2\n        /* \"#utility.yul\":10662:10675   */\n      gt\n        /* \"#utility.yul\":10659:10760   */\n      iszero\n      tag_244\n      jumpi\n        /* \"#utility.yul\":10748:10749   */\n      0x00\n        /* \"#utility.yul\":10739:10745   */\n      dup5\n        /* \"#utility.yul\":10734:10737   */\n      dup5\n        /* \"#utility.yul\":10730:10746   */\n      add\n        /* \"#utility.yul\":10723:10750   */\n      mstore\n        /* \"#utility.yul\":10659:10760   */\n    tag_244:\n        /* \"#utility.yul\":10508:10766   */\n      pop\n        /* \"#utility.yul\":10459:10766   */\n      pop\n      pop\n      pop\n      jump\t// out\n        /* \"#utility.yul\":10772:11092   */\n    tag_40:\n        /* \"#utility.yul\":10816:10822   */\n      0x00\n        /* \"#utility.yul\":10853:10854   */\n      0x02\n        /* \"#utility.yul\":10847:10851   */\n      dup3\n        /* \"#utility.yul\":10843:10855   */\n      div\n        /* \"#utility.yul\":10833:10855   */\n      swap1\n      pop\n        /* \"#utility.yul\":10900:10901   */\n      0x01\n        /* \"#utility.yul\":10894:10898   */\n      dup3\n        /* \"#utility.yul\":10890:10902   */\n      and\n        /* \"#utility.yul\":10921:10939   */\n      dup1\n        /* \"#utility.yul\":10911:10992   */\n      tag_246\n      jumpi\n        /* \"#utility.yul\":10977:10981   */\n      0x7f\n        /* \"#utility.yul\":10969:10975   */\n      dup3\n        /* \"#utility.yul\":10965:10982   */\n      and\n        /* \"#utility.yul\":10955:10982   */\n      swap2\n      pop\n        /* \"#utility.yul\":10911:10992   */\n    tag_246:\n        /* \"#utility.yul\":11039:11041   */\n      0x20\n        /* \"#utility.yul\":11031:11037   */\n      dup3\n        /* \"#utility.yul\":11028:11042   */\n      lt\n        /* \"#utility.yul\":11008:11026   */\n      dup2\n        /* \"#utility.yul\":11005:11043   */\n      eq\n        /* \"#utility.yul\":11002:11086   */\n      iszero\n      tag_247\n      jumpi\n        /* \"#utility.yul\":11058:11076   */\n      tag_248\n      tag_249\n      jump\t// in\n    tag_248:\n        /* \"#utility.yul\":11002:11086   */\n    tag_247:\n        /* \"#utility.yul\":10823:11092   */\n      pop\n        /* \"#utility.yul\":10772:11092   */\n      swap2\n      swap1\n      pop\n      jump\t// out\n        /* \"#utility.yul\":11098:11379   */\n    tag_219:\n        /* \"#utility.yul\":11181:11208   */\n      tag_251\n        /* \"#utility.yul\":11203:11207   */\n      dup3\n        /* \"#utility.yul\":11181:11208   */\n      tag_177\n      jump\t// in\n    tag_251:\n        /* \"#utility.yul\":11173:11179   */\n      dup2\n        /* \"#utility.yul\":11169:11209   */\n      add\n        /* \"#utility.yul\":11311:11317   */\n      dup2\n        /* \"#utility.yul\":11299:11309   */\n      dup2\n        /* \"#utility.yul\":11296:11318   */\n      lt\n        /* \"#utility.yul\":11275:11293   */\n      0xffffffffffffffff\n        /* \"#utility.yul\":11263:11273   */\n      dup3\n        /* \"#utility.yul\":11260:11294   */\n      gt\n        /* \"#utility.yul\":11257:11319   */\n      or\n        /* \"#utility.yul\":11254:11342   */\n      iszero\n      tag_252\n      jumpi\n        /* \"#utility.yul\":11322:11340   */\n      tag_253\n      tag_224\n      jump\t// in\n    tag_253:\n        /* \"#utility.yul\":11254:11342   */\n    tag_252:\n        /* \"#utility.yul\":11362:11372   */\n      dup1\n        /* \"#utility.yul\":11358:11360   */\n      0x40\n        /* \"#utility.yul\":11351:11373   */\n      mstore\n        /* \"#utility.yul\":11141:11379   */\n      pop\n        /* \"#utility.yul\":11098:11379   */\n      pop\n      pop\n      jump\t// out\n        /* \"#utility.yul\":11385:11464   */\n    tag_151:\n        /* \"#utility.yul\":11424:11431   */\n      0x00\n        /* \"#utility.yul\":11453:11458   */\n      dup2\n        /* \"#utility.yul\":11442:11458   */\n      swap1\n      pop\n        /* \"#utility.yul\":11385:11464   */\n      swap2\n      swap1\n      pop\n      jump\t// out\n        /* \"#utility.yul\":11470:11548   */\n    tag_160:\n        /* \"#utility.yul\":11508:11515   */\n      0x00\n        /* \"#utility.yul\":11537:11542   */\n      dup2\n        /* \"#utility.yul\":11526:11542   */\n      swap1\n      pop\n        /* \"#utility.yul\":11470:11548   */\n      swap2\n      swap1\n      pop\n      jump\t// out\n        /* \"#utility.yul\":11554:11734   */\n    tag_249:\n        /* \"#utility.yul\":11602:11679   */\n      0x4e487b7100000000000000000000000000000000000000000000000000000000\n        /* \"#utility.yul\":11599:11600   */\n      0x00\n        /* \"#utility.yul\":11592:11680   */\n      mstore\n        /* \"#utility.yul\":11699:11703   */\n      0x22\n        /* \"#utility.yul\":11696:11697   */\n      0x04\n        /* \"#utility.yul\":11689:11704   */\n      mstore\n        /* \"#utility.yul\":11723:11727   */\n      0x24\n        /* \"#utility.yul\":11720:11721   */\n      0x00\n        /* \"#utility.yul\":11713:11728   */\n      revert\n        /* \"#utility.yul\":11740:11920   */\n    tag_58:\n        /* \"#utility.yul\":11788:11865   */\n      0x4e487b7100000000000000000000000000000000000000000000000000000000\n        /* \"#utility.yul\":11785:11786   */\n      0x00\n        /* \"#utility.yul\":11778:11866   */\n      mstore\n        /* \"#utility.yul\":11885:11889   */\n      0x32\n        /* \"#utility.yul\":11882:11883   */\n      0x04\n        /* \"#utility.yul\":11875:11890   */\n      mstore\n        /* \"#utility.yul\":11909:11913   */\n      0x24\n        /* \"#utility.yul\":11906:11907   */\n      0x00\n        /* \"#utility.yul\":11899:11914   */\n      revert\n        /* \"#utility.yul\":11926:12106   */\n    tag_224:\n        /* \"#utility.yul\":11974:12051   */\n      0x4e487b7100000000000000000000000000000000000000000000000000000000\n        /* \"#utility.yul\":11971:11972   */\n      0x00\n        /* \"#utility.yul\":11964:12052   */\n      mstore\n        /* \"#utility.yul\":12071:12075   */\n      0x41\n        /* \"#utility.yul\":12068:12069   */\n      0x04\n        /* \"#utility.yul\":12061:12076   */\n      mstore\n        /* \"#utility.yul\":12095:12099   */\n      0x24\n        /* \"#utility.yul\":12092:12093   */\n      0x00\n        /* \"#utility.yul\":12085:12100   */\n      revert\n        /* \"#utility.yul\":12112:12229   */\n    tag_110:\n        /* \"#utility.yul\":12221:12222   */\n      0x00\n        /* \"#utility.yul\":12218:12219   */\n      dup1\n        /* \"#utility.yul\":12211:12223   */\n      revert\n        /* \"#utility.yul\":12235:12352   */\n    tag_91:\n        /* \"#utility.yul\":12344:12345   */\n      0x00\n        /* \"#utility.yul\":12341:12342   */\n      dup1\n        /* \"#utility.yul\":12334:12346   */\n      revert\n        /* \"#utility.yul\":12358:12475   */\n    tag_123:\n        /* \"#utility.yul\":12467:12468   */\n      0x00\n        /* \"#utility.yul\":12464:12465   */\n      dup1\n        /* \"#utility.yul\":12457:12469   */\n      revert\n        /* \"#utility.yul\":12481:12598   */\n    tag_119:\n        /* \"#utility.yul\":12590:12591   */\n      0x00\n        /* \"#utility.yul\":12587:12588   */\n      dup1\n        /* \"#utility.yul\":12580:12592   */\n      revert\n        /* \"#utility.yul\":12604:12706   */\n    tag_177:\n        /* \"#utility.yul\":12645:12651   */\n      0x00\n        /* \"#utility.yul\":12696:12698   */\n      0x1f\n        /* \"#utility.yul\":12692:12699   */\n      not\n        /* \"#utility.yul\":12687:12689   */\n      0x1f\n        /* \"#utility.yul\":12680:12685   */\n      dup4\n        /* \"#utility.yul\":12676:12690   */\n      add\n        /* \"#utility.yul\":12672:12700   */\n      and\n        /* \"#utility.yul\":12662:12700   */\n      swap1\n      pop\n        /* \"#utility.yul\":12604:12706   */\n      swap2\n      swap1\n      pop\n      jump\t// out\n        /* \"#utility.yul\":12712:12933   */\n    tag_188:\n        /* \"#utility.yul\":12852:12886   */\n      0x4f7261636c653a205065726d697373696f6e206e656564656420666f72206e6f\n        /* \"#utility.yul\":12848:12849   */\n      0x00\n        /* \"#utility.yul\":12840:12846   */\n      dup3\n        /* \"#utility.yul\":12836:12850   */\n      add\n        /* \"#utility.yul\":12829:12887   */\n      mstore\n        /* \"#utility.yul\":12921:12925   */\n      0x6465000000000000000000000000000000000000000000000000000000000000\n        /* \"#utility.yul\":12916:12918   */\n      0x20\n        /* \"#utility.yul\":12908:12914   */\n      dup3\n        /* \"#utility.yul\":12904:12919   */\n      add\n        /* \"#utility.yul\":12897:12926   */\n      mstore\n        /* \"#utility.yul\":12712:12933   */\n      pop\n      jump\t// out\n        /* \"#utility.yul\":12939:13061   */\n    tag_97:\n        /* \"#utility.yul\":13012:13036   */\n      tag_266\n        /* \"#utility.yul\":13030:13035   */\n      dup2\n        /* \"#utility.yul\":13012:13036   */\n      tag_138\n      jump\t// in\n    tag_266:\n        /* \"#utility.yul\":13005:13010   */\n      dup2\n        /* \"#utility.yul\":13002:13037   */\n      eq\n        /* \"#utility.yul\":12992:13055   */\n      tag_267\n      jumpi\n        /* \"#utility.yul\":13051:13052   */\n      0x00\n        /* \"#utility.yul\":13048:13049   */\n      dup1\n        /* \"#utility.yul\":13041:13053   */\n      revert\n        /* \"#utility.yul\":12992:13055   */\n    tag_267:\n        /* \"#utility.yul\":12939:13061   */\n      pop\n      jump\t// out\n        /* \"#utility.yul\":13067:13189   */\n    tag_101:\n        /* \"#utility.yul\":13140:13164   */\n      tag_269\n        /* \"#utility.yul\":13158:13163   */\n      dup2\n        /* \"#utility.yul\":13140:13164   */\n      tag_146\n      jump\t// in\n    tag_269:\n        /* \"#utility.yul\":13133:13138   */\n      dup2\n        /* \"#utility.yul\":13130:13165   */\n      eq\n        /* \"#utility.yul\":13120:13183   */\n      tag_270\n      jumpi\n        /* \"#utility.yul\":13179:13180   */\n      0x00\n        /* \"#utility.yul\":13176:13177   */\n      dup1\n        /* \"#utility.yul\":13169:13181   */\n      revert\n        /* \"#utility.yul\":13120:13183   */\n    tag_270:\n        /* \"#utility.yul\":13067:13189   */\n      pop\n      jump\t// out\n        /* \"#utility.yul\":13195:13315   */\n    tag_105:\n        /* \"#utility.yul\":13267:13290   */\n      tag_272\n        /* \"#utility.yul\":13284:13289   */\n      dup2\n        /* \"#utility.yul\":13267:13290   */\n      tag_155\n      jump\t// in\n    tag_272:\n        /* \"#utility.yul\":13260:13265   */\n      dup2\n        /* \"#utility.yul\":13257:13291   */\n      eq\n        /* \"#utility.yul\":13247:13309   */\n      tag_273\n      jumpi\n        /* \"#utility.yul\":13305:13306   */\n      0x00\n        /* \"#utility.yul\":13302:13303   */\n      dup1\n        /* \"#utility.yul\":13295:13307   */\n      revert\n        /* \"#utility.yul\":13247:13309   */\n    tag_273:\n        /* \"#utility.yul\":13195:13315   */\n      pop\n      jump\t// out\n        /* \"#utility.yul\":13321:13443   */\n    tag_115:\n        /* \"#utility.yul\":13394:13418   */\n      tag_275\n        /* \"#utility.yul\":13412:13417   */\n      dup2\n        /* \"#utility.yul\":13394:13418   */\n      tag_192\n      jump\t// in\n    tag_275:\n        /* \"#utility.yul\":13387:13392   */\n      dup2\n        /* \"#utility.yul\":13384:13419   */\n      eq\n        /* \"#utility.yul\":13374:13437   */\n      tag_276\n      jumpi\n        /* \"#utility.yul\":13433:13434   */\n      0x00\n        /* \"#utility.yul\":13430:13431   */\n      dup1\n        /* \"#utility.yul\":13423:13435   */\n      revert\n        /* \"#utility.yul\":13374:13437   */\n    tag_276:\n        /* \"#utility.yul\":13321:13443   */\n      pop\n      jump\t// out\n\n    auxdata: 0xa2646970667358221220e91853c4cb3bd5433a005cfce4b5a54456d42b20cf420f71d9125de8ee9331dd64736f6c63430008070033\n}\n",
				"bytecode": {
					"linkReferences": {},
					"object": "60806040523480156200001157600080fd5b506040516200144c3803806200144c8339818101604052810190620000379190620001dd565b816000806101000a81548173ffffffffffffffffffffffffffffffffffffffff021916908373ffffffffffffffffffffffffffffffffffffffff16021790555080600190805190602001906200008f92919062000098565b50505062000415565b828054620000a6906200030c565b90600052602060002090601f016020900481019282620000ca576000855562000116565b82601f10620000e557805160ff191683800117855562000116565b8280016001018555821562000116579182015b8281111562000115578251825591602001919060010190620000f8565b5b50905062000125919062000129565b5090565b5b80821115620001445760008160009055506001016200012a565b5090565b60006200015f62000159846200026c565b62000243565b9050828152602081018484840111156200017e576200017d620003db565b5b6200018b848285620002d6565b509392505050565b600081519050620001a481620003fb565b92915050565b600082601f830112620001c257620001c1620003d6565b5b8151620001d484826020860162000148565b91505092915050565b60008060408385031215620001f757620001f6620003e5565b5b6000620002078582860162000193565b925050602083015167ffffffffffffffff8111156200022b576200022a620003e0565b5b6200023985828601620001aa565b9150509250929050565b60006200024f62000262565b90506200025d828262000342565b919050565b6000604051905090565b600067ffffffffffffffff8211156200028a5762000289620003a7565b5b6200029582620003ea565b9050602081019050919050565b6000620002af82620002b6565b9050919050565b600073ffffffffffffffffffffffffffffffffffffffff82169050919050565b60005b83811015620002f6578082015181840152602081019050620002d9565b8381111562000306576000848401525b50505050565b600060028204905060018216806200032557607f821691505b602082108114156200033c576200033b62000378565b5b50919050565b6200034d82620003ea565b810181811067ffffffffffffffff821117156200036f576200036e620003a7565b5b80604052505050565b7f4e487b7100000000000000000000000000000000000000000000000000000000600052602260045260246000fd5b7f4e487b7100000000000000000000000000000000000000000000000000000000600052604160045260246000fd5b600080fd5b600080fd5b600080fd5b600080fd5b6000601f19601f8301169050919050565b6200040681620002a2565b81146200041257600080fd5b50565b61102780620004256000396000f3fe608060405234801561001057600080fd5b50600436106100575760003560e01c80632aa8481f1461005c5780635cd3275c1461007a5780635fb86b01146100aa57806381d12c58146100c8578063eb3377d5146100fd575b600080fd5b61006461012d565b6040516100719190610bea565b60405180910390f35b610094600480360381019061008f919061097d565b610151565b6040516100a19190610c05565b60405180910390f35b6100b261035d565b6040516100bf9190610c20565b60405180910390f35b6100e260048036038101906100dd91906109ec565b6103eb565b6040516100f496959493929190610c62565b60405180910390f35b61011760048036038101906101129190610a19565b61050c565b6040516101249190610c05565b60405180910390f35b60008054906101000a900473ffffffffffffffffffffffffffffffffffffffff1681565b600080600280549050905060006040518060c0016040528083815260200160008054906101000a900473ffffffffffffffffffffffffffffffffffffffff1673ffffffffffffffffffffffffffffffffffffffff168152602001868152602001877bffffffffffffffffffffffffffffffffffffffffffffffffffffffff191681526020018573ffffffffffffffffffffffffffffffffffffffff1681526020016000801916815250905060028190806001815401808255809150506001900390600052602060002090600502016000909190919091506000820151816000015560208201518160010160006101000a81548173ffffffffffffffffffffffffffffffffffffffff021916908373ffffffffffffffffffffffffffffffffffffffff1602179055506040820151816002019080519060200190610295929190610816565b5060608201518160030160006101000a81548163ffffffff021916908360e01c021790555060808201518160030160046101000a81548173ffffffffffffffffffffffffffffffffffffffff021916908373ffffffffffffffffffffffffffffffffffffffff16021790555060a082015181600401555050818560405161031c9190610bd3565b60405180910390207f394611a31616be6c6ac9b70c798c776a5d7533f25ad93f61d72db1968d3ec20660405160405180910390a36001925050509392505050565b6001805461036a90610e1d565b80601f016020809104026020016040519081016040528092919081815260200182805461039690610e1d565b80156103e35780601f106103b8576101008083540402835291602001916103e3565b820191906000526020600020905b8154815290600101906020018083116103c657829003601f168201915b505050505081565b600281815481106103fb57600080fd5b90600052602060002090600502016000915090508060000154908060010160009054906101000a900473ffffffffffffffffffffffffffffffffffffffff169080600201805461044a90610e1d565b80601f016020809104026020016040519081016040528092919081815260200182805461047690610e1d565b80156104c35780601f10610498576101008083540402835291602001916104c3565b820191906000526020600020905b8154815290600101906020018083116104a657829003601f168201915b5050505050908060030160009054906101000a900460e01b908060030160049054906101000a900473ffffffffffffffffffffffffffffffffffffffff16908060040154905086565b60008060009054906101000a900473ffffffffffffffffffffffffffffffffffffffff1673ffffffffffffffffffffffffffffffffffffffff163373ffffffffffffffffffffffffffffffffffffffff161461059d576040517f08c379a000000000000000000000000000000000000000000000000000000000815260040161059490610c42565b60405180910390fd5b6000600284815481106105b3576105b2610ec3565b5b90600052602060002090600502016040518060c0016040529081600082015481526020016001820160009054906101000a900473ffffffffffffffffffffffffffffffffffffffff1673ffffffffffffffffffffffffffffffffffffffff1673ffffffffffffffffffffffffffffffffffffffff16815260200160028201805461063c90610e1d565b80601f016020809104026020016040519081016040528092919081815260200182805461066890610e1d565b80156106b55780601f1061068a576101008083540402835291602001916106b5565b820191906000526020600020905b81548152906001019060200180831161069857829003601f168201915b505050505081526020016003820160009054906101000a900460e01b7bffffffffffffffffffffffffffffffffffffffffffffffffffffffff19167bffffffffffffffffffffffffffffffffffffffffffffffffffffffff191681526020016003820160049054906101000a900473ffffffffffffffffffffffffffffffffffffffff1673ffffffffffffffffffffffffffffffffffffffff1673ffffffffffffffffffffffffffffffffffffffff16815260200160048201548152505090506000816080015173ffffffffffffffffffffffffffffffffffffffff168260600151856040516020016107a9929190610b90565b6040516020818303038152906040526040516107c59190610bbc565b6000604051808303816000865af19150503d8060008114610802576040519150601f19603f3d011682016040523d82523d6000602084013e610807565b606091505b50509050809250505092915050565b82805461082290610e1d565b90600052602060002090601f016020900481019282610844576000855561088b565b82601f1061085d57805160ff191683800117855561088b565b8280016001018555821561088b579182015b8281111561088a57825182559160200191906001019061086f565b5b509050610898919061089c565b5090565b5b808211156108b557600081600090555060010161089d565b5090565b60006108cc6108c784610cef565b610cca565b9050828152602081018484840111156108e8576108e7610f26565b5b6108f3848285610ddb565b509392505050565b60008135905061090a81610f95565b92915050565b60008135905061091f81610fac565b92915050565b60008135905061093481610fc3565b92915050565b600082601f83011261094f5761094e610f21565b5b813561095f8482602086016108b9565b91505092915050565b60008135905061097781610fda565b92915050565b60008060006060848603121561099657610995610f30565b5b60006109a486828701610925565b935050602084013567ffffffffffffffff8111156109c5576109c4610f2b565b5b6109d18682870161093a565b92505060406109e2868287016108fb565b9150509250925092565b600060208284031215610a0257610a01610f30565b5b6000610a1084828501610968565b91505092915050565b60008060408385031215610a3057610a2f610f30565b5b6000610a3e85828601610968565b9250506020610a4f85828601610910565b9150509250929050565b610a6281610d5d565b82525050565b610a7181610d6f565b82525050565b610a8081610d7b565b82525050565b610a97610a9282610d7b565b610e80565b82525050565b610aa681610d85565b82525050565b610abd610ab882610d85565b610e8a565b82525050565b6000610ace82610d20565b610ad88185610d36565b9350610ae8818560208601610dea565b80840191505092915050565b6000610aff82610d2b565b610b098185610d41565b9350610b19818560208601610dea565b610b2281610f35565b840191505092915050565b6000610b3882610d2b565b610b428185610d52565b9350610b52818560208601610dea565b80840191505092915050565b6000610b6b602283610d41565b9150610b7682610f46565b604082019050919050565b610b8a81610dd1565b82525050565b6000610b9c8285610aac565b600482019150610bac8284610a86565b6020820191508190509392505050565b6000610bc88284610ac3565b915081905092915050565b6000610bdf8284610b2d565b915081905092915050565b6000602082019050610bff6000830184610a59565b92915050565b6000602082019050610c1a6000830184610a68565b92915050565b60006020820190508181036000830152610c3a8184610af4565b905092915050565b60006020820190508181036000830152610c5b81610b5e565b9050919050565b600060c082019050610c776000830189610b81565b610c846020830188610a59565b8181036040830152610c968187610af4565b9050610ca56060830186610a9d565b610cb26080830185610a59565b610cbf60a0830184610a77565b979650505050505050565b6000610cd4610ce5565b9050610ce08282610e4f565b919050565b6000604051905090565b600067ffffffffffffffff821115610d0a57610d09610ef2565b5b610d1382610f35565b9050602081019050919050565b600081519050919050565b600081519050919050565b600081905092915050565b600082825260208201905092915050565b600081905092915050565b6000610d6882610db1565b9050919050565b60008115159050919050565b6000819050919050565b60007fffffffff0000000000000000000000000000000000000000000000000000000082169050919050565b600073ffffffffffffffffffffffffffffffffffffffff82169050919050565b6000819050919050565b82818337600083830152505050565b60005b83811015610e08578082015181840152602081019050610ded565b83811115610e17576000848401525b50505050565b60006002820490506001821680610e3557607f821691505b60208210811415610e4957610e48610e94565b5b50919050565b610e5882610f35565b810181811067ffffffffffffffff82111715610e7757610e76610ef2565b5b80604052505050565b6000819050919050565b6000819050919050565b7f4e487b7100000000000000000000000000000000000000000000000000000000600052602260045260246000fd5b7f4e487b7100000000000000000000000000000000000000000000000000000000600052603260045260246000fd5b7f4e487b7100000000000000000000000000000000000000000000000000000000600052604160045260246000fd5b600080fd5b600080fd5b600080fd5b600080fd5b6000601f19601f8301169050919050565b7f4f7261636c653a205065726d697373696f6e206e656564656420666f72206e6f60008201527f6465000000000000000000000000000000000000000000000000000000000000602082015250565b610f9e81610d5d565b8114610fa957600080fd5b50565b610fb581610d7b565b8114610fc057600080fd5b50565b610fcc81610d85565b8114610fd757600080fd5b50565b610fe381610dd1565b8114610fee57600080fd5b5056fea2646970667358221220e91853c4cb3bd5433a005cfce4b5a54456d42b20cf420f71d9125de8ee9331dd64736f6c63430008070033",
					"opcodes": "PUSH1 0x80 PUSH1 0x40 MSTORE CALLVALUE DUP1 ISZERO PUSH3 0x11 JUMPI PUSH1 0x0 DUP1 REVERT JUMPDEST POP PUSH1 0x40 MLOAD PUSH3 0x144C CODESIZE SUB DUP1 PUSH3 0x144C DUP4 CODECOPY DUP2 DUP2 ADD PUSH1 0x40 MSTORE DUP2 ADD SWAP1 PUSH3 0x37 SWAP2 SWAP1 PUSH3 0x1DD JUMP JUMPDEST DUP2 PUSH1 0x0 DUP1 PUSH2 0x100 EXP DUP2 SLOAD DUP2 PUSH20 0xFFFFFFFFFFFFFFFFFFFFFFFFFFFFFFFFFFFFFFFF MUL NOT AND SWAP1 DUP4 PUSH20 0xFFFFFFFFFFFFFFFFFFFFFFFFFFFFFFFFFFFFFFFF AND MUL OR SWAP1 SSTORE POP DUP1 PUSH1 0x1 SWAP1 DUP1 MLOAD SWAP1 PUSH1 0x20 ADD SWAP1 PUSH3 0x8F SWAP3 SWAP2 SWAP1 PUSH3 0x98 JUMP JUMPDEST POP POP POP PUSH3 0x415 JUMP JUMPDEST DUP3 DUP1 SLOAD PUSH3 0xA6 SWAP1 PUSH3 0x30C JUMP JUMPDEST SWAP1 PUSH1 0x0 MSTORE PUSH1 0x20 PUSH1 0x0 KECCAK256 SWAP1 PUSH1 0x1F ADD PUSH1 0x20 SWAP1 DIV DUP2 ADD SWAP3 DUP3 PUSH3 0xCA JUMPI PUSH1 0x0 DUP6 SSTORE PUSH3 0x116 JUMP JUMPDEST DUP3 PUSH1 0x1F LT PUSH3 0xE5 JUMPI DUP1 MLOAD PUSH1 0xFF NOT AND DUP4 DUP1 ADD OR DUP6 SSTORE PUSH3 0x116 JUMP JUMPDEST DUP3 DUP1 ADD PUSH1 0x1 ADD DUP6 SSTORE DUP3 ISZERO PUSH3 0x116 JUMPI SWAP2 DUP3 ADD JUMPDEST DUP3 DUP2 GT ISZERO PUSH3 0x115 JUMPI DUP3 MLOAD DUP3 SSTORE SWAP2 PUSH1 0x20 ADD SWAP2 SWAP1 PUSH1 0x1 ADD SWAP1 PUSH3 0xF8 JUMP JUMPDEST JUMPDEST POP SWAP1 POP PUSH3 0x125 SWAP2 SWAP1 PUSH3 0x129 JUMP JUMPDEST POP SWAP1 JUMP JUMPDEST JUMPDEST DUP1 DUP3 GT ISZERO PUSH3 0x144 JUMPI PUSH1 0x0 DUP2 PUSH1 0x0 SWAP1 SSTORE POP PUSH1 0x1 ADD PUSH3 0x12A JUMP JUMPDEST POP SWAP1 JUMP JUMPDEST PUSH1 0x0 PUSH3 0x15F PUSH3 0x159 DUP5 PUSH3 0x26C JUMP JUMPDEST PUSH3 0x243 JUMP JUMPDEST SWAP1 POP DUP3 DUP2 MSTORE PUSH1 0x20 DUP2 ADD DUP5 DUP5 DUP5 ADD GT ISZERO PUSH3 0x17E JUMPI PUSH3 0x17D PUSH3 0x3DB JUMP JUMPDEST JUMPDEST PUSH3 0x18B DUP5 DUP3 DUP6 PUSH3 0x2D6 JUMP JUMPDEST POP SWAP4 SWAP3 POP POP POP JUMP JUMPDEST PUSH1 0x0 DUP2 MLOAD SWAP1 POP PUSH3 0x1A4 DUP2 PUSH3 0x3FB JUMP JUMPDEST SWAP3 SWAP2 POP POP JUMP JUMPDEST PUSH1 0x0 DUP3 PUSH1 0x1F DUP4 ADD SLT PUSH3 0x1C2 JUMPI PUSH3 0x1C1 PUSH3 0x3D6 JUMP JUMPDEST JUMPDEST DUP2 MLOAD PUSH3 0x1D4 DUP5 DUP3 PUSH1 0x20 DUP7 ADD PUSH3 0x148 JUMP JUMPDEST SWAP2 POP POP SWAP3 SWAP2 POP POP JUMP JUMPDEST PUSH1 0x0 DUP1 PUSH1 0x40 DUP4 DUP6 SUB SLT ISZERO PUSH3 0x1F7 JUMPI PUSH3 0x1F6 PUSH3 0x3E5 JUMP JUMPDEST JUMPDEST PUSH1 0x0 PUSH3 0x207 DUP6 DUP3 DUP7 ADD PUSH3 0x193 JUMP JUMPDEST SWAP3 POP POP PUSH1 0x20 DUP4 ADD MLOAD PUSH8 0xFFFFFFFFFFFFFFFF DUP2 GT ISZERO PUSH3 0x22B JUMPI PUSH3 0x22A PUSH3 0x3E0 JUMP JUMPDEST JUMPDEST PUSH3 0x239 DUP6 DUP3 DUP7 ADD PUSH3 0x1AA JUMP JUMPDEST SWAP2 POP POP SWAP3 POP SWAP3 SWAP1 POP JUMP JUMPDEST PUSH1 0x0 PUSH3 0x24F PUSH3 0x262 JUMP JUMPDEST SWAP1 POP PUSH3 0x25D DUP3 DUP3 PUSH3 0x342 JUMP JUMPDEST SWAP2 SWAP1 POP JUMP JUMPDEST PUSH1 0x0 PUSH1 0x40 MLOAD SWAP1 POP SWAP1 JUMP JUMPDEST PUSH1 0x0 PUSH8 0xFFFFFFFFFFFFFFFF DUP3 GT ISZERO PUSH3 0x28A JUMPI PUSH3 0x289 PUSH3 0x3A7 JUMP JUMPDEST JUMPDEST PUSH3 0x295 DUP3 PUSH3 0x3EA JUMP JUMPDEST SWAP1 POP PUSH1 0x20 DUP2 ADD SWAP1 POP SWAP2 SWAP1 POP JUMP JUMPDEST PUSH1 0x0 PUSH3 0x2AF DUP3 PUSH3 0x2B6 JUMP JUMPDEST SWAP1 POP SWAP2 SWAP1 POP JUMP JUMPDEST PUSH1 0x0 PUSH20 0xFFFFFFFFFFFFFFFFFFFFFFFFFFFFFFFFFFFFFFFF DUP3 AND SWAP1 POP SWAP2 SWAP1 POP JUMP JUMPDEST PUSH1 0x0 JUMPDEST DUP4 DUP2 LT ISZERO PUSH3 0x2F6 JUMPI DUP1 DUP3 ADD MLOAD DUP2 DUP5 ADD MSTORE PUSH1 0x20 DUP2 ADD SWAP1 POP PUSH3 0x2D9 JUMP JUMPDEST DUP4 DUP2 GT ISZERO PUSH3 0x306 JUMPI PUSH1 0x0 DUP5 DUP5 ADD MSTORE JUMPDEST POP POP POP POP JUMP JUMPDEST PUSH1 0x0 PUSH1 0x2 DUP3 DIV SWAP1 POP PUSH1 0x1 DUP3 AND DUP1 PUSH3 0x325 JUMPI PUSH1 0x7F DUP3 AND SWAP2 POP JUMPDEST PUSH1 0x20 DUP3 LT DUP2 EQ ISZERO PUSH3 0x33C JUMPI PUSH3 0x33B PUSH3 0x378 JUMP JUMPDEST JUMPDEST POP SWAP2 SWAP1 POP JUMP JUMPDEST PUSH3 0x34D DUP3 PUSH3 0x3EA JUMP JUMPDEST DUP2 ADD DUP2 DUP2 LT PUSH8 0xFFFFFFFFFFFFFFFF DUP3 GT OR ISZERO PUSH3 0x36F JUMPI PUSH3 0x36E PUSH3 0x3A7 JUMP JUMPDEST JUMPDEST DUP1 PUSH1 0x40 MSTORE POP POP POP JUMP JUMPDEST PUSH32 0x4E487B7100000000000000000000000000000000000000000000000000000000 PUSH1 0x0 MSTORE PUSH1 0x22 PUSH1 0x4 MSTORE PUSH1 0x24 PUSH1 0x0 REVERT JUMPDEST PUSH32 0x4E487B7100000000000000000000000000000000000000000000000000000000 PUSH1 0x0 MSTORE PUSH1 0x41 PUSH1 0x4 MSTORE PUSH1 0x24 PUSH1 0x0 REVERT JUMPDEST PUSH1 0x0 DUP1 REVERT JUMPDEST PUSH1 0x0 DUP1 REVERT JUMPDEST PUSH1 0x0 DUP1 REVERT JUMPDEST PUSH1 0x0 DUP1 REVERT JUMPDEST PUSH1 0x0 PUSH1 0x1F NOT PUSH1 0x1F DUP4 ADD AND SWAP1 POP SWAP2 SWAP1 POP JUMP JUMPDEST PUSH3 0x406 DUP2 PUSH3 0x2A2 JUMP JUMPDEST DUP2 EQ PUSH3 0x412 JUMPI PUSH1 0x0 DUP1 REVERT JUMPDEST POP JUMP JUMPDEST PUSH2 0x1027 DUP1 PUSH3 0x425 PUSH1 0x0 CODECOPY PUSH1 0x0 RETURN INVALID PUSH1 0x80 PUSH1 0x40 MSTORE CALLVALUE DUP1 ISZERO PUSH2 0x10 JUMPI PUSH1 0x0 DUP1 REVERT JUMPDEST POP PUSH1 0x4 CALLDATASIZE LT PUSH2 0x57 JUMPI PUSH1 0x0 CALLDATALOAD PUSH1 0xE0 SHR DUP1 PUSH4 0x2AA8481F EQ PUSH2 0x5C JUMPI DUP1 PUSH4 0x5CD3275C EQ PUSH2 0x7A JUMPI DUP1 PUSH4 0x5FB86B01 EQ PUSH2 0xAA JUMPI DUP1 PUSH4 0x81D12C58 EQ PUSH2 0xC8 JUMPI DUP1 PUSH4 0xEB3377D5 EQ PUSH2 0xFD JUMPI JUMPDEST PUSH1 0x0 DUP1 REVERT JUMPDEST PUSH2 0x64 PUSH2 0x12D JUMP JUMPDEST PUSH1 0x40 MLOAD PUSH2 0x71 SWAP2 SWAP1 PUSH2 0xBEA JUMP JUMPDEST PUSH1 0x40 MLOAD DUP1 SWAP2 SUB SWAP1 RETURN JUMPDEST PUSH2 0x94 PUSH1 0x4 DUP1 CALLDATASIZE SUB DUP2 ADD SWAP1 PUSH2 0x8F SWAP2 SWAP1 PUSH2 0x97D JUMP JUMPDEST PUSH2 0x151 JUMP JUMPDEST PUSH1 0x40 MLOAD PUSH2 0xA1 SWAP2 SWAP1 PUSH2 0xC05 JUMP JUMPDEST PUSH1 0x40 MLOAD DUP1 SWAP2 SUB SWAP1 RETURN JUMPDEST PUSH2 0xB2 PUSH2 0x35D JUMP JUMPDEST PUSH1 0x40 MLOAD PUSH2 0xBF SWAP2 SWAP1 PUSH2 0xC20 JUMP JUMPDEST PUSH1 0x40 MLOAD DUP1 SWAP2 SUB SWAP1 RETURN JUMPDEST PUSH2 0xE2 PUSH1 0x4 DUP1 CALLDATASIZE SUB DUP2 ADD SWAP1 PUSH2 0xDD SWAP2 SWAP1 PUSH2 0x9EC JUMP JUMPDEST PUSH2 0x3EB JUMP JUMPDEST PUSH1 0x40 MLOAD PUSH2 0xF4 SWAP7 SWAP6 SWAP5 SWAP4 SWAP3 SWAP2 SWAP1 PUSH2 0xC62 JUMP JUMPDEST PUSH1 0x40 MLOAD DUP1 SWAP2 SUB SWAP1 RETURN JUMPDEST PUSH2 0x117 PUSH1 0x4 DUP1 CALLDATASIZE SUB DUP2 ADD SWAP1 PUSH2 0x112 SWAP2 SWAP1 PUSH2 0xA19 JUMP JUMPDEST PUSH2 0x50C JUMP JUMPDEST PUSH1 0x40 MLOAD PUSH2 0x124 SWAP2 SWAP1 PUSH2 0xC05 JUMP JUMPDEST PUSH1 0x40 MLOAD DUP1 SWAP2 SUB SWAP1 RETURN JUMPDEST PUSH1 0x0 DUP1 SLOAD SWAP1 PUSH2 0x100 EXP SWAP1 DIV PUSH20 0xFFFFFFFFFFFFFFFFFFFFFFFFFFFFFFFFFFFFFFFF AND DUP2 JUMP JUMPDEST PUSH1 0x0 DUP1 PUSH1 0x2 DUP1 SLOAD SWAP1 POP SWAP1 POP PUSH1 0x0 PUSH1 0x40 MLOAD DUP1 PUSH1 0xC0 ADD PUSH1 0x40 MSTORE DUP1 DUP4 DUP2 MSTORE PUSH1 0x20 ADD PUSH1 0x0 DUP1 SLOAD SWAP1 PUSH2 0x100 EXP SWAP1 DIV PUSH20 0xFFFFFFFFFFFFFFFFFFFFFFFFFFFFFFFFFFFFFFFF AND PUSH20 0xFFFFFFFFFFFFFFFFFFFFFFFFFFFFFFFFFFFFFFFF AND DUP2 MSTORE PUSH1 0x20 ADD DUP7 DUP2 MSTORE PUSH1 0x20 ADD DUP8 PUSH28 0xFFFFFFFFFFFFFFFFFFFFFFFFFFFFFFFFFFFFFFFFFFFFFFFFFFFFFFFF NOT AND DUP2 MSTORE PUSH1 0x20 ADD DUP6 PUSH20 0xFFFFFFFFFFFFFFFFFFFFFFFFFFFFFFFFFFFFFFFF AND DUP2 MSTORE PUSH1 0x20 ADD PUSH1 0x0 DUP1 NOT AND DUP2 MSTORE POP SWAP1 POP PUSH1 0x2 DUP2 SWAP1 DUP1 PUSH1 0x1 DUP2 SLOAD ADD DUP1 DUP3 SSTORE DUP1 SWAP2 POP POP PUSH1 0x1 SWAP1 SUB SWAP1 PUSH1 0x0 MSTORE PUSH1 0x20 PUSH1 0x0 KECCAK256 SWAP1 PUSH1 0x5 MUL ADD PUSH1 0x0 SWAP1 SWAP2 SWAP1 SWAP2 SWAP1 SWAP2 POP PUSH1 0x0 DUP3 ADD MLOAD DUP2 PUSH1 0x0 ADD SSTORE PUSH1 0x20 DUP3 ADD MLOAD DUP2 PUSH1 0x1 ADD PUSH1 0x0 PUSH2 0x100 EXP DUP2 SLOAD DUP2 PUSH20 0xFFFFFFFFFFFFFFFFFFFFFFFFFFFFFFFFFFFFFFFF MUL NOT AND SWAP1 DUP4 PUSH20 0xFFFFFFFFFFFFFFFFFFFFFFFFFFFFFFFFFFFFFFFF AND MUL OR SWAP1 SSTORE POP PUSH1 0x40 DUP3 ADD MLOAD DUP2 PUSH1 0x2 ADD SWAP1 DUP1 MLOAD SWAP1 PUSH1 0x20 ADD SWAP1 PUSH2 0x295 SWAP3 SWAP2 SWAP1 PUSH2 0x816 JUMP JUMPDEST POP PUSH1 0x60 DUP3 ADD MLOAD DUP2 PUSH1 0x3 ADD PUSH1 0x0 PUSH2 0x100 EXP DUP2 SLOAD DUP2 PUSH4 0xFFFFFFFF MUL NOT AND SWAP1 DUP4 PUSH1 0xE0 SHR MUL OR SWAP1 SSTORE POP PUSH1 0x80 DUP3 ADD MLOAD DUP2 PUSH1 0x3 ADD PUSH1 0x4 PUSH2 0x100 EXP DUP2 SLOAD DUP2 PUSH20 0xFFFFFFFFFFFFFFFFFFFFFFFFFFFFFFFFFFFFFFFF MUL NOT AND SWAP1 DUP4 PUSH20 0xFFFFFFFFFFFFFFFFFFFFFFFFFFFFFFFFFFFFFFFF AND MUL OR SWAP1 SSTORE POP PUSH1 0xA0 DUP3 ADD MLOAD DUP2 PUSH1 0x4 ADD SSTORE POP POP DUP2 DUP6 PUSH1 0x40 MLOAD PUSH2 0x31C SWAP2 SWAP1 PUSH2 0xBD3 JUMP JUMPDEST PUSH1 0x40 MLOAD DUP1 SWAP2 SUB SWAP1 KECCAK256 PUSH32 0x394611A31616BE6C6AC9B70C798C776A5D7533F25AD93F61D72DB1968D3EC206 PUSH1 0x40 MLOAD PUSH1 0x40 MLOAD DUP1 SWAP2 SUB SWAP1 LOG3 PUSH1 0x1 SWAP3 POP POP POP SWAP4 SWAP3 POP POP POP JUMP JUMPDEST PUSH1 0x1 DUP1 SLOAD PUSH2 0x36A SWAP1 PUSH2 0xE1D JUMP JUMPDEST DUP1 PUSH1 0x1F ADD PUSH1 0x20 DUP1 SWAP2 DIV MUL PUSH1 0x20 ADD PUSH1 0x40 MLOAD SWAP1 DUP2 ADD PUSH1 0x40 MSTORE DUP1 SWAP3 SWAP2 SWAP1 DUP2 DUP2 MSTORE PUSH1 0x20 ADD DUP3 DUP1 SLOAD PUSH2 0x396 SWAP1 PUSH2 0xE1D JUMP JUMPDEST DUP1 ISZERO PUSH2 0x3E3 JUMPI DUP1 PUSH1 0x1F LT PUSH2 0x3B8 JUMPI PUSH2 0x100 DUP1 DUP4 SLOAD DIV MUL DUP4 MSTORE SWAP2 PUSH1 0x20 ADD SWAP2 PUSH2 0x3E3 JUMP JUMPDEST DUP3 ADD SWAP2 SWAP1 PUSH1 0x0 MSTORE PUSH1 0x20 PUSH1 0x0 KECCAK256 SWAP1 JUMPDEST DUP2 SLOAD DUP2 MSTORE SWAP1 PUSH1 0x1 ADD SWAP1 PUSH1 0x20 ADD DUP1 DUP4 GT PUSH2 0x3C6 JUMPI DUP3 SWAP1 SUB PUSH1 0x1F AND DUP3 ADD SWAP2 JUMPDEST POP POP POP POP POP DUP2 JUMP JUMPDEST PUSH1 0x2 DUP2 DUP2 SLOAD DUP2 LT PUSH2 0x3FB JUMPI PUSH1 0x0 DUP1 REVERT JUMPDEST SWAP1 PUSH1 0x0 MSTORE PUSH1 0x20 PUSH1 0x0 KECCAK256 SWAP1 PUSH1 0x5 MUL ADD PUSH1 0x0 SWAP2 POP SWAP1 POP DUP1 PUSH1 0x0 ADD SLOAD SWAP1 DUP1 PUSH1 0x1 ADD PUSH1 0x0 SWAP1 SLOAD SWAP1 PUSH2 0x100 EXP SWAP1 DIV PUSH20 0xFFFFFFFFFFFFFFFFFFFFFFFFFFFFFFFFFFFFFFFF AND SWAP1 DUP1 PUSH1 0x2 ADD DUP1 SLOAD PUSH2 0x44A SWAP1 PUSH2 0xE1D JUMP JUMPDEST DUP1 PUSH1 0x1F ADD PUSH1 0x20 DUP1 SWAP2 DIV MUL PUSH1 0x20 ADD PUSH1 0x40 MLOAD SWAP1 DUP2 ADD PUSH1 0x40 MSTORE DUP1 SWAP3 SWAP2 SWAP1 DUP2 DUP2 MSTORE PUSH1 0x20 ADD DUP3 DUP1 SLOAD PUSH2 0x476 SWAP1 PUSH2 0xE1D JUMP JUMPDEST DUP1 ISZERO PUSH2 0x4C3 JUMPI DUP1 PUSH1 0x1F LT PUSH2 0x498 JUMPI PUSH2 0x100 DUP1 DUP4 SLOAD DIV MUL DUP4 MSTORE SWAP2 PUSH1 0x20 ADD SWAP2 PUSH2 0x4C3 JUMP JUMPDEST DUP3 ADD SWAP2 SWAP1 PUSH1 0x0 MSTORE PUSH1 0x20 PUSH1 0x0 KECCAK256 SWAP1 JUMPDEST DUP2 SLOAD DUP2 MSTORE SWAP1 PUSH1 0x1 ADD SWAP1 PUSH1 0x20 ADD DUP1 DUP4 GT PUSH2 0x4A6 JUMPI DUP3 SWAP1 SUB PUSH1 0x1F AND DUP3 ADD SWAP2 JUMPDEST POP POP POP POP POP SWAP1 DUP1 PUSH1 0x3 ADD PUSH1 0x0 SWAP1 SLOAD SWAP1 PUSH2 0x100 EXP SWAP1 DIV PUSH1 0xE0 SHL SWAP1 DUP1 PUSH1 0x3 ADD PUSH1 0x4 SWAP1 SLOAD SWAP1 PUSH2 0x100 EXP SWAP1 DIV PUSH20 0xFFFFFFFFFFFFFFFFFFFFFFFFFFFFFFFFFFFFFFFF AND SWAP1 DUP1 PUSH1 0x4 ADD SLOAD SWAP1 POP DUP7 JUMP JUMPDEST PUSH1 0x0 DUP1 PUSH1 0x0 SWAP1 SLOAD SWAP1 PUSH2 0x100 EXP SWAP1 DIV PUSH20 0xFFFFFFFFFFFFFFFFFFFFFFFFFFFFFFFFFFFFFFFF AND PUSH20 0xFFFFFFFFFFFFFFFFFFFFFFFFFFFFFFFFFFFFFFFF AND CALLER PUSH20 0xFFFFFFFFFFFFFFFFFFFFFFFFFFFFFFFFFFFFFFFF AND EQ PUSH2 0x59D JUMPI PUSH1 0x40 MLOAD PUSH32 0x8C379A000000000000000000000000000000000000000000000000000000000 DUP2 MSTORE PUSH1 0x4 ADD PUSH2 0x594 SWAP1 PUSH2 0xC42 JUMP JUMPDEST PUSH1 0x40 MLOAD DUP1 SWAP2 SUB SWAP1 REVERT JUMPDEST PUSH1 0x0 PUSH1 0x2 DUP5 DUP2 SLOAD DUP2 LT PUSH2 0x5B3 JUMPI PUSH2 0x5B2 PUSH2 0xEC3 JUMP JUMPDEST JUMPDEST SWAP1 PUSH1 0x0 MSTORE PUSH1 0x20 PUSH1 0x0 KECCAK256 SWAP1 PUSH1 0x5 MUL ADD PUSH1 0x40 MLOAD DUP1 PUSH1 0xC0 ADD PUSH1 0x40 MSTORE SWAP1 DUP2 PUSH1 0x0 DUP3 ADD SLOAD DUP2 MSTORE PUSH1 0x20 ADD PUSH1 0x1 DUP3 ADD PUSH1 0x0 SWAP1 SLOAD SWAP1 PUSH2 0x100 EXP SWAP1 DIV PUSH20 0xFFFFFFFFFFFFFFFFFFFFFFFFFFFFFFFFFFFFFFFF AND PUSH20 0xFFFFFFFFFFFFFFFFFFFFFFFFFFFFFFFFFFFFFFFF AND PUSH20 0xFFFFFFFFFFFFFFFFFFFFFFFFFFFFFFFFFFFFFFFF AND DUP2 MSTORE PUSH1 0x20 ADD PUSH1 0x2 DUP3 ADD DUP1 SLOAD PUSH2 0x63C SWAP1 PUSH2 0xE1D JUMP JUMPDEST DUP1 PUSH1 0x1F ADD PUSH1 0x20 DUP1 SWAP2 DIV MUL PUSH1 0x20 ADD PUSH1 0x40 MLOAD SWAP1 DUP2 ADD PUSH1 0x40 MSTORE DUP1 SWAP3 SWAP2 SWAP1 DUP2 DUP2 MSTORE PUSH1 0x20 ADD DUP3 DUP1 SLOAD PUSH2 0x668 SWAP1 PUSH2 0xE1D JUMP JUMPDEST DUP1 ISZERO PUSH2 0x6B5 JUMPI DUP1 PUSH1 0x1F LT PUSH2 0x68A JUMPI PUSH2 0x100 DUP1 DUP4 SLOAD DIV MUL DUP4 MSTORE SWAP2 PUSH1 0x20 ADD SWAP2 PUSH2 0x6B5 JUMP JUMPDEST DUP3 ADD SWAP2 SWAP1 PUSH1 0x0 MSTORE PUSH1 0x20 PUSH1 0x0 KECCAK256 SWAP1 JUMPDEST DUP2 SLOAD DUP2 MSTORE SWAP1 PUSH1 0x1 ADD SWAP1 PUSH1 0x20 ADD DUP1 DUP4 GT PUSH2 0x698 JUMPI DUP3 SWAP1 SUB PUSH1 0x1F AND DUP3 ADD SWAP2 JUMPDEST POP POP POP POP POP DUP2 MSTORE PUSH1 0x20 ADD PUSH1 0x3 DUP3 ADD PUSH1 0x0 SWAP1 SLOAD SWAP1 PUSH2 0x100 EXP SWAP1 DIV PUSH1 0xE0 SHL PUSH28 0xFFFFFFFFFFFFFFFFFFFFFFFFFFFFFFFFFFFFFFFFFFFFFFFFFFFFFFFF NOT AND PUSH28 0xFFFFFFFFFFFFFFFFFFFFFFFFFFFFFFFFFFFFFFFFFFFFFFFFFFFFFFFF NOT AND DUP2 MSTORE PUSH1 0x20 ADD PUSH1 0x3 DUP3 ADD PUSH1 0x4 SWAP1 SLOAD SWAP1 PUSH2 0x100 EXP SWAP1 DIV PUSH20 0xFFFFFFFFFFFFFFFFFFFFFFFFFFFFFFFFFFFFFFFF AND PUSH20 0xFFFFFFFFFFFFFFFFFFFFFFFFFFFFFFFFFFFFFFFF AND PUSH20 0xFFFFFFFFFFFFFFFFFFFFFFFFFFFFFFFFFFFFFFFF AND DUP2 MSTORE PUSH1 0x20 ADD PUSH1 0x4 DUP3 ADD SLOAD DUP2 MSTORE POP POP SWAP1 POP PUSH1 0x0 DUP2 PUSH1 0x80 ADD MLOAD PUSH20 0xFFFFFFFFFFFFFFFFFFFFFFFFFFFFFFFFFFFFFFFF AND DUP3 PUSH1 0x60 ADD MLOAD DUP6 PUSH1 0x40 MLOAD PUSH1 0x20 ADD PUSH2 0x7A9 SWAP3 SWAP2 SWAP1 PUSH2 0xB90 JUMP JUMPDEST PUSH1 0x40 MLOAD PUSH1 0x20 DUP2 DUP4 SUB SUB DUP2 MSTORE SWAP1 PUSH1 0x40 MSTORE PUSH1 0x40 MLOAD PUSH2 0x7C5 SWAP2 SWAP1 PUSH2 0xBBC JUMP JUMPDEST PUSH1 0x0 PUSH1 0x40 MLOAD DUP1 DUP4 SUB DUP2 PUSH1 0x0 DUP7 GAS CALL SWAP2 POP POP RETURNDATASIZE DUP1 PUSH1 0x0 DUP2 EQ PUSH2 0x802 JUMPI PUSH1 0x40 MLOAD SWAP2 POP PUSH1 0x1F NOT PUSH1 0x3F RETURNDATASIZE ADD AND DUP3 ADD PUSH1 0x40 MSTORE RETURNDATASIZE DUP3 MSTORE RETURNDATASIZE PUSH1 0x0 PUSH1 0x20 DUP5 ADD RETURNDATACOPY PUSH2 0x807 JUMP JUMPDEST PUSH1 0x60 SWAP2 POP JUMPDEST POP POP SWAP1 POP DUP1 SWAP3 POP POP POP SWAP3 SWAP2 POP POP JUMP JUMPDEST DUP3 DUP1 SLOAD PUSH2 0x822 SWAP1 PUSH2 0xE1D JUMP JUMPDEST SWAP1 PUSH1 0x0 MSTORE PUSH1 0x20 PUSH1 0x0 KECCAK256 SWAP1 PUSH1 0x1F ADD PUSH1 0x20 SWAP1 DIV DUP2 ADD SWAP3 DUP3 PUSH2 0x844 JUMPI PUSH1 0x0 DUP6 SSTORE PUSH2 0x88B JUMP JUMPDEST DUP3 PUSH1 0x1F LT PUSH2 0x85D JUMPI DUP1 MLOAD PUSH1 0xFF NOT AND DUP4 DUP1 ADD OR DUP6 SSTORE PUSH2 0x88B JUMP JUMPDEST DUP3 DUP1 ADD PUSH1 0x1 ADD DUP6 SSTORE DUP3 ISZERO PUSH2 0x88B JUMPI SWAP2 DUP3 ADD JUMPDEST DUP3 DUP2 GT ISZERO PUSH2 0x88A JUMPI DUP3 MLOAD DUP3 SSTORE SWAP2 PUSH1 0x20 ADD SWAP2 SWAP1 PUSH1 0x1 ADD SWAP1 PUSH2 0x86F JUMP JUMPDEST JUMPDEST POP SWAP1 POP PUSH2 0x898 SWAP2 SWAP1 PUSH2 0x89C JUMP JUMPDEST POP SWAP1 JUMP JUMPDEST JUMPDEST DUP1 DUP3 GT ISZERO PUSH2 0x8B5 JUMPI PUSH1 0x0 DUP2 PUSH1 0x0 SWAP1 SSTORE POP PUSH1 0x1 ADD PUSH2 0x89D JUMP JUMPDEST POP SWAP1 JUMP JUMPDEST PUSH1 0x0 PUSH2 0x8CC PUSH2 0x8C7 DUP5 PUSH2 0xCEF JUMP JUMPDEST PUSH2 0xCCA JUMP JUMPDEST SWAP1 POP DUP3 DUP2 MSTORE PUSH1 0x20 DUP2 ADD DUP5 DUP5 DUP5 ADD GT ISZERO PUSH2 0x8E8 JUMPI PUSH2 0x8E7 PUSH2 0xF26 JUMP JUMPDEST JUMPDEST PUSH2 0x8F3 DUP5 DUP3 DUP6 PUSH2 0xDDB JUMP JUMPDEST POP SWAP4 SWAP3 POP POP POP JUMP JUMPDEST PUSH1 0x0 DUP2 CALLDATALOAD SWAP1 POP PUSH2 0x90A DUP2 PUSH2 0xF95 JUMP JUMPDEST SWAP3 SWAP2 POP POP JUMP JUMPDEST PUSH1 0x0 DUP2 CALLDATALOAD SWAP1 POP PUSH2 0x91F DUP2 PUSH2 0xFAC JUMP JUMPDEST SWAP3 SWAP2 POP POP JUMP JUMPDEST PUSH1 0x0 DUP2 CALLDATALOAD SWAP1 POP PUSH2 0x934 DUP2 PUSH2 0xFC3 JUMP JUMPDEST SWAP3 SWAP2 POP POP JUMP JUMPDEST PUSH1 0x0 DUP3 PUSH1 0x1F DUP4 ADD SLT PUSH2 0x94F JUMPI PUSH2 0x94E PUSH2 0xF21 JUMP JUMPDEST JUMPDEST DUP2 CALLDATALOAD PUSH2 0x95F DUP5 DUP3 PUSH1 0x20 DUP7 ADD PUSH2 0x8B9 JUMP JUMPDEST SWAP2 POP POP SWAP3 SWAP2 POP POP JUMP JUMPDEST PUSH1 0x0 DUP2 CALLDATALOAD SWAP1 POP PUSH2 0x977 DUP2 PUSH2 0xFDA JUMP JUMPDEST SWAP3 SWAP2 POP POP JUMP JUMPDEST PUSH1 0x0 DUP1 PUSH1 0x0 PUSH1 0x60 DUP5 DUP7 SUB SLT ISZERO PUSH2 0x996 JUMPI PUSH2 0x995 PUSH2 0xF30 JUMP JUMPDEST JUMPDEST PUSH1 0x0 PUSH2 0x9A4 DUP7 DUP3 DUP8 ADD PUSH2 0x925 JUMP JUMPDEST SWAP4 POP POP PUSH1 0x20 DUP5 ADD CALLDATALOAD PUSH8 0xFFFFFFFFFFFFFFFF DUP2 GT ISZERO PUSH2 0x9C5 JUMPI PUSH2 0x9C4 PUSH2 0xF2B JUMP JUMPDEST JUMPDEST PUSH2 0x9D1 DUP7 DUP3 DUP8 ADD PUSH2 0x93A JUMP JUMPDEST SWAP3 POP POP PUSH1 0x40 PUSH2 0x9E2 DUP7 DUP3 DUP8 ADD PUSH2 0x8FB JUMP JUMPDEST SWAP2 POP POP SWAP3 POP SWAP3 POP SWAP3 JUMP JUMPDEST PUSH1 0x0 PUSH1 0x20 DUP3 DUP5 SUB SLT ISZERO PUSH2 0xA02 JUMPI PUSH2 0xA01 PUSH2 0xF30 JUMP JUMPDEST JUMPDEST PUSH1 0x0 PUSH2 0xA10 DUP5 DUP3 DUP6 ADD PUSH2 0x968 JUMP JUMPDEST SWAP2 POP POP SWAP3 SWAP2 POP POP JUMP JUMPDEST PUSH1 0x0 DUP1 PUSH1 0x40 DUP4 DUP6 SUB SLT ISZERO PUSH2 0xA30 JUMPI PUSH2 0xA2F PUSH2 0xF30 JUMP JUMPDEST JUMPDEST PUSH1 0x0 PUSH2 0xA3E DUP6 DUP3 DUP7 ADD PUSH2 0x968 JUMP JUMPDEST SWAP3 POP POP PUSH1 0x20 PUSH2 0xA4F DUP6 DUP3 DUP7 ADD PUSH2 0x910 JUMP JUMPDEST SWAP2 POP POP SWAP3 POP SWAP3 SWAP1 POP JUMP JUMPDEST PUSH2 0xA62 DUP2 PUSH2 0xD5D JUMP JUMPDEST DUP3 MSTORE POP POP JUMP JUMPDEST PUSH2 0xA71 DUP2 PUSH2 0xD6F JUMP JUMPDEST DUP3 MSTORE POP POP JUMP JUMPDEST PUSH2 0xA80 DUP2 PUSH2 0xD7B JUMP JUMPDEST DUP3 MSTORE POP POP JUMP JUMPDEST PUSH2 0xA97 PUSH2 0xA92 DUP3 PUSH2 0xD7B JUMP JUMPDEST PUSH2 0xE80 JUMP JUMPDEST DUP3 MSTORE POP POP JUMP JUMPDEST PUSH2 0xAA6 DUP2 PUSH2 0xD85 JUMP JUMPDEST DUP3 MSTORE POP POP JUMP JUMPDEST PUSH2 0xABD PUSH2 0xAB8 DUP3 PUSH2 0xD85 JUMP JUMPDEST PUSH2 0xE8A JUMP JUMPDEST DUP3 MSTORE POP POP JUMP JUMPDEST PUSH1 0x0 PUSH2 0xACE DUP3 PUSH2 0xD20 JUMP JUMPDEST PUSH2 0xAD8 DUP2 DUP6 PUSH2 0xD36 JUMP JUMPDEST SWAP4 POP PUSH2 0xAE8 DUP2 DUP6 PUSH1 0x20 DUP7 ADD PUSH2 0xDEA JUMP JUMPDEST DUP1 DUP5 ADD SWAP2 POP POP SWAP3 SWAP2 POP POP JUMP JUMPDEST PUSH1 0x0 PUSH2 0xAFF DUP3 PUSH2 0xD2B JUMP JUMPDEST PUSH2 0xB09 DUP2 DUP6 PUSH2 0xD41 JUMP JUMPDEST SWAP4 POP PUSH2 0xB19 DUP2 DUP6 PUSH1 0x20 DUP7 ADD PUSH2 0xDEA JUMP JUMPDEST PUSH2 0xB22 DUP2 PUSH2 0xF35 JUMP JUMPDEST DUP5 ADD SWAP2 POP POP SWAP3 SWAP2 POP POP JUMP JUMPDEST PUSH1 0x0 PUSH2 0xB38 DUP3 PUSH2 0xD2B JUMP JUMPDEST PUSH2 0xB42 DUP2 DUP6 PUSH2 0xD52 JUMP JUMPDEST SWAP4 POP PUSH2 0xB52 DUP2 DUP6 PUSH1 0x20 DUP7 ADD PUSH2 0xDEA JUMP JUMPDEST DUP1 DUP5 ADD SWAP2 POP POP SWAP3 SWAP2 POP POP JUMP JUMPDEST PUSH1 0x0 PUSH2 0xB6B PUSH1 0x22 DUP4 PUSH2 0xD41 JUMP JUMPDEST SWAP2 POP PUSH2 0xB76 DUP3 PUSH2 0xF46 JUMP JUMPDEST PUSH1 0x40 DUP3 ADD SWAP1 POP SWAP2 SWAP1 POP JUMP JUMPDEST PUSH2 0xB8A DUP2 PUSH2 0xDD1 JUMP JUMPDEST DUP3 MSTORE POP POP JUMP JUMPDEST PUSH1 0x0 PUSH2 0xB9C DUP3 DUP6 PUSH2 0xAAC JUMP JUMPDEST PUSH1 0x4 DUP3 ADD SWAP2 POP PUSH2 0xBAC DUP3 DUP5 PUSH2 0xA86 JUMP JUMPDEST PUSH1 0x20 DUP3 ADD SWAP2 POP DUP2 SWAP1 POP SWAP4 SWAP3 POP POP POP JUMP JUMPDEST PUSH1 0x0 PUSH2 0xBC8 DUP3 DUP5 PUSH2 0xAC3 JUMP JUMPDEST SWAP2 POP DUP2 SWAP1 POP SWAP3 SWAP2 POP POP JUMP JUMPDEST PUSH1 0x0 PUSH2 0xBDF DUP3 DUP5 PUSH2 0xB2D JUMP JUMPDEST SWAP2 POP DUP2 SWAP1 POP SWAP3 SWAP2 POP POP JUMP JUMPDEST PUSH1 0x0 PUSH1 0x20 DUP3 ADD SWAP1 POP PUSH2 0xBFF PUSH1 0x0 DUP4 ADD DUP5 PUSH2 0xA59 JUMP JUMPDEST SWAP3 SWAP2 POP POP JUMP JUMPDEST PUSH1 0x0 PUSH1 0x20 DUP3 ADD SWAP1 POP PUSH2 0xC1A PUSH1 0x0 DUP4 ADD DUP5 PUSH2 0xA68 JUMP JUMPDEST SWAP3 SWAP2 POP POP JUMP JUMPDEST PUSH1 0x0 PUSH1 0x20 DUP3 ADD SWAP1 POP DUP2 DUP2 SUB PUSH1 0x0 DUP4 ADD MSTORE PUSH2 0xC3A DUP2 DUP5 PUSH2 0xAF4 JUMP JUMPDEST SWAP1 POP SWAP3 SWAP2 POP POP JUMP JUMPDEST PUSH1 0x0 PUSH1 0x20 DUP3 ADD SWAP1 POP DUP2 DUP2 SUB PUSH1 0x0 DUP4 ADD MSTORE PUSH2 0xC5B DUP2 PUSH2 0xB5E JUMP JUMPDEST SWAP1 POP SWAP2 SWAP1 POP JUMP JUMPDEST PUSH1 0x0 PUSH1 0xC0 DUP3 ADD SWAP1 POP PUSH2 0xC77 PUSH1 0x0 DUP4 ADD DUP10 PUSH2 0xB81 JUMP JUMPDEST PUSH2 0xC84 PUSH1 0x20 DUP4 ADD DUP9 PUSH2 0xA59 JUMP JUMPDEST DUP2 DUP2 SUB PUSH1 0x40 DUP4 ADD MSTORE PUSH2 0xC96 DUP2 DUP8 PUSH2 0xAF4 JUMP JUMPDEST SWAP1 POP PUSH2 0xCA5 PUSH1 0x60 DUP4 ADD DUP7 PUSH2 0xA9D JUMP JUMPDEST PUSH2 0xCB2 PUSH1 0x80 DUP4 ADD DUP6 PUSH2 0xA59 JUMP JUMPDEST PUSH2 0xCBF PUSH1 0xA0 DUP4 ADD DUP5 PUSH2 0xA77 JUMP JUMPDEST SWAP8 SWAP7 POP POP POP POP POP POP POP JUMP JUMPDEST PUSH1 0x0 PUSH2 0xCD4 PUSH2 0xCE5 JUMP JUMPDEST SWAP1 POP PUSH2 0xCE0 DUP3 DUP3 PUSH2 0xE4F JUMP JUMPDEST SWAP2 SWAP1 POP JUMP JUMPDEST PUSH1 0x0 PUSH1 0x40 MLOAD SWAP1 POP SWAP1 JUMP JUMPDEST PUSH1 0x0 PUSH8 0xFFFFFFFFFFFFFFFF DUP3 GT ISZERO PUSH2 0xD0A JUMPI PUSH2 0xD09 PUSH2 0xEF2 JUMP JUMPDEST JUMPDEST PUSH2 0xD13 DUP3 PUSH2 0xF35 JUMP JUMPDEST SWAP1 POP PUSH1 0x20 DUP2 ADD SWAP1 POP SWAP2 SWAP1 POP JUMP JUMPDEST PUSH1 0x0 DUP2 MLOAD SWAP1 POP SWAP2 SWAP1 POP JUMP JUMPDEST PUSH1 0x0 DUP2 MLOAD SWAP1 POP SWAP2 SWAP1 POP JUMP JUMPDEST PUSH1 0x0 DUP2 SWAP1 POP SWAP3 SWAP2 POP POP JUMP JUMPDEST PUSH1 0x0 DUP3 DUP3 MSTORE PUSH1 0x20 DUP3 ADD SWAP1 POP SWAP3 SWAP2 POP POP JUMP JUMPDEST PUSH1 0x0 DUP2 SWAP1 POP SWAP3 SWAP2 POP POP JUMP JUMPDEST PUSH1 0x0 PUSH2 0xD68 DUP3 PUSH2 0xDB1 JUMP JUMPDEST SWAP1 POP SWAP2 SWAP1 POP JUMP JUMPDEST PUSH1 0x0 DUP2 ISZERO ISZERO SWAP1 POP SWAP2 SWAP1 POP JUMP JUMPDEST PUSH1 0x0 DUP2 SWAP1 POP SWAP2 SWAP1 POP JUMP JUMPDEST PUSH1 0x0 PUSH32 0xFFFFFFFF00000000000000000000000000000000000000000000000000000000 DUP3 AND SWAP1 POP SWAP2 SWAP1 POP JUMP JUMPDEST PUSH1 0x0 PUSH20 0xFFFFFFFFFFFFFFFFFFFFFFFFFFFFFFFFFFFFFFFF DUP3 AND SWAP1 POP SWAP2 SWAP1 POP JUMP JUMPDEST PUSH1 0x0 DUP2 SWAP1 POP SWAP2 SWAP1 POP JUMP JUMPDEST DUP3 DUP2 DUP4 CALLDATACOPY PUSH1 0x0 DUP4 DUP4 ADD MSTORE POP POP POP JUMP JUMPDEST PUSH1 0x0 JUMPDEST DUP4 DUP2 LT ISZERO PUSH2 0xE08 JUMPI DUP1 DUP3 ADD MLOAD DUP2 DUP5 ADD MSTORE PUSH1 0x20 DUP2 ADD SWAP1 POP PUSH2 0xDED JUMP JUMPDEST DUP4 DUP2 GT ISZERO PUSH2 0xE17 JUMPI PUSH1 0x0 DUP5 DUP5 ADD MSTORE JUMPDEST POP POP POP POP JUMP JUMPDEST PUSH1 0x0 PUSH1 0x2 DUP3 DIV SWAP1 POP PUSH1 0x1 DUP3 AND DUP1 PUSH2 0xE35 JUMPI PUSH1 0x7F DUP3 AND SWAP2 POP JUMPDEST PUSH1 0x20 DUP3 LT DUP2 EQ ISZERO PUSH2 0xE49 JUMPI PUSH2 0xE48 PUSH2 0xE94 JUMP JUMPDEST JUMPDEST POP SWAP2 SWAP1 POP JUMP JUMPDEST PUSH2 0xE58 DUP3 PUSH2 0xF35 JUMP JUMPDEST DUP2 ADD DUP2 DUP2 LT PUSH8 0xFFFFFFFFFFFFFFFF DUP3 GT OR ISZERO PUSH2 0xE77 JUMPI PUSH2 0xE76 PUSH2 0xEF2 JUMP JUMPDEST JUMPDEST DUP1 PUSH1 0x40 MSTORE POP POP POP JUMP JUMPDEST PUSH1 0x0 DUP2 SWAP1 POP SWAP2 SWAP1 POP JUMP JUMPDEST PUSH1 0x0 DUP2 SWAP1 POP SWAP2 SWAP1 POP JUMP JUMPDEST PUSH32 0x4E487B7100000000000000000000000000000000000000000000000000000000 PUSH1 0x0 MSTORE PUSH1 0x22 PUSH1 0x4 MSTORE PUSH1 0x24 PUSH1 0x0 REVERT JUMPDEST PUSH32 0x4E487B7100000000000000000000000000000000000000000000000000000000 PUSH1 0x0 MSTORE PUSH1 0x32 PUSH1 0x4 MSTORE PUSH1 0x24 PUSH1 0x0 REVERT JUMPDEST PUSH32 0x4E487B7100000000000000000000000000000000000000000000000000000000 PUSH1 0x0 MSTORE PUSH1 0x41 PUSH1 0x4 MSTORE PUSH1 0x24 PUSH1 0x0 REVERT JUMPDEST PUSH1 0x0 DUP1 REVERT JUMPDEST PUSH1 0x0 DUP1 REVERT JUMPDEST PUSH1 0x0 DUP1 REVERT JUMPDEST PUSH1 0x0 DUP1 REVERT JUMPDEST PUSH1 0x0 PUSH1 0x1F NOT PUSH1 0x1F DUP4 ADD AND SWAP1 POP SWAP2 SWAP1 POP JUMP JUMPDEST PUSH32 0x4F7261636C653A205065726D697373696F6E206E656564656420666F72206E6F PUSH1 0x0 DUP3 ADD MSTORE PUSH32 0x6465000000000000000000000000000000000000000000000000000000000000 PUSH1 0x20 DUP3 ADD MSTORE POP JUMP JUMPDEST PUSH2 0xF9E DUP2 PUSH2 0xD5D JUMP JUMPDEST DUP2 EQ PUSH2 0xFA9 JUMPI PUSH1 0x0 DUP1 REVERT JUMPDEST POP JUMP JUMPDEST PUSH2 0xFB5 DUP2 PUSH2 0xD7B JUMP JUMPDEST DUP2 EQ PUSH2 0xFC0 JUMPI PUSH1 0x0 DUP1 REVERT JUMPDEST POP JUMP JUMPDEST PUSH2 0xFCC DUP2 PUSH2 0xD85 JUMP JUMPDEST DUP2 EQ PUSH2 0xFD7 JUMPI PUSH1 0x0 DUP1 REVERT JUMPDEST POP JUMP JUMPDEST PUSH2 0xFE3 DUP2 PUSH2 0xDD1 JUMP JUMPDEST DUP2 EQ PUSH2 0xFEE JUMPI PUSH1 0x0 DUP1 REVERT JUMPDEST POP JUMP INVALID LOG2 PUSH5 0x6970667358 0x22 SLT KECCAK256 0xE9 XOR MSTORE8 0xC4 0xCB EXTCODESIZE 0xD5 NUMBER GASPRICE STOP 0x5C 0xFC 0xE4 0xB5 0xA5 DIFFICULTY JUMP 0xD4 0x2B KECCAK256 0xCF TIMESTAMP 0xF PUSH18 0xD9125DE8EE9331DD64736F6C634300080700 CALLER "
				},
				"gasEstimates": {
					"creation": {
						"codeDepositCost": "827000",
						"executionCost": "infinite",
						"totalCost": "infinite"
					},
					"external": {
						"adapterId()": "infinite",
						"fulfillOracleRequest(uint256,bytes32)": "infinite",
						"newOracleRequest(bytes4,string,address)": "infinite",
						"nodeAddress()": "2489",
						"requests(uint256)": "infinite"
					}
				},
				"methodIdentifiers": {
					"adapterId()": "5fb86b01",
					"fulfillOracleRequest(uint256,bytes32)": "eb3377d5",
					"newOracleRequest(bytes4,string,address)": "5cd3275c",
					"nodeAddress()": "2aa8481f",
					"requests(uint256)": "81d12c58"
				}
			},
			"storageLayout": {
				"storage": [
					{
						"astId": 6,
						"contract": "Users/drewhyte/Sites/BLOCKCHAIN/klay-oracle/contracts/v0.0.5/Oracle.sol:Oracle",
						"label": "nodeAddress",
						"offset": 0,
						"slot": "0",
						"type": "t_address"
					},
					{
						"astId": 8,
						"contract": "Users/drewhyte/Sites/BLOCKCHAIN/klay-oracle/contracts/v0.0.5/Oracle.sol:Oracle",
						"label": "adapterId",
						"offset": 0,
						"slot": "1",
						"type": "t_string_storage"
					},
					{
						"astId": 25,
						"contract": "Users/drewhyte/Sites/BLOCKCHAIN/klay-oracle/contracts/v0.0.5/Oracle.sol:Oracle",
						"label": "requests",
						"offset": 0,
						"slot": "2",
						"type": "t_array(t_struct(Request)21_storage)dyn_storage"
					}
				],
				"types": {
					"t_address": {
						"encoding": "inplace",
						"label": "address",
						"numberOfBytes": "20"
					},
					"t_array(t_struct(Request)21_storage)dyn_storage": {
						"base": "t_struct(Request)21_storage",
						"encoding": "dynamic_array",
						"label": "struct Oracle.Request[]",
						"numberOfBytes": "32"
					},
					"t_bytes32": {
						"encoding": "inplace",
						"label": "bytes32",
						"numberOfBytes": "32"
					},
					"t_bytes4": {
						"encoding": "inplace",
						"label": "bytes4",
						"numberOfBytes": "4"
					},
					"t_string_storage": {
						"encoding": "bytes",
						"label": "string",
						"numberOfBytes": "32"
					},
					"t_struct(Request)21_storage": {
						"encoding": "inplace",
						"label": "struct Oracle.Request",
						"members": [
							{
								"astId": 10,
								"contract": "Users/drewhyte/Sites/BLOCKCHAIN/klay-oracle/contracts/v0.0.5/Oracle.sol:Oracle",
								"label": "requestId",
								"offset": 0,
								"slot": "0",
								"type": "t_uint256"
							},
							{
								"astId": 12,
								"contract": "Users/drewhyte/Sites/BLOCKCHAIN/klay-oracle/contracts/v0.0.5/Oracle.sol:Oracle",
								"label": "nodeAddress",
								"offset": 0,
								"slot": "1",
								"type": "t_address"
							},
							{
								"astId": 14,
								"contract": "Users/drewhyte/Sites/BLOCKCHAIN/klay-oracle/contracts/v0.0.5/Oracle.sol:Oracle",
								"label": "adapterId",
								"offset": 0,
								"slot": "2",
								"type": "t_string_storage"
							},
							{
								"astId": 16,
								"contract": "Users/drewhyte/Sites/BLOCKCHAIN/klay-oracle/contracts/v0.0.5/Oracle.sol:Oracle",
								"label": "callbackFunctionId",
								"offset": 0,
								"slot": "3",
								"type": "t_bytes4"
							},
							{
								"astId": 18,
								"contract": "Users/drewhyte/Sites/BLOCKCHAIN/klay-oracle/contracts/v0.0.5/Oracle.sol:Oracle",
								"label": "callBackContract",
								"offset": 4,
								"slot": "3",
								"type": "t_address"
							},
							{
								"astId": 20,
								"contract": "Users/drewhyte/Sites/BLOCKCHAIN/klay-oracle/contracts/v0.0.5/Oracle.sol:Oracle",
								"label": "data",
								"offset": 0,
								"slot": "4",
								"type": "t_bytes32"
							}
						],
						"numberOfBytes": "160"
					},
					"t_uint256": {
						"encoding": "inplace",
						"label": "uint256",
						"numberOfBytes": "32"
					}
				}
			},
			"userdoc": {
				"kind": "user",
				"methods": {},
				"version": 1
			}
		}
	}
}