{
	"Users/drewhyte/Sites/BLOCKCHAIN/klay-oracle/contracts/v0.0.5/Oracle.sol": {
		"Oracle": {
			"abi": [
				{
					"inputs": [
						{
							"internalType": "address",
							"name": "_nodeAddress",
							"type": "address"
						},
						{
							"internalType": "string",
							"name": "_adapterId",
							"type": "string"
						}
					],
					"stateMutability": "nonpayable",
					"type": "constructor"
				},
				{
					"anonymous": false,
					"inputs": [
						{
							"indexed": true,
							"internalType": "string",
							"name": "adapterId",
							"type": "string"
						},
						{
							"indexed": true,
							"internalType": "uint256",
							"name": "requestId",
							"type": "uint256"
						}
					],
					"name": "NewOracleRequest",
					"type": "event"
				},
				{
					"inputs": [],
					"name": "adapterId",
					"outputs": [
						{
							"internalType": "string",
							"name": "",
							"type": "string"
						}
					],
					"stateMutability": "view",
					"type": "function"
				},
				{
					"inputs": [
						{
							"internalType": "uint256",
							"name": "requestId",
							"type": "uint256"
						},
						{
							"internalType": "bytes32",
							"name": "data",
							"type": "bytes32"
						}
					],
					"name": "fulfillOracleRequest",
					"outputs": [
						{
							"internalType": "bool",
							"name": "",
							"type": "bool"
						}
					],
					"stateMutability": "nonpayable",
					"type": "function"
				},
				{
					"inputs": [
						{
							"internalType": "bytes4",
							"name": "callbackFunctionId",
							"type": "bytes4"
						},
						{
							"internalType": "string",
							"name": "adapterID",
							"type": "string"
						},
						{
							"internalType": "address",
							"name": "callBackContract",
							"type": "address"
						}
					],
					"name": "newOracleRequest",
					"outputs": [
						{
							"internalType": "bool",
							"name": "",
							"type": "bool"
						}
					],
					"stateMutability": "nonpayable",
					"type": "function"
				},
				{
					"inputs": [],
					"name": "nodeAddress",
					"outputs": [
						{
							"internalType": "address",
							"name": "",
							"type": "address"
						}
					],
					"stateMutability": "view",
					"type": "function"
				},
				{
					"inputs": [
						{
							"internalType": "uint256",
							"name": "",
							"type": "uint256"
						}
					],
					"name": "requests",
					"outputs": [
						{
							"internalType": "uint256",
							"name": "requestId",
							"type": "uint256"
						},
						{
							"internalType": "address",
							"name": "nodeAddress",
							"type": "address"
						},
						{
							"internalType": "string",
							"name": "adapterId",
							"type": "string"
						},
						{
							"internalType": "bytes4",
							"name": "callbackFunctionId",
							"type": "bytes4"
						},
						{
							"internalType": "address",
							"name": "callBackContract",
							"type": "address"
						},
						{
							"internalType": "bytes32",
							"name": "data",
							"type": "bytes32"
						}
					],
					"stateMutability": "view",
					"type": "function"
				}
			],
			"devdoc": {
				"kind": "dev",
				"methods": {},
				"version": 1
			},
			"evm": {
				"assembly": "    /* \"Users/drewhyte/Sites/BLOCKCHAIN/klay-oracle/contracts/v0.0.5/Oracle.sol\":90:1507  contract Oracle is OracleInterface {... */\n  mstore(0x40, 0x80)\n    /* \"Users/drewhyte/Sites/BLOCKCHAIN/klay-oracle/contracts/v0.0.5/Oracle.sol\":511:646  constructor(address _nodeAddress, string memory _adapterId) {... */\n  callvalue\n  dup1\n  iszero\n  tag_1\n  jumpi\n  0x00\n  dup1\n  revert\ntag_1:\n  pop\n  mload(0x40)\n  sub(codesize, bytecodeSize)\n  dup1\n  bytecodeSize\n  dup4\n  codecopy\n  dup2\n  dup2\n  add\n  0x40\n  mstore\n  dup2\n  add\n  swap1\n  tag_2\n  swap2\n  swap1\n  tag_3\n  jump\t// in\ntag_2:\n    /* \"Users/drewhyte/Sites/BLOCKCHAIN/klay-oracle/contracts/v0.0.5/Oracle.sol\":595:607  _nodeAddress */\n  dup2\n    /* \"Users/drewhyte/Sites/BLOCKCHAIN/klay-oracle/contracts/v0.0.5/Oracle.sol\":581:592  nodeAddress */\n  0x00\n  dup1\n    /* \"Users/drewhyte/Sites/BLOCKCHAIN/klay-oracle/contracts/v0.0.5/Oracle.sol\":581:607  nodeAddress = _nodeAddress */\n  0x0100\n  exp\n  dup2\n  sload\n  dup2\n  0xffffffffffffffffffffffffffffffffffffffff\n  mul\n  not\n  and\n  swap1\n  dup4\n  0xffffffffffffffffffffffffffffffffffffffff\n  and\n  mul\n  or\n  swap1\n  sstore\n  pop\n    /* \"Users/drewhyte/Sites/BLOCKCHAIN/klay-oracle/contracts/v0.0.5/Oracle.sol\":629:639  _adapterId */\n  dup1\n    /* \"Users/drewhyte/Sites/BLOCKCHAIN/klay-oracle/contracts/v0.0.5/Oracle.sol\":617:626  adapterId */\n  0x01\n    /* \"Users/drewhyte/Sites/BLOCKCHAIN/klay-oracle/contracts/v0.0.5/Oracle.sol\":617:639  adapterId = _adapterId */\n  swap1\n  dup1\n  mload\n  swap1\n  0x20\n  add\n  swap1\n  tag_6\n  swap3\n  swap2\n  swap1\n  tag_7\n  jump\t// in\ntag_6:\n  pop\n    /* \"Users/drewhyte/Sites/BLOCKCHAIN/klay-oracle/contracts/v0.0.5/Oracle.sol\":511:646  constructor(address _nodeAddress, string memory _adapterId) {... */\n  pop\n  pop\n    /* \"Users/drewhyte/Sites/BLOCKCHAIN/klay-oracle/contracts/v0.0.5/Oracle.sol\":90:1507  contract Oracle is OracleInterface {... */\n  jump(tag_8)\ntag_7:\n  dup3\n  dup1\n  sload\n  tag_9\n  swap1\n  tag_10\n  jump\t// in\ntag_9:\n  swap1\n  0x00\n  mstore\n  keccak256(0x00, 0x20)\n  swap1\n  0x1f\n  add\n  0x20\n  swap1\n  div\n  dup2\n  add\n  swap3\n  dup3\n  tag_12\n  jumpi\n  0x00\n  dup6\n  sstore\n  jump(tag_11)\ntag_12:\n  dup3\n  0x1f\n  lt\n  tag_13\n  jumpi\n  dup1\n  mload\n  not(0xff)\n  and\n  dup4\n  dup1\n  add\n  or\n  dup6\n  sstore\n  jump(tag_11)\ntag_13:\n  dup3\n  dup1\n  add\n  0x01\n  add\n  dup6\n  sstore\n  dup3\n  iszero\n  tag_11\n  jumpi\n  swap2\n  dup3\n  add\ntag_14:\n  dup3\n  dup2\n  gt\n  iszero\n  tag_15\n  jumpi\n  dup3\n  mload\n  dup3\n  sstore\n  swap2\n  0x20\n  add\n  swap2\n  swap1\n  0x01\n  add\n  swap1\n  jump(tag_14)\ntag_15:\ntag_11:\n  pop\n  swap1\n  pop\n  tag_16\n  swap2\n  swap1\n  tag_17\n  jump\t// in\ntag_16:\n  pop\n  swap1\n  jump\t// out\ntag_17:\ntag_18:\n  dup1\n  dup3\n  gt\n  iszero\n  tag_19\n  jumpi\n  0x00\n  dup2\n  0x00\n  swap1\n  sstore\n  pop\n  0x01\n  add\n  jump(tag_18)\ntag_19:\n  pop\n  swap1\n  jump\t// out\n    /* \"#utility.yul\":7:428   */\ntag_21:\n    /* \"#utility.yul\":96:101   */\n  0x00\n    /* \"#utility.yul\":121:187   */\n  tag_23\n    /* \"#utility.yul\":137:186   */\n  tag_24\n    /* \"#utility.yul\":179:185   */\n  dup5\n    /* \"#utility.yul\":137:186   */\n  tag_25\n  jump\t// in\ntag_24:\n    /* \"#utility.yul\":121:187   */\n  tag_26\n  jump\t// in\ntag_23:\n    /* \"#utility.yul\":112:187   */\n  swap1\n  pop\n    /* \"#utility.yul\":210:216   */\n  dup3\n    /* \"#utility.yul\":203:208   */\n  dup2\n    /* \"#utility.yul\":196:217   */\n  mstore\n    /* \"#utility.yul\":248:252   */\n  0x20\n    /* \"#utility.yul\":241:246   */\n  dup2\n    /* \"#utility.yul\":237:253   */\n  add\n    /* \"#utility.yul\":286:289   */\n  dup5\n    /* \"#utility.yul\":277:283   */\n  dup5\n    /* \"#utility.yul\":272:275   */\n  dup5\n    /* \"#utility.yul\":268:284   */\n  add\n    /* \"#utility.yul\":265:290   */\n  gt\n    /* \"#utility.yul\":262:374   */\n  iszero\n  tag_27\n  jumpi\n    /* \"#utility.yul\":293:372   */\n  tag_28\n  tag_29\n  jump\t// in\ntag_28:\n    /* \"#utility.yul\":262:374   */\ntag_27:\n    /* \"#utility.yul\":383:422   */\n  tag_30\n    /* \"#utility.yul\":415:421   */\n  dup5\n    /* \"#utility.yul\":410:413   */\n  dup3\n    /* \"#utility.yul\":405:408   */\n  dup6\n    /* \"#utility.yul\":383:422   */\n  tag_31\n  jump\t// in\ntag_30:\n    /* \"#utility.yul\":102:428   */\n  pop\n    /* \"#utility.yul\":7:428   */\n  swap4\n  swap3\n  pop\n  pop\n  pop\n  jump\t// out\n    /* \"#utility.yul\":434:577   */\ntag_32:\n    /* \"#utility.yul\":491:496   */\n  0x00\n    /* \"#utility.yul\":522:528   */\n  dup2\n    /* \"#utility.yul\":516:529   */\n  mload\n    /* \"#utility.yul\":507:529   */\n  swap1\n  pop\n    /* \"#utility.yul\":538:571   */\n  tag_34\n    /* \"#utility.yul\":565:570   */\n  dup2\n    /* \"#utility.yul\":538:571   */\n  tag_35\n  jump\t// in\ntag_34:\n    /* \"#utility.yul\":434:577   */\n  swap3\n  swap2\n  pop\n  pop\n  jump\t// out\n    /* \"#utility.yul\":597:952   */\ntag_36:\n    /* \"#utility.yul\":664:669   */\n  0x00\n    /* \"#utility.yul\":713:716   */\n  dup3\n    /* \"#utility.yul\":706:710   */\n  0x1f\n    /* \"#utility.yul\":698:704   */\n  dup4\n    /* \"#utility.yul\":694:711   */\n  add\n    /* \"#utility.yul\":690:717   */\n  slt\n    /* \"#utility.yul\":680:802   */\n  tag_38\n  jumpi\n    /* \"#utility.yul\":721:800   */\n  tag_39\n  tag_40\n  jump\t// in\ntag_39:\n    /* \"#utility.yul\":680:802   */\ntag_38:\n    /* \"#utility.yul\":831:837   */\n  dup2\n    /* \"#utility.yul\":825:838   */\n  mload\n    /* \"#utility.yul\":856:946   */\n  tag_41\n    /* \"#utility.yul\":942:945   */\n  dup5\n    /* \"#utility.yul\":934:940   */\n  dup3\n    /* \"#utility.yul\":927:931   */\n  0x20\n    /* \"#utility.yul\":919:925   */\n  dup7\n    /* \"#utility.yul\":915:932   */\n  add\n    /* \"#utility.yul\":856:946   */\n  tag_21\n  jump\t// in\ntag_41:\n    /* \"#utility.yul\":847:946   */\n  swap2\n  pop\n    /* \"#utility.yul\":670:952   */\n  pop\n    /* \"#utility.yul\":597:952   */\n  swap3\n  swap2\n  pop\n  pop\n  jump\t// out\n    /* \"#utility.yul\":958:1638   */\ntag_3:\n    /* \"#utility.yul\":1047:1053   */\n  0x00\n    /* \"#utility.yul\":1055:1061   */\n  dup1\n    /* \"#utility.yul\":1104:1106   */\n  0x40\n    /* \"#utility.yul\":1092:1101   */\n  dup4\n    /* \"#utility.yul\":1083:1090   */\n  dup6\n    /* \"#utility.yul\":1079:1102   */\n  sub\n    /* \"#utility.yul\":1075:1107   */\n  slt\n    /* \"#utility.yul\":1072:1191   */\n  iszero\n  tag_43\n  jumpi\n    /* \"#utility.yul\":1110:1189   */\n  tag_44\n  tag_45\n  jump\t// in\ntag_44:\n    /* \"#utility.yul\":1072:1191   */\ntag_43:\n    /* \"#utility.yul\":1230:1231   */\n  0x00\n    /* \"#utility.yul\":1255:1319   */\n  tag_46\n    /* \"#utility.yul\":1311:1318   */\n  dup6\n    /* \"#utility.yul\":1302:1308   */\n  dup3\n    /* \"#utility.yul\":1291:1300   */\n  dup7\n    /* \"#utility.yul\":1287:1309   */\n  add\n    /* \"#utility.yul\":1255:1319   */\n  tag_32\n  jump\t// in\ntag_46:\n    /* \"#utility.yul\":1245:1319   */\n  swap3\n  pop\n    /* \"#utility.yul\":1201:1329   */\n  pop\n    /* \"#utility.yul\":1389:1391   */\n  0x20\n    /* \"#utility.yul\":1378:1387   */\n  dup4\n    /* \"#utility.yul\":1374:1392   */\n  add\n    /* \"#utility.yul\":1368:1393   */\n  mload\n    /* \"#utility.yul\":1420:1438   */\n  0xffffffffffffffff\n    /* \"#utility.yul\":1412:1418   */\n  dup2\n    /* \"#utility.yul\":1409:1439   */\n  gt\n    /* \"#utility.yul\":1406:1523   */\n  iszero\n  tag_47\n  jumpi\n    /* \"#utility.yul\":1442:1521   */\n  tag_48\n  tag_49\n  jump\t// in\ntag_48:\n    /* \"#utility.yul\":1406:1523   */\ntag_47:\n    /* \"#utility.yul\":1547:1621   */\n  tag_50\n    /* \"#utility.yul\":1613:1620   */\n  dup6\n    /* \"#utility.yul\":1604:1610   */\n  dup3\n    /* \"#utility.yul\":1593:1602   */\n  dup7\n    /* \"#utility.yul\":1589:1611   */\n  add\n    /* \"#utility.yul\":1547:1621   */\n  tag_36\n  jump\t// in\ntag_50:\n    /* \"#utility.yul\":1537:1621   */\n  swap2\n  pop\n    /* \"#utility.yul\":1339:1631   */\n  pop\n    /* \"#utility.yul\":958:1638   */\n  swap3\n  pop\n  swap3\n  swap1\n  pop\n  jump\t// out\n    /* \"#utility.yul\":1644:1773   */\ntag_26:\n    /* \"#utility.yul\":1678:1684   */\n  0x00\n    /* \"#utility.yul\":1705:1725   */\n  tag_52\n  tag_53\n  jump\t// in\ntag_52:\n    /* \"#utility.yul\":1695:1725   */\n  swap1\n  pop\n    /* \"#utility.yul\":1734:1767   */\n  tag_54\n    /* \"#utility.yul\":1762:1766   */\n  dup3\n    /* \"#utility.yul\":1754:1760   */\n  dup3\n    /* \"#utility.yul\":1734:1767   */\n  tag_55\n  jump\t// in\ntag_54:\n    /* \"#utility.yul\":1644:1773   */\n  swap2\n  swap1\n  pop\n  jump\t// out\n    /* \"#utility.yul\":1779:1854   */\ntag_53:\n    /* \"#utility.yul\":1812:1818   */\n  0x00\n    /* \"#utility.yul\":1845:1847   */\n  0x40\n    /* \"#utility.yul\":1839:1848   */\n  mload\n    /* \"#utility.yul\":1829:1848   */\n  swap1\n  pop\n    /* \"#utility.yul\":1779:1854   */\n  swap1\n  jump\t// out\n    /* \"#utility.yul\":1860:2168   */\ntag_25:\n    /* \"#utility.yul\":1922:1926   */\n  0x00\n    /* \"#utility.yul\":2012:2030   */\n  0xffffffffffffffff\n    /* \"#utility.yul\":2004:2010   */\n  dup3\n    /* \"#utility.yul\":2001:2031   */\n  gt\n    /* \"#utility.yul\":1998:2054   */\n  iszero\n  tag_58\n  jumpi\n    /* \"#utility.yul\":2034:2052   */\n  tag_59\n  tag_60\n  jump\t// in\ntag_59:\n    /* \"#utility.yul\":1998:2054   */\ntag_58:\n    /* \"#utility.yul\":2072:2101   */\n  tag_61\n    /* \"#utility.yul\":2094:2100   */\n  dup3\n    /* \"#utility.yul\":2072:2101   */\n  tag_62\n  jump\t// in\ntag_61:\n    /* \"#utility.yul\":2064:2101   */\n  swap1\n  pop\n    /* \"#utility.yul\":2156:2160   */\n  0x20\n    /* \"#utility.yul\":2150:2154   */\n  dup2\n    /* \"#utility.yul\":2146:2161   */\n  add\n    /* \"#utility.yul\":2138:2161   */\n  swap1\n  pop\n    /* \"#utility.yul\":1860:2168   */\n  swap2\n  swap1\n  pop\n  jump\t// out\n    /* \"#utility.yul\":2174:2270   */\ntag_63:\n    /* \"#utility.yul\":2211:2218   */\n  0x00\n    /* \"#utility.yul\":2240:2264   */\n  tag_65\n    /* \"#utility.yul\":2258:2263   */\n  dup3\n    /* \"#utility.yul\":2240:2264   */\n  tag_66\n  jump\t// in\ntag_65:\n    /* \"#utility.yul\":2229:2264   */\n  swap1\n  pop\n    /* \"#utility.yul\":2174:2270   */\n  swap2\n  swap1\n  pop\n  jump\t// out\n    /* \"#utility.yul\":2276:2402   */\ntag_66:\n    /* \"#utility.yul\":2313:2320   */\n  0x00\n    /* \"#utility.yul\":2353:2395   */\n  0xffffffffffffffffffffffffffffffffffffffff\n    /* \"#utility.yul\":2346:2351   */\n  dup3\n    /* \"#utility.yul\":2342:2396   */\n  and\n    /* \"#utility.yul\":2331:2396   */\n  swap1\n  pop\n    /* \"#utility.yul\":2276:2402   */\n  swap2\n  swap1\n  pop\n  jump\t// out\n    /* \"#utility.yul\":2408:2715   */\ntag_31:\n    /* \"#utility.yul\":2476:2477   */\n  0x00\n    /* \"#utility.yul\":2486:2599   */\ntag_69:\n    /* \"#utility.yul\":2500:2506   */\n  dup4\n    /* \"#utility.yul\":2497:2498   */\n  dup2\n    /* \"#utility.yul\":2494:2507   */\n  lt\n    /* \"#utility.yul\":2486:2599   */\n  iszero\n  tag_71\n  jumpi\n    /* \"#utility.yul\":2585:2586   */\n  dup1\n    /* \"#utility.yul\":2580:2583   */\n  dup3\n    /* \"#utility.yul\":2576:2587   */\n  add\n    /* \"#utility.yul\":2570:2588   */\n  mload\n    /* \"#utility.yul\":2566:2567   */\n  dup2\n    /* \"#utility.yul\":2561:2564   */\n  dup5\n    /* \"#utility.yul\":2557:2568   */\n  add\n    /* \"#utility.yul\":2550:2589   */\n  mstore\n    /* \"#utility.yul\":2522:2524   */\n  0x20\n    /* \"#utility.yul\":2519:2520   */\n  dup2\n    /* \"#utility.yul\":2515:2525   */\n  add\n    /* \"#utility.yul\":2510:2525   */\n  swap1\n  pop\n    /* \"#utility.yul\":2486:2599   */\n  jump(tag_69)\ntag_71:\n    /* \"#utility.yul\":2617:2623   */\n  dup4\n    /* \"#utility.yul\":2614:2615   */\n  dup2\n    /* \"#utility.yul\":2611:2624   */\n  gt\n    /* \"#utility.yul\":2608:2709   */\n  iszero\n  tag_72\n  jumpi\n    /* \"#utility.yul\":2697:2698   */\n  0x00\n    /* \"#utility.yul\":2688:2694   */\n  dup5\n    /* \"#utility.yul\":2683:2686   */\n  dup5\n    /* \"#utility.yul\":2679:2695   */\n  add\n    /* \"#utility.yul\":2672:2699   */\n  mstore\n    /* \"#utility.yul\":2608:2709   */\ntag_72:\n    /* \"#utility.yul\":2457:2715   */\n  pop\n    /* \"#utility.yul\":2408:2715   */\n  pop\n  pop\n  pop\n  jump\t// out\n    /* \"#utility.yul\":2721:3041   */\ntag_10:\n    /* \"#utility.yul\":2765:2771   */\n  0x00\n    /* \"#utility.yul\":2802:2803   */\n  0x02\n    /* \"#utility.yul\":2796:2800   */\n  dup3\n    /* \"#utility.yul\":2792:2804   */\n  div\n    /* \"#utility.yul\":2782:2804   */\n  swap1\n  pop\n    /* \"#utility.yul\":2849:2850   */\n  0x01\n    /* \"#utility.yul\":2843:2847   */\n  dup3\n    /* \"#utility.yul\":2839:2851   */\n  and\n    /* \"#utility.yul\":2870:2888   */\n  dup1\n    /* \"#utility.yul\":2860:2941   */\n  tag_74\n  jumpi\n    /* \"#utility.yul\":2926:2930   */\n  0x7f\n    /* \"#utility.yul\":2918:2924   */\n  dup3\n    /* \"#utility.yul\":2914:2931   */\n  and\n    /* \"#utility.yul\":2904:2931   */\n  swap2\n  pop\n    /* \"#utility.yul\":2860:2941   */\ntag_74:\n    /* \"#utility.yul\":2988:2990   */\n  0x20\n    /* \"#utility.yul\":2980:2986   */\n  dup3\n    /* \"#utility.yul\":2977:2991   */\n  lt\n    /* \"#utility.yul\":2957:2975   */\n  dup2\n    /* \"#utility.yul\":2954:2992   */\n  eq\n    /* \"#utility.yul\":2951:3035   */\n  iszero\n  tag_75\n  jumpi\n    /* \"#utility.yul\":3007:3025   */\n  tag_76\n  tag_77\n  jump\t// in\ntag_76:\n    /* \"#utility.yul\":2951:3035   */\ntag_75:\n    /* \"#utility.yul\":2772:3041   */\n  pop\n    /* \"#utility.yul\":2721:3041   */\n  swap2\n  swap1\n  pop\n  jump\t// out\n    /* \"#utility.yul\":3047:3328   */\ntag_55:\n    /* \"#utility.yul\":3130:3157   */\n  tag_79\n    /* \"#utility.yul\":3152:3156   */\n  dup3\n    /* \"#utility.yul\":3130:3157   */\n  tag_62\n  jump\t// in\ntag_79:\n    /* \"#utility.yul\":3122:3128   */\n  dup2\n    /* \"#utility.yul\":3118:3158   */\n  add\n    /* \"#utility.yul\":3260:3266   */\n  dup2\n    /* \"#utility.yul\":3248:3258   */\n  dup2\n    /* \"#utility.yul\":3245:3267   */\n  lt\n    /* \"#utility.yul\":3224:3242   */\n  0xffffffffffffffff\n    /* \"#utility.yul\":3212:3222   */\n  dup3\n    /* \"#utility.yul\":3209:3243   */\n  gt\n    /* \"#utility.yul\":3206:3268   */\n  or\n    /* \"#utility.yul\":3203:3291   */\n  iszero\n  tag_80\n  jumpi\n    /* \"#utility.yul\":3271:3289   */\n  tag_81\n  tag_60\n  jump\t// in\ntag_81:\n    /* \"#utility.yul\":3203:3291   */\ntag_80:\n    /* \"#utility.yul\":3311:3321   */\n  dup1\n    /* \"#utility.yul\":3307:3309   */\n  0x40\n    /* \"#utility.yul\":3300:3322   */\n  mstore\n    /* \"#utility.yul\":3090:3328   */\n  pop\n    /* \"#utility.yul\":3047:3328   */\n  pop\n  pop\n  jump\t// out\n    /* \"#utility.yul\":3334:3514   */\ntag_77:\n    /* \"#utility.yul\":3382:3459   */\n  0x4e487b7100000000000000000000000000000000000000000000000000000000\n    /* \"#utility.yul\":3379:3380   */\n  0x00\n    /* \"#utility.yul\":3372:3460   */\n  mstore\n    /* \"#utility.yul\":3479:3483   */\n  0x22\n    /* \"#utility.yul\":3476:3477   */\n  0x04\n    /* \"#utility.yul\":3469:3484   */\n  mstore\n    /* \"#utility.yul\":3503:3507   */\n  0x24\n    /* \"#utility.yul\":3500:3501   */\n  0x00\n    /* \"#utility.yul\":3493:3508   */\n  revert\n    /* \"#utility.yul\":3520:3700   */\ntag_60:\n    /* \"#utility.yul\":3568:3645   */\n  0x4e487b7100000000000000000000000000000000000000000000000000000000\n    /* \"#utility.yul\":3565:3566   */\n  0x00\n    /* \"#utility.yul\":3558:3646   */\n  mstore\n    /* \"#utility.yul\":3665:3669   */\n  0x41\n    /* \"#utility.yul\":3662:3663   */\n  0x04\n    /* \"#utility.yul\":3655:3670   */\n  mstore\n    /* \"#utility.yul\":3689:3693   */\n  0x24\n    /* \"#utility.yul\":3686:3687   */\n  0x00\n    /* \"#utility.yul\":3679:3694   */\n  revert\n    /* \"#utility.yul\":3706:3823   */\ntag_40:\n    /* \"#utility.yul\":3815:3816   */\n  0x00\n    /* \"#utility.yul\":3812:3813   */\n  dup1\n    /* \"#utility.yul\":3805:3817   */\n  revert\n    /* \"#utility.yul\":3829:3946   */\ntag_29:\n    /* \"#utility.yul\":3938:3939   */\n  0x00\n    /* \"#utility.yul\":3935:3936   */\n  dup1\n    /* \"#utility.yul\":3928:3940   */\n  revert\n    /* \"#utility.yul\":3952:4069   */\ntag_49:\n    /* \"#utility.yul\":4061:4062   */\n  0x00\n    /* \"#utility.yul\":4058:4059   */\n  dup1\n    /* \"#utility.yul\":4051:4063   */\n  revert\n    /* \"#utility.yul\":4075:4192   */\ntag_45:\n    /* \"#utility.yul\":4184:4185   */\n  0x00\n    /* \"#utility.yul\":4181:4182   */\n  dup1\n    /* \"#utility.yul\":4174:4186   */\n  revert\n    /* \"#utility.yul\":4198:4300   */\ntag_62:\n    /* \"#utility.yul\":4239:4245   */\n  0x00\n    /* \"#utility.yul\":4290:4292   */\n  0x1f\n    /* \"#utility.yul\":4286:4293   */\n  not\n    /* \"#utility.yul\":4281:4283   */\n  0x1f\n    /* \"#utility.yul\":4274:4279   */\n  dup4\n    /* \"#utility.yul\":4270:4284   */\n  add\n    /* \"#utility.yul\":4266:4294   */\n  and\n    /* \"#utility.yul\":4256:4294   */\n  swap1\n  pop\n    /* \"#utility.yul\":4198:4300   */\n  swap2\n  swap1\n  pop\n  jump\t// out\n    /* \"#utility.yul\":4306:4428   */\ntag_35:\n    /* \"#utility.yul\":4379:4403   */\n  tag_90\n    /* \"#utility.yul\":4397:4402   */\n  dup2\n    /* \"#utility.yul\":4379:4403   */\n  tag_63\n  jump\t// in\ntag_90:\n    /* \"#utility.yul\":4372:4377   */\n  dup2\n    /* \"#utility.yul\":4369:4404   */\n  eq\n    /* \"#utility.yul\":4359:4422   */\n  tag_91\n  jumpi\n    /* \"#utility.yul\":4418:4419   */\n  0x00\n    /* \"#utility.yul\":4415:4416   */\n  dup1\n    /* \"#utility.yul\":4408:4420   */\n  revert\n    /* \"#utility.yul\":4359:4422   */\ntag_91:\n    /* \"#utility.yul\":4306:4428   */\n  pop\n  jump\t// out\n    /* \"Users/drewhyte/Sites/BLOCKCHAIN/klay-oracle/contracts/v0.0.5/Oracle.sol\":90:1507  contract Oracle is OracleInterface {... */\ntag_8:\n  dataSize(sub_0)\n  dup1\n  dataOffset(sub_0)\n  0x00\n  codecopy\n  0x00\n  return\nstop\n\nsub_0: assembly {\n        /* \"Users/drewhyte/Sites/BLOCKCHAIN/klay-oracle/contracts/v0.0.5/Oracle.sol\":90:1507  contract Oracle is OracleInterface {... */\n      mstore(0x40, 0x80)\n      callvalue\n      dup1\n      iszero\n      tag_1\n      jumpi\n      0x00\n      dup1\n      revert\n    tag_1:\n      pop\n      jumpi(tag_2, lt(calldatasize, 0x04))\n      shr(0xe0, calldataload(0x00))\n      dup1\n      0x2aa8481f\n      eq\n      tag_3\n      jumpi\n      dup1\n      0x5cd3275c\n      eq\n      tag_4\n      jumpi\n      dup1\n      0x5fb86b01\n      eq\n      tag_5\n      jumpi\n      dup1\n      0x81d12c58\n      eq\n      tag_6\n      jumpi\n      dup1\n      0xeb3377d5\n      eq\n      tag_7\n      jumpi\n    tag_2:\n      0x00\n      dup1\n      revert\n        /* \"Users/drewhyte/Sites/BLOCKCHAIN/klay-oracle/contracts/v0.0.5/Oracle.sol\":132:158  address public nodeAddress */\n    tag_3:\n      tag_8\n      tag_9\n      jump\t// in\n    tag_8:\n      mload(0x40)\n      tag_10\n      swap2\n      swap1\n      tag_11\n      jump\t// in\n    tag_10:\n      mload(0x40)\n      dup1\n      swap2\n      sub\n      swap1\n      return\n        /* \"Users/drewhyte/Sites/BLOCKCHAIN/klay-oracle/contracts/v0.0.5/Oracle.sol\":652:1187  function newOracleRequest(... */\n    tag_4:\n      tag_12\n      0x04\n      dup1\n      calldatasize\n      sub\n      dup2\n      add\n      swap1\n      tag_13\n      swap2\n      swap1\n      tag_14\n      jump\t// in\n    tag_13:\n      tag_15\n      jump\t// in\n    tag_12:\n      mload(0x40)\n      tag_16\n      swap2\n      swap1\n      tag_17\n      jump\t// in\n    tag_16:\n      mload(0x40)\n      dup1\n      swap2\n      sub\n      swap1\n      return\n        /* \"Users/drewhyte/Sites/BLOCKCHAIN/klay-oracle/contracts/v0.0.5/Oracle.sol\":165:188  string public adapterId */\n    tag_5:\n      tag_18\n      tag_19\n      jump\t// in\n    tag_18:\n      mload(0x40)\n      tag_20\n      swap2\n      swap1\n      tag_21\n      jump\t// in\n    tag_20:\n      mload(0x40)\n      dup1\n      swap2\n      sub\n      swap1\n      return\n        /* \"Users/drewhyte/Sites/BLOCKCHAIN/klay-oracle/contracts/v0.0.5/Oracle.sol\":400:425  Request[] public requests */\n    tag_6:\n      tag_22\n      0x04\n      dup1\n      calldatasize\n      sub\n      dup2\n      add\n      swap1\n      tag_23\n      swap2\n      swap1\n      tag_24\n      jump\t// in\n    tag_23:\n      tag_25\n      jump\t// in\n    tag_22:\n      mload(0x40)\n      tag_26\n      swap7\n      swap6\n      swap5\n      swap4\n      swap3\n      swap2\n      swap1\n      tag_27\n      jump\t// in\n    tag_26:\n      mload(0x40)\n      dup1\n      swap2\n      sub\n      swap1\n      return\n        /* \"Users/drewhyte/Sites/BLOCKCHAIN/klay-oracle/contracts/v0.0.5/Oracle.sol\":1193:1504  function fulfillOracleRequest(... */\n    tag_7:\n      tag_28\n      0x04\n      dup1\n      calldatasize\n      sub\n      dup2\n      add\n      swap1\n      tag_29\n      swap2\n      swap1\n      tag_30\n      jump\t// in\n    tag_29:\n      tag_31\n      jump\t// in\n    tag_28:\n      mload(0x40)\n      tag_32\n      swap2\n      swap1\n      tag_17\n      jump\t// in\n    tag_32:\n      mload(0x40)\n      dup1\n      swap2\n      sub\n      swap1\n      return\n        /* \"Users/drewhyte/Sites/BLOCKCHAIN/klay-oracle/contracts/v0.0.5/Oracle.sol\":132:158  address public nodeAddress */\n    tag_9:\n      0x00\n      dup1\n      sload\n      swap1\n      0x0100\n      exp\n      swap1\n      div\n      0xffffffffffffffffffffffffffffffffffffffff\n      and\n      dup2\n      jump\t// out\n        /* \"Users/drewhyte/Sites/BLOCKCHAIN/klay-oracle/contracts/v0.0.5/Oracle.sol\":652:1187  function newOracleRequest(... */\n    tag_15:\n        /* \"Users/drewhyte/Sites/BLOCKCHAIN/klay-oracle/contracts/v0.0.5/Oracle.sol\":812:816  bool */\n      0x00\n        /* \"Users/drewhyte/Sites/BLOCKCHAIN/klay-oracle/contracts/v0.0.5/Oracle.sol\":828:842  uint requestId */\n      dup1\n        /* \"Users/drewhyte/Sites/BLOCKCHAIN/klay-oracle/contracts/v0.0.5/Oracle.sol\":845:853  requests */\n      0x02\n        /* \"Users/drewhyte/Sites/BLOCKCHAIN/klay-oracle/contracts/v0.0.5/Oracle.sol\":845:860  requests.length */\n      dup1\n      sload\n      swap1\n      pop\n        /* \"Users/drewhyte/Sites/BLOCKCHAIN/klay-oracle/contracts/v0.0.5/Oracle.sol\":828:860  uint requestId = requests.length */\n      swap1\n      pop\n        /* \"Users/drewhyte/Sites/BLOCKCHAIN/klay-oracle/contracts/v0.0.5/Oracle.sol\":871:893  Request memory request */\n      0x00\n        /* \"Users/drewhyte/Sites/BLOCKCHAIN/klay-oracle/contracts/v0.0.5/Oracle.sol\":896:1071  Request(... */\n      mload(0x40)\n      dup1\n      0xc0\n      add\n      0x40\n      mstore\n      dup1\n        /* \"Users/drewhyte/Sites/BLOCKCHAIN/klay-oracle/contracts/v0.0.5/Oracle.sol\":917:926  requestId */\n      dup4\n        /* \"Users/drewhyte/Sites/BLOCKCHAIN/klay-oracle/contracts/v0.0.5/Oracle.sol\":896:1071  Request(... */\n      dup2\n      mstore\n      0x20\n      add\n        /* \"Users/drewhyte/Sites/BLOCKCHAIN/klay-oracle/contracts/v0.0.5/Oracle.sol\":940:951  nodeAddress */\n      0x00\n      dup1\n      sload\n      swap1\n      0x0100\n      exp\n      swap1\n      div\n      0xffffffffffffffffffffffffffffffffffffffff\n      and\n        /* \"Users/drewhyte/Sites/BLOCKCHAIN/klay-oracle/contracts/v0.0.5/Oracle.sol\":896:1071  Request(... */\n      0xffffffffffffffffffffffffffffffffffffffff\n      and\n      dup2\n      mstore\n      0x20\n      add\n        /* \"Users/drewhyte/Sites/BLOCKCHAIN/klay-oracle/contracts/v0.0.5/Oracle.sol\":965:974  adapterID */\n      dup7\n        /* \"Users/drewhyte/Sites/BLOCKCHAIN/klay-oracle/contracts/v0.0.5/Oracle.sol\":896:1071  Request(... */\n      dup2\n      mstore\n      0x20\n      add\n        /* \"Users/drewhyte/Sites/BLOCKCHAIN/klay-oracle/contracts/v0.0.5/Oracle.sol\":988:1006  callbackFunctionId */\n      dup8\n        /* \"Users/drewhyte/Sites/BLOCKCHAIN/klay-oracle/contracts/v0.0.5/Oracle.sol\":896:1071  Request(... */\n      not(0xffffffffffffffffffffffffffffffffffffffffffffffffffffffff)\n      and\n      dup2\n      mstore\n      0x20\n      add\n        /* \"Users/drewhyte/Sites/BLOCKCHAIN/klay-oracle/contracts/v0.0.5/Oracle.sol\":1020:1036  callBackContract */\n      dup6\n        /* \"Users/drewhyte/Sites/BLOCKCHAIN/klay-oracle/contracts/v0.0.5/Oracle.sol\":896:1071  Request(... */\n      0xffffffffffffffffffffffffffffffffffffffff\n      and\n      dup2\n      mstore\n      0x20\n      add\n        /* \"Users/drewhyte/Sites/BLOCKCHAIN/klay-oracle/contracts/v0.0.5/Oracle.sol\":1050:1061  bytes32(\"\") */\n      0x00\n        /* \"Users/drewhyte/Sites/BLOCKCHAIN/klay-oracle/contracts/v0.0.5/Oracle.sol\":896:1071  Request(... */\n      dup1\n      not\n      and\n      dup2\n      mstore\n      pop\n        /* \"Users/drewhyte/Sites/BLOCKCHAIN/klay-oracle/contracts/v0.0.5/Oracle.sol\":871:1071  Request memory request = Request(... */\n      swap1\n      pop\n        /* \"Users/drewhyte/Sites/BLOCKCHAIN/klay-oracle/contracts/v0.0.5/Oracle.sol\":1082:1090  requests */\n      0x02\n        /* \"Users/drewhyte/Sites/BLOCKCHAIN/klay-oracle/contracts/v0.0.5/Oracle.sol\":1096:1103  request */\n      dup2\n        /* \"Users/drewhyte/Sites/BLOCKCHAIN/klay-oracle/contracts/v0.0.5/Oracle.sol\":1082:1104  requests.push(request) */\n      swap1\n      dup1\n      0x01\n      dup2\n      sload\n      add\n      dup1\n      dup3\n      sstore\n      dup1\n      swap2\n      pop\n      pop\n      0x01\n      swap1\n      sub\n      swap1\n      0x00\n      mstore\n      keccak256(0x00, 0x20)\n      swap1\n      0x05\n      mul\n      add\n      0x00\n      swap1\n      swap2\n      swap1\n      swap2\n      swap1\n      swap2\n      pop\n      0x00\n      dup3\n      add\n      mload\n      dup2\n      0x00\n      add\n      sstore\n      0x20\n      dup3\n      add\n      mload\n      dup2\n      0x01\n      add\n      exp(0x0100, 0x00)\n      dup2\n      sload\n      dup2\n      0xffffffffffffffffffffffffffffffffffffffff\n      mul\n      not\n      and\n      swap1\n      dup4\n      0xffffffffffffffffffffffffffffffffffffffff\n      and\n      mul\n      or\n      swap1\n      sstore\n      pop\n      0x40\n      dup3\n      add\n      mload\n      dup2\n      0x02\n      add\n      swap1\n      dup1\n      mload\n      swap1\n      0x20\n      add\n      swap1\n      tag_35\n      swap3\n      swap2\n      swap1\n      tag_36\n      jump\t// in\n    tag_35:\n      pop\n      0x60\n      dup3\n      add\n      mload\n      dup2\n      0x03\n      add\n      exp(0x0100, 0x00)\n      dup2\n      sload\n      dup2\n      0xffffffff\n      mul\n      not\n      and\n      swap1\n      dup4\n      0xe0\n      shr\n      mul\n      or\n      swap1\n      sstore\n      pop\n      0x80\n      dup3\n      add\n      mload\n      dup2\n      0x03\n      add\n      exp(0x0100, 0x04)\n      dup2\n      sload\n      dup2\n      0xffffffffffffffffffffffffffffffffffffffff\n      mul\n      not\n      and\n      swap1\n      dup4\n      0xffffffffffffffffffffffffffffffffffffffff\n      and\n      mul\n      or\n      swap1\n      sstore\n      pop\n      0xa0\n      dup3\n      add\n      mload\n      dup2\n      0x04\n      add\n      sstore\n      pop\n      pop\n        /* \"Users/drewhyte/Sites/BLOCKCHAIN/klay-oracle/contracts/v0.0.5/Oracle.sol\":1148:1157  requestId */\n      dup2\n        /* \"Users/drewhyte/Sites/BLOCKCHAIN/klay-oracle/contracts/v0.0.5/Oracle.sol\":1137:1146  adapterID */\n      dup6\n        /* \"Users/drewhyte/Sites/BLOCKCHAIN/klay-oracle/contracts/v0.0.5/Oracle.sol\":1120:1158  NewOracleRequest(adapterID, requestId) */\n      mload(0x40)\n      tag_37\n      swap2\n      swap1\n      tag_38\n      jump\t// in\n    tag_37:\n      mload(0x40)\n      dup1\n      swap2\n      sub\n      swap1\n      keccak256\n      0x394611a31616be6c6ac9b70c798c776a5d7533f25ad93f61d72db1968d3ec206\n      mload(0x40)\n      mload(0x40)\n      dup1\n      swap2\n      sub\n      swap1\n      log3\n        /* \"Users/drewhyte/Sites/BLOCKCHAIN/klay-oracle/contracts/v0.0.5/Oracle.sol\":1176:1180  true */\n      0x01\n        /* \"Users/drewhyte/Sites/BLOCKCHAIN/klay-oracle/contracts/v0.0.5/Oracle.sol\":1169:1180  return true */\n      swap3\n      pop\n      pop\n      pop\n        /* \"Users/drewhyte/Sites/BLOCKCHAIN/klay-oracle/contracts/v0.0.5/Oracle.sol\":652:1187  function newOracleRequest(... */\n      swap4\n      swap3\n      pop\n      pop\n      pop\n      jump\t// out\n        /* \"Users/drewhyte/Sites/BLOCKCHAIN/klay-oracle/contracts/v0.0.5/Oracle.sol\":165:188  string public adapterId */\n    tag_19:\n      0x01\n      dup1\n      sload\n      tag_39\n      swap1\n      tag_40\n      jump\t// in\n    tag_39:\n      dup1\n      0x1f\n      add\n      0x20\n      dup1\n      swap2\n      div\n      mul\n      0x20\n      add\n      mload(0x40)\n      swap1\n      dup2\n      add\n      0x40\n      mstore\n      dup1\n      swap3\n      swap2\n      swap1\n      dup2\n      dup2\n      mstore\n      0x20\n      add\n      dup3\n      dup1\n      sload\n      tag_41\n      swap1\n      tag_40\n      jump\t// in\n    tag_41:\n      dup1\n      iszero\n      tag_42\n      jumpi\n      dup1\n      0x1f\n      lt\n      tag_43\n      jumpi\n      0x0100\n      dup1\n      dup4\n      sload\n      div\n      mul\n      dup4\n      mstore\n      swap2\n      0x20\n      add\n      swap2\n      jump(tag_42)\n    tag_43:\n      dup3\n      add\n      swap2\n      swap1\n      0x00\n      mstore\n      keccak256(0x00, 0x20)\n      swap1\n    tag_44:\n      dup2\n      sload\n      dup2\n      mstore\n      swap1\n      0x01\n      add\n      swap1\n      0x20\n      add\n      dup1\n      dup4\n      gt\n      tag_44\n      jumpi\n      dup3\n      swap1\n      sub\n      0x1f\n      and\n      dup3\n      add\n      swap2\n    tag_42:\n      pop\n      pop\n      pop\n      pop\n      pop\n      dup2\n      jump\t// out\n        /* \"Users/drewhyte/Sites/BLOCKCHAIN/klay-oracle/contracts/v0.0.5/Oracle.sol\":400:425  Request[] public requests */\n    tag_25:\n      0x02\n      dup2\n      dup2\n      sload\n      dup2\n      lt\n      tag_45\n      jumpi\n      0x00\n      dup1\n      revert\n    tag_45:\n      swap1\n      0x00\n      mstore\n      keccak256(0x00, 0x20)\n      swap1\n      0x05\n      mul\n      add\n      0x00\n      swap2\n      pop\n      swap1\n      pop\n      dup1\n      0x00\n      add\n      sload\n      swap1\n      dup1\n      0x01\n      add\n      0x00\n      swap1\n      sload\n      swap1\n      0x0100\n      exp\n      swap1\n      div\n      0xffffffffffffffffffffffffffffffffffffffff\n      and\n      swap1\n      dup1\n      0x02\n      add\n      dup1\n      sload\n      tag_47\n      swap1\n      tag_40\n      jump\t// in\n    tag_47:\n      dup1\n      0x1f\n      add\n      0x20\n      dup1\n      swap2\n      div\n      mul\n      0x20\n      add\n      mload(0x40)\n      swap1\n      dup2\n      add\n      0x40\n      mstore\n      dup1\n      swap3\n      swap2\n      swap1\n      dup2\n      dup2\n      mstore\n      0x20\n      add\n      dup3\n      dup1\n      sload\n      tag_48\n      swap1\n      tag_40\n      jump\t// in\n    tag_48:\n      dup1\n      iszero\n      tag_49\n      jumpi\n      dup1\n      0x1f\n      lt\n      tag_50\n      jumpi\n      0x0100\n      dup1\n      dup4\n      sload\n      div\n      mul\n      dup4\n      mstore\n      swap2\n      0x20\n      add\n      swap2\n      jump(tag_49)\n    tag_50:\n      dup3\n      add\n      swap2\n      swap1\n      0x00\n      mstore\n      keccak256(0x00, 0x20)\n      swap1\n    tag_51:\n      dup2\n      sload\n      dup2\n      mstore\n      swap1\n      0x01\n      add\n      swap1\n      0x20\n      add\n      dup1\n      dup4\n      gt\n      tag_51\n      jumpi\n      dup3\n      swap1\n      sub\n      0x1f\n      and\n      dup3\n      add\n      swap2\n    tag_49:\n      pop\n      pop\n      pop\n      pop\n      pop\n      swap1\n      dup1\n      0x03\n      add\n      0x00\n      swap1\n      sload\n      swap1\n      0x0100\n      exp\n      swap1\n      div\n      0xe0\n      shl\n      swap1\n      dup1\n      0x03\n      add\n      0x04\n      swap1\n      sload\n      swap1\n      0x0100\n      exp\n      swap1\n      div\n      0xffffffffffffffffffffffffffffffffffffffff\n      and\n      swap1\n      dup1\n      0x04\n      add\n      sload\n      swap1\n      pop\n      dup7\n      jump\t// out\n        /* \"Users/drewhyte/Sites/BLOCKCHAIN/klay-oracle/contracts/v0.0.5/Oracle.sol\":1193:1504  function fulfillOracleRequest(... */\n    tag_31:\n        /* \"Users/drewhyte/Sites/BLOCKCHAIN/klay-oracle/contracts/v0.0.5/Oracle.sol\":1301:1305  bool */\n      0x00\n        /* \"Users/drewhyte/Sites/BLOCKCHAIN/klay-oracle/contracts/v0.0.5/Oracle.sol\":1318:1340  Request memory request */\n      dup1\n        /* \"Users/drewhyte/Sites/BLOCKCHAIN/klay-oracle/contracts/v0.0.5/Oracle.sol\":1343:1351  requests */\n      0x02\n        /* \"Users/drewhyte/Sites/BLOCKCHAIN/klay-oracle/contracts/v0.0.5/Oracle.sol\":1352:1361  requestId */\n      dup5\n        /* \"Users/drewhyte/Sites/BLOCKCHAIN/klay-oracle/contracts/v0.0.5/Oracle.sol\":1343:1362  requests[requestId] */\n      dup2\n      sload\n      dup2\n      lt\n      tag_53\n      jumpi\n      tag_54\n      tag_55\n      jump\t// in\n    tag_54:\n    tag_53:\n      swap1\n      0x00\n      mstore\n      keccak256(0x00, 0x20)\n      swap1\n      0x05\n      mul\n      add\n        /* \"Users/drewhyte/Sites/BLOCKCHAIN/klay-oracle/contracts/v0.0.5/Oracle.sol\":1318:1362  Request memory request = requests[requestId] */\n      mload(0x40)\n      dup1\n      0xc0\n      add\n      0x40\n      mstore\n      swap1\n      dup2\n      0x00\n      dup3\n      add\n      sload\n      dup2\n      mstore\n      0x20\n      add\n      0x01\n      dup3\n      add\n      0x00\n      swap1\n      sload\n      swap1\n      0x0100\n      exp\n      swap1\n      div\n      0xffffffffffffffffffffffffffffffffffffffff\n      and\n      0xffffffffffffffffffffffffffffffffffffffff\n      and\n      0xffffffffffffffffffffffffffffffffffffffff\n      and\n      dup2\n      mstore\n      0x20\n      add\n      0x02\n      dup3\n      add\n      dup1\n      sload\n      tag_57\n      swap1\n      tag_40\n      jump\t// in\n    tag_57:\n      dup1\n      0x1f\n      add\n      0x20\n      dup1\n      swap2\n      div\n      mul\n      0x20\n      add\n      mload(0x40)\n      swap1\n      dup2\n      add\n      0x40\n      mstore\n      dup1\n      swap3\n      swap2\n      swap1\n      dup2\n      dup2\n      mstore\n      0x20\n      add\n      dup3\n      dup1\n      sload\n      tag_58\n      swap1\n      tag_40\n      jump\t// in\n    tag_58:\n      dup1\n      iszero\n      tag_59\n      jumpi\n      dup1\n      0x1f\n      lt\n      tag_60\n      jumpi\n      0x0100\n      dup1\n      dup4\n      sload\n      div\n      mul\n      dup4\n      mstore\n      swap2\n      0x20\n      add\n      swap2\n      jump(tag_59)\n    tag_60:\n      dup3\n      add\n      swap2\n      swap1\n      0x00\n      mstore\n      keccak256(0x00, 0x20)\n      swap1\n    tag_61:\n      dup2\n      sload\n      dup2\n      mstore\n      swap1\n      0x01\n      add\n      swap1\n      0x20\n      add\n      dup1\n      dup4\n      gt\n      tag_61\n      jumpi\n      dup3\n      swap1\n      sub\n      0x1f\n      and\n      dup3\n      add\n      swap2\n    tag_59:\n      pop\n      pop\n      pop\n      pop\n      pop\n      dup2\n      mstore\n      0x20\n      add\n      0x03\n      dup3\n      add\n      0x00\n      swap1\n      sload\n      swap1\n      0x0100\n      exp\n      swap1\n      div\n      0xe0\n      shl\n      not(0xffffffffffffffffffffffffffffffffffffffffffffffffffffffff)\n      and\n      not(0xffffffffffffffffffffffffffffffffffffffffffffffffffffffff)\n      and\n      dup2\n      mstore\n      0x20\n      add\n      0x03\n      dup3\n      add\n      0x04\n      swap1\n      sload\n      swap1\n      0x0100\n      exp\n      swap1\n      div\n      0xffffffffffffffffffffffffffffffffffffffff\n      and\n      0xffffffffffffffffffffffffffffffffffffffff\n      and\n      0xffffffffffffffffffffffffffffffffffffffff\n      and\n      dup2\n      mstore\n      0x20\n      add\n      0x04\n      dup3\n      add\n      sload\n      dup2\n      mstore\n      pop\n      pop\n      swap1\n      pop\n        /* \"Users/drewhyte/Sites/BLOCKCHAIN/klay-oracle/contracts/v0.0.5/Oracle.sol\":1373:1385  bool success */\n      0x00\n        /* \"Users/drewhyte/Sites/BLOCKCHAIN/klay-oracle/contracts/v0.0.5/Oracle.sol\":1391:1398  request */\n      dup2\n        /* \"Users/drewhyte/Sites/BLOCKCHAIN/klay-oracle/contracts/v0.0.5/Oracle.sol\":1391:1415  request.callBackContract */\n      0x80\n      add\n      mload\n        /* \"Users/drewhyte/Sites/BLOCKCHAIN/klay-oracle/contracts/v0.0.5/Oracle.sol\":1391:1420  request.callBackContract.call */\n      0xffffffffffffffffffffffffffffffffffffffff\n      and\n        /* \"Users/drewhyte/Sites/BLOCKCHAIN/klay-oracle/contracts/v0.0.5/Oracle.sol\":1438:1445  request */\n      dup3\n        /* \"Users/drewhyte/Sites/BLOCKCHAIN/klay-oracle/contracts/v0.0.5/Oracle.sol\":1438:1464  request.callbackFunctionId */\n      0x60\n      add\n      mload\n        /* \"Users/drewhyte/Sites/BLOCKCHAIN/klay-oracle/contracts/v0.0.5/Oracle.sol\":1466:1470  data */\n      dup6\n        /* \"Users/drewhyte/Sites/BLOCKCHAIN/klay-oracle/contracts/v0.0.5/Oracle.sol\":1421:1471  abi.encodePacked(request.callbackFunctionId, data) */\n      add(0x20, mload(0x40))\n      tag_62\n      swap3\n      swap2\n      swap1\n      tag_63\n      jump\t// in\n    tag_62:\n      mload(0x40)\n      0x20\n      dup2\n      dup4\n      sub\n      sub\n      dup2\n      mstore\n      swap1\n      0x40\n      mstore\n        /* \"Users/drewhyte/Sites/BLOCKCHAIN/klay-oracle/contracts/v0.0.5/Oracle.sol\":1391:1472  request.callBackContract.call(abi.encodePacked(request.callbackFunctionId, data)) */\n      mload(0x40)\n      tag_64\n      swap2\n      swap1\n      tag_65\n      jump\t// in\n    tag_64:\n      0x00\n      mload(0x40)\n      dup1\n      dup4\n      sub\n      dup2\n      0x00\n      dup7\n      gas\n      call\n      swap2\n      pop\n      pop\n      returndatasize\n      dup1\n      0x00\n      dup2\n      eq\n      tag_68\n      jumpi\n      mload(0x40)\n      swap2\n      pop\n      and(add(returndatasize, 0x3f), not(0x1f))\n      dup3\n      add\n      0x40\n      mstore\n      returndatasize\n      dup3\n      mstore\n      returndatasize\n      0x00\n      0x20\n      dup5\n      add\n      returndatacopy\n      jump(tag_67)\n    tag_68:\n      0x60\n      swap2\n      pop\n    tag_67:\n      pop\n        /* \"Users/drewhyte/Sites/BLOCKCHAIN/klay-oracle/contracts/v0.0.5/Oracle.sol\":1372:1472  (bool success, ) = request.callBackContract.call(abi.encodePacked(request.callbackFunctionId, data)) */\n      pop\n      swap1\n      pop\n        /* \"Users/drewhyte/Sites/BLOCKCHAIN/klay-oracle/contracts/v0.0.5/Oracle.sol\":1490:1497  success */\n      dup1\n        /* \"Users/drewhyte/Sites/BLOCKCHAIN/klay-oracle/contracts/v0.0.5/Oracle.sol\":1483:1497  return success */\n      swap3\n      pop\n      pop\n      pop\n        /* \"Users/drewhyte/Sites/BLOCKCHAIN/klay-oracle/contracts/v0.0.5/Oracle.sol\":1193:1504  function fulfillOracleRequest(... */\n      swap3\n      swap2\n      pop\n      pop\n      jump\t// out\n    tag_36:\n      dup3\n      dup1\n      sload\n      tag_69\n      swap1\n      tag_40\n      jump\t// in\n    tag_69:\n      swap1\n      0x00\n      mstore\n      keccak256(0x00, 0x20)\n      swap1\n      0x1f\n      add\n      0x20\n      swap1\n      div\n      dup2\n      add\n      swap3\n      dup3\n      tag_71\n      jumpi\n      0x00\n      dup6\n      sstore\n      jump(tag_70)\n    tag_71:\n      dup3\n      0x1f\n      lt\n      tag_72\n      jumpi\n      dup1\n      mload\n      not(0xff)\n      and\n      dup4\n      dup1\n      add\n      or\n      dup6\n      sstore\n      jump(tag_70)\n    tag_72:\n      dup3\n      dup1\n      add\n      0x01\n      add\n      dup6\n      sstore\n      dup3\n      iszero\n      tag_70\n      jumpi\n      swap2\n      dup3\n      add\n    tag_73:\n      dup3\n      dup2\n      gt\n      iszero\n      tag_74\n      jumpi\n      dup3\n      mload\n      dup3\n      sstore\n      swap2\n      0x20\n      add\n      swap2\n      swap1\n      0x01\n      add\n      swap1\n      jump(tag_73)\n    tag_74:\n    tag_70:\n      pop\n      swap1\n      pop\n      tag_75\n      swap2\n      swap1\n      tag_76\n      jump\t// in\n    tag_75:\n      pop\n      swap1\n      jump\t// out\n    tag_76:\n    tag_77:\n      dup1\n      dup3\n      gt\n      iszero\n      tag_78\n      jumpi\n      0x00\n      dup2\n      0x00\n      swap1\n      sstore\n      pop\n      0x01\n      add\n      jump(tag_77)\n    tag_78:\n      pop\n      swap1\n      jump\t// out\n        /* \"#utility.yul\":7:419   */\n    tag_80:\n        /* \"#utility.yul\":85:90   */\n      0x00\n        /* \"#utility.yul\":110:176   */\n      tag_82\n        /* \"#utility.yul\":126:175   */\n      tag_83\n        /* \"#utility.yul\":168:174   */\n      dup5\n        /* \"#utility.yul\":126:175   */\n      tag_84\n      jump\t// in\n    tag_83:\n        /* \"#utility.yul\":110:176   */\n      tag_85\n      jump\t// in\n    tag_82:\n        /* \"#utility.yul\":101:176   */\n      swap1\n      pop\n        /* \"#utility.yul\":199:205   */\n      dup3\n        /* \"#utility.yul\":192:197   */\n      dup2\n        /* \"#utility.yul\":185:206   */\n      mstore\n        /* \"#utility.yul\":237:241   */\n      0x20\n        /* \"#utility.yul\":230:235   */\n      dup2\n        /* \"#utility.yul\":226:242   */\n      add\n        /* \"#utility.yul\":275:278   */\n      dup5\n        /* \"#utility.yul\":266:272   */\n      dup5\n        /* \"#utility.yul\":261:264   */\n      dup5\n        /* \"#utility.yul\":257:273   */\n      add\n        /* \"#utility.yul\":254:279   */\n      gt\n        /* \"#utility.yul\":251:363   */\n      iszero\n      tag_86\n      jumpi\n        /* \"#utility.yul\":282:361   */\n      tag_87\n      tag_88\n      jump\t// in\n    tag_87:\n        /* \"#utility.yul\":251:363   */\n    tag_86:\n        /* \"#utility.yul\":372:413   */\n      tag_89\n        /* \"#utility.yul\":406:412   */\n      dup5\n        /* \"#utility.yul\":401:404   */\n      dup3\n        /* \"#utility.yul\":396:399   */\n      dup6\n        /* \"#utility.yul\":372:413   */\n      tag_90\n      jump\t// in\n    tag_89:\n        /* \"#utility.yul\":91:419   */\n      pop\n        /* \"#utility.yul\":7:419   */\n      swap4\n      swap3\n      pop\n      pop\n      pop\n      jump\t// out\n        /* \"#utility.yul\":425:564   */\n    tag_91:\n        /* \"#utility.yul\":471:476   */\n      0x00\n        /* \"#utility.yul\":509:515   */\n      dup2\n        /* \"#utility.yul\":496:516   */\n      calldataload\n        /* \"#utility.yul\":487:516   */\n      swap1\n      pop\n        /* \"#utility.yul\":525:558   */\n      tag_93\n        /* \"#utility.yul\":552:557   */\n      dup2\n        /* \"#utility.yul\":525:558   */\n      tag_94\n      jump\t// in\n    tag_93:\n        /* \"#utility.yul\":425:564   */\n      swap3\n      swap2\n      pop\n      pop\n      jump\t// out\n        /* \"#utility.yul\":570:709   */\n    tag_95:\n        /* \"#utility.yul\":616:621   */\n      0x00\n        /* \"#utility.yul\":654:660   */\n      dup2\n        /* \"#utility.yul\":641:661   */\n      calldataload\n        /* \"#utility.yul\":632:661   */\n      swap1\n      pop\n        /* \"#utility.yul\":670:703   */\n      tag_97\n        /* \"#utility.yul\":697:702   */\n      dup2\n        /* \"#utility.yul\":670:703   */\n      tag_98\n      jump\t// in\n    tag_97:\n        /* \"#utility.yul\":570:709   */\n      swap3\n      swap2\n      pop\n      pop\n      jump\t// out\n        /* \"#utility.yul\":715:852   */\n    tag_99:\n        /* \"#utility.yul\":760:765   */\n      0x00\n        /* \"#utility.yul\":798:804   */\n      dup2\n        /* \"#utility.yul\":785:805   */\n      calldataload\n        /* \"#utility.yul\":776:805   */\n      swap1\n      pop\n        /* \"#utility.yul\":814:846   */\n      tag_101\n        /* \"#utility.yul\":840:845   */\n      dup2\n        /* \"#utility.yul\":814:846   */\n      tag_102\n      jump\t// in\n    tag_101:\n        /* \"#utility.yul\":715:852   */\n      swap3\n      swap2\n      pop\n      pop\n      jump\t// out\n        /* \"#utility.yul\":872:1212   */\n    tag_103:\n        /* \"#utility.yul\":928:933   */\n      0x00\n        /* \"#utility.yul\":977:980   */\n      dup3\n        /* \"#utility.yul\":970:974   */\n      0x1f\n        /* \"#utility.yul\":962:968   */\n      dup4\n        /* \"#utility.yul\":958:975   */\n      add\n        /* \"#utility.yul\":954:981   */\n      slt\n        /* \"#utility.yul\":944:1066   */\n      tag_105\n      jumpi\n        /* \"#utility.yul\":985:1064   */\n      tag_106\n      tag_107\n      jump\t// in\n    tag_106:\n        /* \"#utility.yul\":944:1066   */\n    tag_105:\n        /* \"#utility.yul\":1102:1108   */\n      dup2\n        /* \"#utility.yul\":1089:1109   */\n      calldataload\n        /* \"#utility.yul\":1127:1206   */\n      tag_108\n        /* \"#utility.yul\":1202:1205   */\n      dup5\n        /* \"#utility.yul\":1194:1200   */\n      dup3\n        /* \"#utility.yul\":1187:1191   */\n      0x20\n        /* \"#utility.yul\":1179:1185   */\n      dup7\n        /* \"#utility.yul\":1175:1192   */\n      add\n        /* \"#utility.yul\":1127:1206   */\n      tag_80\n      jump\t// in\n    tag_108:\n        /* \"#utility.yul\":1118:1206   */\n      swap2\n      pop\n        /* \"#utility.yul\":934:1212   */\n      pop\n        /* \"#utility.yul\":872:1212   */\n      swap3\n      swap2\n      pop\n      pop\n      jump\t// out\n        /* \"#utility.yul\":1218:1357   */\n    tag_109:\n        /* \"#utility.yul\":1264:1269   */\n      0x00\n        /* \"#utility.yul\":1302:1308   */\n      dup2\n        /* \"#utility.yul\":1289:1309   */\n      calldataload\n        /* \"#utility.yul\":1280:1309   */\n      swap1\n      pop\n        /* \"#utility.yul\":1318:1351   */\n      tag_111\n        /* \"#utility.yul\":1345:1350   */\n      dup2\n        /* \"#utility.yul\":1318:1351   */\n      tag_112\n      jump\t// in\n    tag_111:\n        /* \"#utility.yul\":1218:1357   */\n      swap3\n      swap2\n      pop\n      pop\n      jump\t// out\n        /* \"#utility.yul\":1363:2160   */\n    tag_14:\n        /* \"#utility.yul\":1449:1455   */\n      0x00\n        /* \"#utility.yul\":1457:1463   */\n      dup1\n        /* \"#utility.yul\":1465:1471   */\n      0x00\n        /* \"#utility.yul\":1514:1516   */\n      0x60\n        /* \"#utility.yul\":1502:1511   */\n      dup5\n        /* \"#utility.yul\":1493:1500   */\n      dup7\n        /* \"#utility.yul\":1489:1512   */\n      sub\n        /* \"#utility.yul\":1485:1517   */\n      slt\n        /* \"#utility.yul\":1482:1601   */\n      iszero\n      tag_114\n      jumpi\n        /* \"#utility.yul\":1520:1599   */\n      tag_115\n      tag_116\n      jump\t// in\n    tag_115:\n        /* \"#utility.yul\":1482:1601   */\n    tag_114:\n        /* \"#utility.yul\":1640:1641   */\n      0x00\n        /* \"#utility.yul\":1665:1717   */\n      tag_117\n        /* \"#utility.yul\":1709:1716   */\n      dup7\n        /* \"#utility.yul\":1700:1706   */\n      dup3\n        /* \"#utility.yul\":1689:1698   */\n      dup8\n        /* \"#utility.yul\":1685:1707   */\n      add\n        /* \"#utility.yul\":1665:1717   */\n      tag_99\n      jump\t// in\n    tag_117:\n        /* \"#utility.yul\":1655:1717   */\n      swap4\n      pop\n        /* \"#utility.yul\":1611:1727   */\n      pop\n        /* \"#utility.yul\":1794:1796   */\n      0x20\n        /* \"#utility.yul\":1783:1792   */\n      dup5\n        /* \"#utility.yul\":1779:1797   */\n      add\n        /* \"#utility.yul\":1766:1798   */\n      calldataload\n        /* \"#utility.yul\":1825:1843   */\n      0xffffffffffffffff\n        /* \"#utility.yul\":1817:1823   */\n      dup2\n        /* \"#utility.yul\":1814:1844   */\n      gt\n        /* \"#utility.yul\":1811:1928   */\n      iszero\n      tag_118\n      jumpi\n        /* \"#utility.yul\":1847:1926   */\n      tag_119\n      tag_120\n      jump\t// in\n    tag_119:\n        /* \"#utility.yul\":1811:1928   */\n    tag_118:\n        /* \"#utility.yul\":1952:2015   */\n      tag_121\n        /* \"#utility.yul\":2007:2014   */\n      dup7\n        /* \"#utility.yul\":1998:2004   */\n      dup3\n        /* \"#utility.yul\":1987:1996   */\n      dup8\n        /* \"#utility.yul\":1983:2005   */\n      add\n        /* \"#utility.yul\":1952:2015   */\n      tag_103\n      jump\t// in\n    tag_121:\n        /* \"#utility.yul\":1942:2015   */\n      swap3\n      pop\n        /* \"#utility.yul\":1737:2025   */\n      pop\n        /* \"#utility.yul\":2064:2066   */\n      0x40\n        /* \"#utility.yul\":2090:2143   */\n      tag_122\n        /* \"#utility.yul\":2135:2142   */\n      dup7\n        /* \"#utility.yul\":2126:2132   */\n      dup3\n        /* \"#utility.yul\":2115:2124   */\n      dup8\n        /* \"#utility.yul\":2111:2133   */\n      add\n        /* \"#utility.yul\":2090:2143   */\n      tag_91\n      jump\t// in\n    tag_122:\n        /* \"#utility.yul\":2080:2143   */\n      swap2\n      pop\n        /* \"#utility.yul\":2035:2153   */\n      pop\n        /* \"#utility.yul\":1363:2160   */\n      swap3\n      pop\n      swap3\n      pop\n      swap3\n      jump\t// out\n        /* \"#utility.yul\":2166:2495   */\n    tag_24:\n        /* \"#utility.yul\":2225:2231   */\n      0x00\n        /* \"#utility.yul\":2274:2276   */\n      0x20\n        /* \"#utility.yul\":2262:2271   */\n      dup3\n        /* \"#utility.yul\":2253:2260   */\n      dup5\n        /* \"#utility.yul\":2249:2272   */\n      sub\n        /* \"#utility.yul\":2245:2277   */\n      slt\n        /* \"#utility.yul\":2242:2361   */\n      iszero\n      tag_124\n      jumpi\n        /* \"#utility.yul\":2280:2359   */\n      tag_125\n      tag_116\n      jump\t// in\n    tag_125:\n        /* \"#utility.yul\":2242:2361   */\n    tag_124:\n        /* \"#utility.yul\":2400:2401   */\n      0x00\n        /* \"#utility.yul\":2425:2478   */\n      tag_126\n        /* \"#utility.yul\":2470:2477   */\n      dup5\n        /* \"#utility.yul\":2461:2467   */\n      dup3\n        /* \"#utility.yul\":2450:2459   */\n      dup6\n        /* \"#utility.yul\":2446:2468   */\n      add\n        /* \"#utility.yul\":2425:2478   */\n      tag_109\n      jump\t// in\n    tag_126:\n        /* \"#utility.yul\":2415:2478   */\n      swap2\n      pop\n        /* \"#utility.yul\":2371:2488   */\n      pop\n        /* \"#utility.yul\":2166:2495   */\n      swap3\n      swap2\n      pop\n      pop\n      jump\t// out\n        /* \"#utility.yul\":2501:2975   */\n    tag_30:\n        /* \"#utility.yul\":2569:2575   */\n      0x00\n        /* \"#utility.yul\":2577:2583   */\n      dup1\n        /* \"#utility.yul\":2626:2628   */\n      0x40\n        /* \"#utility.yul\":2614:2623   */\n      dup4\n        /* \"#utility.yul\":2605:2612   */\n      dup6\n        /* \"#utility.yul\":2601:2624   */\n      sub\n        /* \"#utility.yul\":2597:2629   */\n      slt\n        /* \"#utility.yul\":2594:2713   */\n      iszero\n      tag_128\n      jumpi\n        /* \"#utility.yul\":2632:2711   */\n      tag_129\n      tag_116\n      jump\t// in\n    tag_129:\n        /* \"#utility.yul\":2594:2713   */\n    tag_128:\n        /* \"#utility.yul\":2752:2753   */\n      0x00\n        /* \"#utility.yul\":2777:2830   */\n      tag_130\n        /* \"#utility.yul\":2822:2829   */\n      dup6\n        /* \"#utility.yul\":2813:2819   */\n      dup3\n        /* \"#utility.yul\":2802:2811   */\n      dup7\n        /* \"#utility.yul\":2798:2820   */\n      add\n        /* \"#utility.yul\":2777:2830   */\n      tag_109\n      jump\t// in\n    tag_130:\n        /* \"#utility.yul\":2767:2830   */\n      swap3\n      pop\n        /* \"#utility.yul\":2723:2840   */\n      pop\n        /* \"#utility.yul\":2879:2881   */\n      0x20\n        /* \"#utility.yul\":2905:2958   */\n      tag_131\n        /* \"#utility.yul\":2950:2957   */\n      dup6\n        /* \"#utility.yul\":2941:2947   */\n      dup3\n        /* \"#utility.yul\":2930:2939   */\n      dup7\n        /* \"#utility.yul\":2926:2948   */\n      add\n        /* \"#utility.yul\":2905:2958   */\n      tag_95\n      jump\t// in\n    tag_131:\n        /* \"#utility.yul\":2895:2958   */\n      swap2\n      pop\n        /* \"#utility.yul\":2850:2968   */\n      pop\n        /* \"#utility.yul\":2501:2975   */\n      swap3\n      pop\n      swap3\n      swap1\n      pop\n      jump\t// out\n        /* \"#utility.yul\":2981:3099   */\n    tag_132:\n        /* \"#utility.yul\":3068:3092   */\n      tag_134\n        /* \"#utility.yul\":3086:3091   */\n      dup2\n        /* \"#utility.yul\":3068:3092   */\n      tag_135\n      jump\t// in\n    tag_134:\n        /* \"#utility.yul\":3063:3066   */\n      dup3\n        /* \"#utility.yul\":3056:3093   */\n      mstore\n        /* \"#utility.yul\":2981:3099   */\n      pop\n      pop\n      jump\t// out\n        /* \"#utility.yul\":3105:3214   */\n    tag_136:\n        /* \"#utility.yul\":3186:3207   */\n      tag_138\n        /* \"#utility.yul\":3201:3206   */\n      dup2\n        /* \"#utility.yul\":3186:3207   */\n      tag_139\n      jump\t// in\n    tag_138:\n        /* \"#utility.yul\":3181:3184   */\n      dup3\n        /* \"#utility.yul\":3174:3208   */\n      mstore\n        /* \"#utility.yul\":3105:3214   */\n      pop\n      pop\n      jump\t// out\n        /* \"#utility.yul\":3220:3338   */\n    tag_140:\n        /* \"#utility.yul\":3307:3331   */\n      tag_142\n        /* \"#utility.yul\":3325:3330   */\n      dup2\n        /* \"#utility.yul\":3307:3331   */\n      tag_143\n      jump\t// in\n    tag_142:\n        /* \"#utility.yul\":3302:3305   */\n      dup3\n        /* \"#utility.yul\":3295:3332   */\n      mstore\n        /* \"#utility.yul\":3220:3338   */\n      pop\n      pop\n      jump\t// out\n        /* \"#utility.yul\":3344:3501   */\n    tag_144:\n        /* \"#utility.yul\":3449:3494   */\n      tag_146\n        /* \"#utility.yul\":3469:3493   */\n      tag_147\n        /* \"#utility.yul\":3487:3492   */\n      dup3\n        /* \"#utility.yul\":3469:3493   */\n      tag_143\n      jump\t// in\n    tag_147:\n        /* \"#utility.yul\":3449:3494   */\n      tag_148\n      jump\t// in\n    tag_146:\n        /* \"#utility.yul\":3444:3447   */\n      dup3\n        /* \"#utility.yul\":3437:3495   */\n      mstore\n        /* \"#utility.yul\":3344:3501   */\n      pop\n      pop\n      jump\t// out\n        /* \"#utility.yul\":3507:3622   */\n    tag_149:\n        /* \"#utility.yul\":3592:3615   */\n      tag_151\n        /* \"#utility.yul\":3609:3614   */\n      dup2\n        /* \"#utility.yul\":3592:3615   */\n      tag_152\n      jump\t// in\n    tag_151:\n        /* \"#utility.yul\":3587:3590   */\n      dup3\n        /* \"#utility.yul\":3580:3616   */\n      mstore\n        /* \"#utility.yul\":3507:3622   */\n      pop\n      pop\n      jump\t// out\n        /* \"#utility.yul\":3628:3781   */\n    tag_153:\n        /* \"#utility.yul\":3731:3774   */\n      tag_155\n        /* \"#utility.yul\":3750:3773   */\n      tag_156\n        /* \"#utility.yul\":3767:3772   */\n      dup3\n        /* \"#utility.yul\":3750:3773   */\n      tag_152\n      jump\t// in\n    tag_156:\n        /* \"#utility.yul\":3731:3774   */\n      tag_157\n      jump\t// in\n    tag_155:\n        /* \"#utility.yul\":3726:3729   */\n      dup3\n        /* \"#utility.yul\":3719:3775   */\n      mstore\n        /* \"#utility.yul\":3628:3781   */\n      pop\n      pop\n      jump\t// out\n        /* \"#utility.yul\":3787:4160   */\n    tag_158:\n        /* \"#utility.yul\":3891:3894   */\n      0x00\n        /* \"#utility.yul\":3919:3957   */\n      tag_160\n        /* \"#utility.yul\":3951:3956   */\n      dup3\n        /* \"#utility.yul\":3919:3957   */\n      tag_161\n      jump\t// in\n    tag_160:\n        /* \"#utility.yul\":3973:4061   */\n      tag_162\n        /* \"#utility.yul\":4054:4060   */\n      dup2\n        /* \"#utility.yul\":4049:4052   */\n      dup6\n        /* \"#utility.yul\":3973:4061   */\n      tag_163\n      jump\t// in\n    tag_162:\n        /* \"#utility.yul\":3966:4061   */\n      swap4\n      pop\n        /* \"#utility.yul\":4070:4122   */\n      tag_164\n        /* \"#utility.yul\":4115:4121   */\n      dup2\n        /* \"#utility.yul\":4110:4113   */\n      dup6\n        /* \"#utility.yul\":4103:4107   */\n      0x20\n        /* \"#utility.yul\":4096:4101   */\n      dup7\n        /* \"#utility.yul\":4092:4108   */\n      add\n        /* \"#utility.yul\":4070:4122   */\n      tag_165\n      jump\t// in\n    tag_164:\n        /* \"#utility.yul\":4147:4153   */\n      dup1\n        /* \"#utility.yul\":4142:4145   */\n      dup5\n        /* \"#utility.yul\":4138:4154   */\n      add\n        /* \"#utility.yul\":4131:4154   */\n      swap2\n      pop\n        /* \"#utility.yul\":3895:4160   */\n      pop\n        /* \"#utility.yul\":3787:4160   */\n      swap3\n      swap2\n      pop\n      pop\n      jump\t// out\n        /* \"#utility.yul\":4166:4530   */\n    tag_166:\n        /* \"#utility.yul\":4254:4257   */\n      0x00\n        /* \"#utility.yul\":4282:4321   */\n      tag_168\n        /* \"#utility.yul\":4315:4320   */\n      dup3\n        /* \"#utility.yul\":4282:4321   */\n      tag_169\n      jump\t// in\n    tag_168:\n        /* \"#utility.yul\":4337:4408   */\n      tag_170\n        /* \"#utility.yul\":4401:4407   */\n      dup2\n        /* \"#utility.yul\":4396:4399   */\n      dup6\n        /* \"#utility.yul\":4337:4408   */\n      tag_171\n      jump\t// in\n    tag_170:\n        /* \"#utility.yul\":4330:4408   */\n      swap4\n      pop\n        /* \"#utility.yul\":4417:4469   */\n      tag_172\n        /* \"#utility.yul\":4462:4468   */\n      dup2\n        /* \"#utility.yul\":4457:4460   */\n      dup6\n        /* \"#utility.yul\":4450:4454   */\n      0x20\n        /* \"#utility.yul\":4443:4448   */\n      dup7\n        /* \"#utility.yul\":4439:4455   */\n      add\n        /* \"#utility.yul\":4417:4469   */\n      tag_165\n      jump\t// in\n    tag_172:\n        /* \"#utility.yul\":4494:4523   */\n      tag_173\n        /* \"#utility.yul\":4516:4522   */\n      dup2\n        /* \"#utility.yul\":4494:4523   */\n      tag_174\n      jump\t// in\n    tag_173:\n        /* \"#utility.yul\":4489:4492   */\n      dup5\n        /* \"#utility.yul\":4485:4524   */\n      add\n        /* \"#utility.yul\":4478:4524   */\n      swap2\n      pop\n        /* \"#utility.yul\":4258:4530   */\n      pop\n        /* \"#utility.yul\":4166:4530   */\n      swap3\n      swap2\n      pop\n      pop\n      jump\t// out\n        /* \"#utility.yul\":4536:4913   */\n    tag_175:\n        /* \"#utility.yul\":4642:4645   */\n      0x00\n        /* \"#utility.yul\":4670:4709   */\n      tag_177\n        /* \"#utility.yul\":4703:4708   */\n      dup3\n        /* \"#utility.yul\":4670:4709   */\n      tag_169\n      jump\t// in\n    tag_177:\n        /* \"#utility.yul\":4725:4814   */\n      tag_178\n        /* \"#utility.yul\":4807:4813   */\n      dup2\n        /* \"#utility.yul\":4802:4805   */\n      dup6\n        /* \"#utility.yul\":4725:4814   */\n      tag_179\n      jump\t// in\n    tag_178:\n        /* \"#utility.yul\":4718:4814   */\n      swap4\n      pop\n        /* \"#utility.yul\":4823:4875   */\n      tag_180\n        /* \"#utility.yul\":4868:4874   */\n      dup2\n        /* \"#utility.yul\":4863:4866   */\n      dup6\n        /* \"#utility.yul\":4856:4860   */\n      0x20\n        /* \"#utility.yul\":4849:4854   */\n      dup7\n        /* \"#utility.yul\":4845:4861   */\n      add\n        /* \"#utility.yul\":4823:4875   */\n      tag_165\n      jump\t// in\n    tag_180:\n        /* \"#utility.yul\":4900:4906   */\n      dup1\n        /* \"#utility.yul\":4895:4898   */\n      dup5\n        /* \"#utility.yul\":4891:4907   */\n      add\n        /* \"#utility.yul\":4884:4907   */\n      swap2\n      pop\n        /* \"#utility.yul\":4646:4913   */\n      pop\n        /* \"#utility.yul\":4536:4913   */\n      swap3\n      swap2\n      pop\n      pop\n      jump\t// out\n        /* \"#utility.yul\":4919:5037   */\n    tag_181:\n        /* \"#utility.yul\":5006:5030   */\n      tag_183\n        /* \"#utility.yul\":5024:5029   */\n      dup2\n        /* \"#utility.yul\":5006:5030   */\n      tag_184\n      jump\t// in\n    tag_183:\n        /* \"#utility.yul\":5001:5004   */\n      dup3\n        /* \"#utility.yul\":4994:5031   */\n      mstore\n        /* \"#utility.yul\":4919:5037   */\n      pop\n      pop\n      jump\t// out\n        /* \"#utility.yul\":5043:5435   */\n    tag_63:\n        /* \"#utility.yul\":5181:5184   */\n      0x00\n        /* \"#utility.yul\":5196:5269   */\n      tag_186\n        /* \"#utility.yul\":5265:5268   */\n      dup3\n        /* \"#utility.yul\":5256:5262   */\n      dup6\n        /* \"#utility.yul\":5196:5269   */\n      tag_153\n      jump\t// in\n    tag_186:\n        /* \"#utility.yul\":5294:5295   */\n      0x04\n        /* \"#utility.yul\":5289:5292   */\n      dup3\n        /* \"#utility.yul\":5285:5296   */\n      add\n        /* \"#utility.yul\":5278:5296   */\n      swap2\n      pop\n        /* \"#utility.yul\":5306:5381   */\n      tag_187\n        /* \"#utility.yul\":5377:5380   */\n      dup3\n        /* \"#utility.yul\":5368:5374   */\n      dup5\n        /* \"#utility.yul\":5306:5381   */\n      tag_144\n      jump\t// in\n    tag_187:\n        /* \"#utility.yul\":5406:5408   */\n      0x20\n        /* \"#utility.yul\":5401:5404   */\n      dup3\n        /* \"#utility.yul\":5397:5409   */\n      add\n        /* \"#utility.yul\":5390:5409   */\n      swap2\n      pop\n        /* \"#utility.yul\":5426:5429   */\n      dup2\n        /* \"#utility.yul\":5419:5429   */\n      swap1\n      pop\n        /* \"#utility.yul\":5043:5435   */\n      swap4\n      swap3\n      pop\n      pop\n      pop\n      jump\t// out\n        /* \"#utility.yul\":5441:5712   */\n    tag_65:\n        /* \"#utility.yul\":5571:5574   */\n      0x00\n        /* \"#utility.yul\":5593:5686   */\n      tag_189\n        /* \"#utility.yul\":5682:5685   */\n      dup3\n        /* \"#utility.yul\":5673:5679   */\n      dup5\n        /* \"#utility.yul\":5593:5686   */\n      tag_158\n      jump\t// in\n    tag_189:\n        /* \"#utility.yul\":5586:5686   */\n      swap2\n      pop\n        /* \"#utility.yul\":5703:5706   */\n      dup2\n        /* \"#utility.yul\":5696:5706   */\n      swap1\n      pop\n        /* \"#utility.yul\":5441:5712   */\n      swap3\n      swap2\n      pop\n      pop\n      jump\t// out\n        /* \"#utility.yul\":5718:5993   */\n    tag_38:\n        /* \"#utility.yul\":5850:5853   */\n      0x00\n        /* \"#utility.yul\":5872:5967   */\n      tag_191\n        /* \"#utility.yul\":5963:5966   */\n      dup3\n        /* \"#utility.yul\":5954:5960   */\n      dup5\n        /* \"#utility.yul\":5872:5967   */\n      tag_175\n      jump\t// in\n    tag_191:\n        /* \"#utility.yul\":5865:5967   */\n      swap2\n      pop\n        /* \"#utility.yul\":5984:5987   */\n      dup2\n        /* \"#utility.yul\":5977:5987   */\n      swap1\n      pop\n        /* \"#utility.yul\":5718:5993   */\n      swap3\n      swap2\n      pop\n      pop\n      jump\t// out\n        /* \"#utility.yul\":5999:6221   */\n    tag_11:\n        /* \"#utility.yul\":6092:6096   */\n      0x00\n        /* \"#utility.yul\":6130:6132   */\n      0x20\n        /* \"#utility.yul\":6119:6128   */\n      dup3\n        /* \"#utility.yul\":6115:6133   */\n      add\n        /* \"#utility.yul\":6107:6133   */\n      swap1\n      pop\n        /* \"#utility.yul\":6143:6214   */\n      tag_193\n        /* \"#utility.yul\":6211:6212   */\n      0x00\n        /* \"#utility.yul\":6200:6209   */\n      dup4\n        /* \"#utility.yul\":6196:6213   */\n      add\n        /* \"#utility.yul\":6187:6193   */\n      dup5\n        /* \"#utility.yul\":6143:6214   */\n      tag_132\n      jump\t// in\n    tag_193:\n        /* \"#utility.yul\":5999:6221   */\n      swap3\n      swap2\n      pop\n      pop\n      jump\t// out\n        /* \"#utility.yul\":6227:6437   */\n    tag_17:\n        /* \"#utility.yul\":6314:6318   */\n      0x00\n        /* \"#utility.yul\":6352:6354   */\n      0x20\n        /* \"#utility.yul\":6341:6350   */\n      dup3\n        /* \"#utility.yul\":6337:6355   */\n      add\n        /* \"#utility.yul\":6329:6355   */\n      swap1\n      pop\n        /* \"#utility.yul\":6365:6430   */\n      tag_195\n        /* \"#utility.yul\":6427:6428   */\n      0x00\n        /* \"#utility.yul\":6416:6425   */\n      dup4\n        /* \"#utility.yul\":6412:6429   */\n      add\n        /* \"#utility.yul\":6403:6409   */\n      dup5\n        /* \"#utility.yul\":6365:6430   */\n      tag_136\n      jump\t// in\n    tag_195:\n        /* \"#utility.yul\":6227:6437   */\n      swap3\n      swap2\n      pop\n      pop\n      jump\t// out\n        /* \"#utility.yul\":6443:6756   */\n    tag_21:\n        /* \"#utility.yul\":6556:6560   */\n      0x00\n        /* \"#utility.yul\":6594:6596   */\n      0x20\n        /* \"#utility.yul\":6583:6592   */\n      dup3\n        /* \"#utility.yul\":6579:6597   */\n      add\n        /* \"#utility.yul\":6571:6597   */\n      swap1\n      pop\n        /* \"#utility.yul\":6643:6652   */\n      dup2\n        /* \"#utility.yul\":6637:6641   */\n      dup2\n        /* \"#utility.yul\":6633:6653   */\n      sub\n        /* \"#utility.yul\":6629:6630   */\n      0x00\n        /* \"#utility.yul\":6618:6627   */\n      dup4\n        /* \"#utility.yul\":6614:6631   */\n      add\n        /* \"#utility.yul\":6607:6654   */\n      mstore\n        /* \"#utility.yul\":6671:6749   */\n      tag_197\n        /* \"#utility.yul\":6744:6748   */\n      dup2\n        /* \"#utility.yul\":6735:6741   */\n      dup5\n        /* \"#utility.yul\":6671:6749   */\n      tag_166\n      jump\t// in\n    tag_197:\n        /* \"#utility.yul\":6663:6749   */\n      swap1\n      pop\n        /* \"#utility.yul\":6443:6756   */\n      swap3\n      swap2\n      pop\n      pop\n      jump\t// out\n        /* \"#utility.yul\":6762:7624   */\n    tag_27:\n        /* \"#utility.yul\":7013:7017   */\n      0x00\n        /* \"#utility.yul\":7051:7054   */\n      0xc0\n        /* \"#utility.yul\":7040:7049   */\n      dup3\n        /* \"#utility.yul\":7036:7055   */\n      add\n        /* \"#utility.yul\":7028:7055   */\n      swap1\n      pop\n        /* \"#utility.yul\":7065:7136   */\n      tag_199\n        /* \"#utility.yul\":7133:7134   */\n      0x00\n        /* \"#utility.yul\":7122:7131   */\n      dup4\n        /* \"#utility.yul\":7118:7135   */\n      add\n        /* \"#utility.yul\":7109:7115   */\n      dup10\n        /* \"#utility.yul\":7065:7136   */\n      tag_181\n      jump\t// in\n    tag_199:\n        /* \"#utility.yul\":7146:7218   */\n      tag_200\n        /* \"#utility.yul\":7214:7216   */\n      0x20\n        /* \"#utility.yul\":7203:7212   */\n      dup4\n        /* \"#utility.yul\":7199:7217   */\n      add\n        /* \"#utility.yul\":7190:7196   */\n      dup9\n        /* \"#utility.yul\":7146:7218   */\n      tag_132\n      jump\t// in\n    tag_200:\n        /* \"#utility.yul\":7265:7274   */\n      dup2\n        /* \"#utility.yul\":7259:7263   */\n      dup2\n        /* \"#utility.yul\":7255:7275   */\n      sub\n        /* \"#utility.yul\":7250:7252   */\n      0x40\n        /* \"#utility.yul\":7239:7248   */\n      dup4\n        /* \"#utility.yul\":7235:7253   */\n      add\n        /* \"#utility.yul\":7228:7276   */\n      mstore\n        /* \"#utility.yul\":7293:7371   */\n      tag_201\n        /* \"#utility.yul\":7366:7370   */\n      dup2\n        /* \"#utility.yul\":7357:7363   */\n      dup8\n        /* \"#utility.yul\":7293:7371   */\n      tag_166\n      jump\t// in\n    tag_201:\n        /* \"#utility.yul\":7285:7371   */\n      swap1\n      pop\n        /* \"#utility.yul\":7381:7451   */\n      tag_202\n        /* \"#utility.yul\":7447:7449   */\n      0x60\n        /* \"#utility.yul\":7436:7445   */\n      dup4\n        /* \"#utility.yul\":7432:7450   */\n      add\n        /* \"#utility.yul\":7423:7429   */\n      dup7\n        /* \"#utility.yul\":7381:7451   */\n      tag_149\n      jump\t// in\n    tag_202:\n        /* \"#utility.yul\":7461:7534   */\n      tag_203\n        /* \"#utility.yul\":7529:7532   */\n      0x80\n        /* \"#utility.yul\":7518:7527   */\n      dup4\n        /* \"#utility.yul\":7514:7533   */\n      add\n        /* \"#utility.yul\":7505:7511   */\n      dup6\n        /* \"#utility.yul\":7461:7534   */\n      tag_132\n      jump\t// in\n    tag_203:\n        /* \"#utility.yul\":7544:7617   */\n      tag_204\n        /* \"#utility.yul\":7612:7615   */\n      0xa0\n        /* \"#utility.yul\":7601:7610   */\n      dup4\n        /* \"#utility.yul\":7597:7616   */\n      add\n        /* \"#utility.yul\":7588:7594   */\n      dup5\n        /* \"#utility.yul\":7544:7617   */\n      tag_140\n      jump\t// in\n    tag_204:\n        /* \"#utility.yul\":6762:7624   */\n      swap8\n      swap7\n      pop\n      pop\n      pop\n      pop\n      pop\n      pop\n      pop\n      jump\t// out\n        /* \"#utility.yul\":7630:7759   */\n    tag_85:\n        /* \"#utility.yul\":7664:7670   */\n      0x00\n        /* \"#utility.yul\":7691:7711   */\n      tag_206\n      tag_207\n      jump\t// in\n    tag_206:\n        /* \"#utility.yul\":7681:7711   */\n      swap1\n      pop\n        /* \"#utility.yul\":7720:7753   */\n      tag_208\n        /* \"#utility.yul\":7748:7752   */\n      dup3\n        /* \"#utility.yul\":7740:7746   */\n      dup3\n        /* \"#utility.yul\":7720:7753   */\n      tag_209\n      jump\t// in\n    tag_208:\n        /* \"#utility.yul\":7630:7759   */\n      swap2\n      swap1\n      pop\n      jump\t// out\n        /* \"#utility.yul\":7765:7840   */\n    tag_207:\n        /* \"#utility.yul\":7798:7804   */\n      0x00\n        /* \"#utility.yul\":7831:7833   */\n      0x40\n        /* \"#utility.yul\":7825:7834   */\n      mload\n        /* \"#utility.yul\":7815:7834   */\n      swap1\n      pop\n        /* \"#utility.yul\":7765:7840   */\n      swap1\n      jump\t// out\n        /* \"#utility.yul\":7846:8154   */\n    tag_84:\n        /* \"#utility.yul\":7908:7912   */\n      0x00\n        /* \"#utility.yul\":7998:8016   */\n      0xffffffffffffffff\n        /* \"#utility.yul\":7990:7996   */\n      dup3\n        /* \"#utility.yul\":7987:8017   */\n      gt\n        /* \"#utility.yul\":7984:8040   */\n      iszero\n      tag_212\n      jumpi\n        /* \"#utility.yul\":8020:8038   */\n      tag_213\n      tag_214\n      jump\t// in\n    tag_213:\n        /* \"#utility.yul\":7984:8040   */\n    tag_212:\n        /* \"#utility.yul\":8058:8087   */\n      tag_215\n        /* \"#utility.yul\":8080:8086   */\n      dup3\n        /* \"#utility.yul\":8058:8087   */\n      tag_174\n      jump\t// in\n    tag_215:\n        /* \"#utility.yul\":8050:8087   */\n      swap1\n      pop\n        /* \"#utility.yul\":8142:8146   */\n      0x20\n        /* \"#utility.yul\":8136:8140   */\n      dup2\n        /* \"#utility.yul\":8132:8147   */\n      add\n        /* \"#utility.yul\":8124:8147   */\n      swap1\n      pop\n        /* \"#utility.yul\":7846:8154   */\n      swap2\n      swap1\n      pop\n      jump\t// out\n        /* \"#utility.yul\":8160:8258   */\n    tag_161:\n        /* \"#utility.yul\":8211:8217   */\n      0x00\n        /* \"#utility.yul\":8245:8250   */\n      dup2\n        /* \"#utility.yul\":8239:8251   */\n      mload\n        /* \"#utility.yul\":8229:8251   */\n      swap1\n      pop\n        /* \"#utility.yul\":8160:8258   */\n      swap2\n      swap1\n      pop\n      jump\t// out\n        /* \"#utility.yul\":8264:8363   */\n    tag_169:\n        /* \"#utility.yul\":8316:8322   */\n      0x00\n        /* \"#utility.yul\":8350:8355   */\n      dup2\n        /* \"#utility.yul\":8344:8356   */\n      mload\n        /* \"#utility.yul\":8334:8356   */\n      swap1\n      pop\n        /* \"#utility.yul\":8264:8363   */\n      swap2\n      swap1\n      pop\n      jump\t// out\n        /* \"#utility.yul\":8369:8516   */\n    tag_163:\n        /* \"#utility.yul\":8470:8481   */\n      0x00\n        /* \"#utility.yul\":8507:8510   */\n      dup2\n        /* \"#utility.yul\":8492:8510   */\n      swap1\n      pop\n        /* \"#utility.yul\":8369:8516   */\n      swap3\n      swap2\n      pop\n      pop\n      jump\t// out\n        /* \"#utility.yul\":8522:8691   */\n    tag_171:\n        /* \"#utility.yul\":8606:8617   */\n      0x00\n        /* \"#utility.yul\":8640:8646   */\n      dup3\n        /* \"#utility.yul\":8635:8638   */\n      dup3\n        /* \"#utility.yul\":8628:8647   */\n      mstore\n        /* \"#utility.yul\":8680:8684   */\n      0x20\n        /* \"#utility.yul\":8675:8678   */\n      dup3\n        /* \"#utility.yul\":8671:8685   */\n      add\n        /* \"#utility.yul\":8656:8685   */\n      swap1\n      pop\n        /* \"#utility.yul\":8522:8691   */\n      swap3\n      swap2\n      pop\n      pop\n      jump\t// out\n        /* \"#utility.yul\":8697:8845   */\n    tag_179:\n        /* \"#utility.yul\":8799:8810   */\n      0x00\n        /* \"#utility.yul\":8836:8839   */\n      dup2\n        /* \"#utility.yul\":8821:8839   */\n      swap1\n      pop\n        /* \"#utility.yul\":8697:8845   */\n      swap3\n      swap2\n      pop\n      pop\n      jump\t// out\n        /* \"#utility.yul\":8851:8947   */\n    tag_135:\n        /* \"#utility.yul\":8888:8895   */\n      0x00\n        /* \"#utility.yul\":8917:8941   */\n      tag_222\n        /* \"#utility.yul\":8935:8940   */\n      dup3\n        /* \"#utility.yul\":8917:8941   */\n      tag_223\n      jump\t// in\n    tag_222:\n        /* \"#utility.yul\":8906:8941   */\n      swap1\n      pop\n        /* \"#utility.yul\":8851:8947   */\n      swap2\n      swap1\n      pop\n      jump\t// out\n        /* \"#utility.yul\":8953:9043   */\n    tag_139:\n        /* \"#utility.yul\":8987:8994   */\n      0x00\n        /* \"#utility.yul\":9030:9035   */\n      dup2\n        /* \"#utility.yul\":9023:9036   */\n      iszero\n        /* \"#utility.yul\":9016:9037   */\n      iszero\n        /* \"#utility.yul\":9005:9037   */\n      swap1\n      pop\n        /* \"#utility.yul\":8953:9043   */\n      swap2\n      swap1\n      pop\n      jump\t// out\n        /* \"#utility.yul\":9049:9126   */\n    tag_143:\n        /* \"#utility.yul\":9086:9093   */\n      0x00\n        /* \"#utility.yul\":9115:9120   */\n      dup2\n        /* \"#utility.yul\":9104:9120   */\n      swap1\n      pop\n        /* \"#utility.yul\":9049:9126   */\n      swap2\n      swap1\n      pop\n      jump\t// out\n        /* \"#utility.yul\":9132:9281   */\n    tag_152:\n        /* \"#utility.yul\":9168:9175   */\n      0x00\n        /* \"#utility.yul\":9208:9274   */\n      0xffffffff00000000000000000000000000000000000000000000000000000000\n        /* \"#utility.yul\":9201:9206   */\n      dup3\n        /* \"#utility.yul\":9197:9275   */\n      and\n        /* \"#utility.yul\":9186:9275   */\n      swap1\n      pop\n        /* \"#utility.yul\":9132:9281   */\n      swap2\n      swap1\n      pop\n      jump\t// out\n        /* \"#utility.yul\":9287:9413   */\n    tag_223:\n        /* \"#utility.yul\":9324:9331   */\n      0x00\n        /* \"#utility.yul\":9364:9406   */\n      0xffffffffffffffffffffffffffffffffffffffff\n        /* \"#utility.yul\":9357:9362   */\n      dup3\n        /* \"#utility.yul\":9353:9407   */\n      and\n        /* \"#utility.yul\":9342:9407   */\n      swap1\n      pop\n        /* \"#utility.yul\":9287:9413   */\n      swap2\n      swap1\n      pop\n      jump\t// out\n        /* \"#utility.yul\":9419:9496   */\n    tag_184:\n        /* \"#utility.yul\":9456:9463   */\n      0x00\n        /* \"#utility.yul\":9485:9490   */\n      dup2\n        /* \"#utility.yul\":9474:9490   */\n      swap1\n      pop\n        /* \"#utility.yul\":9419:9496   */\n      swap2\n      swap1\n      pop\n      jump\t// out\n        /* \"#utility.yul\":9502:9656   */\n    tag_90:\n        /* \"#utility.yul\":9586:9592   */\n      dup3\n        /* \"#utility.yul\":9581:9584   */\n      dup2\n        /* \"#utility.yul\":9576:9579   */\n      dup4\n        /* \"#utility.yul\":9563:9593   */\n      calldatacopy\n        /* \"#utility.yul\":9648:9649   */\n      0x00\n        /* \"#utility.yul\":9639:9645   */\n      dup4\n        /* \"#utility.yul\":9634:9637   */\n      dup4\n        /* \"#utility.yul\":9630:9646   */\n      add\n        /* \"#utility.yul\":9623:9650   */\n      mstore\n        /* \"#utility.yul\":9502:9656   */\n      pop\n      pop\n      pop\n      jump\t// out\n        /* \"#utility.yul\":9662:9969   */\n    tag_165:\n        /* \"#utility.yul\":9730:9731   */\n      0x00\n        /* \"#utility.yul\":9740:9853   */\n    tag_231:\n        /* \"#utility.yul\":9754:9760   */\n      dup4\n        /* \"#utility.yul\":9751:9752   */\n      dup2\n        /* \"#utility.yul\":9748:9761   */\n      lt\n        /* \"#utility.yul\":9740:9853   */\n      iszero\n      tag_233\n      jumpi\n        /* \"#utility.yul\":9839:9840   */\n      dup1\n        /* \"#utility.yul\":9834:9837   */\n      dup3\n        /* \"#utility.yul\":9830:9841   */\n      add\n        /* \"#utility.yul\":9824:9842   */\n      mload\n        /* \"#utility.yul\":9820:9821   */\n      dup2\n        /* \"#utility.yul\":9815:9818   */\n      dup5\n        /* \"#utility.yul\":9811:9822   */\n      add\n        /* \"#utility.yul\":9804:9843   */\n      mstore\n        /* \"#utility.yul\":9776:9778   */\n      0x20\n        /* \"#utility.yul\":9773:9774   */\n      dup2\n        /* \"#utility.yul\":9769:9779   */\n      add\n        /* \"#utility.yul\":9764:9779   */\n      swap1\n      pop\n        /* \"#utility.yul\":9740:9853   */\n      jump(tag_231)\n    tag_233:\n        /* \"#utility.yul\":9871:9877   */\n      dup4\n        /* \"#utility.yul\":9868:9869   */\n      dup2\n        /* \"#utility.yul\":9865:9878   */\n      gt\n        /* \"#utility.yul\":9862:9963   */\n      iszero\n      tag_234\n      jumpi\n        /* \"#utility.yul\":9951:9952   */\n      0x00\n        /* \"#utility.yul\":9942:9948   */\n      dup5\n        /* \"#utility.yul\":9937:9940   */\n      dup5\n        /* \"#utility.yul\":9933:9949   */\n      add\n        /* \"#utility.yul\":9926:9953   */\n      mstore\n        /* \"#utility.yul\":9862:9963   */\n    tag_234:\n        /* \"#utility.yul\":9711:9969   */\n      pop\n        /* \"#utility.yul\":9662:9969   */\n      pop\n      pop\n      pop\n      jump\t// out\n        /* \"#utility.yul\":9975:10295   */\n    tag_40:\n        /* \"#utility.yul\":10019:10025   */\n      0x00\n        /* \"#utility.yul\":10056:10057   */\n      0x02\n        /* \"#utility.yul\":10050:10054   */\n      dup3\n        /* \"#utility.yul\":10046:10058   */\n      div\n        /* \"#utility.yul\":10036:10058   */\n      swap1\n      pop\n        /* \"#utility.yul\":10103:10104   */\n      0x01\n        /* \"#utility.yul\":10097:10101   */\n      dup3\n        /* \"#utility.yul\":10093:10105   */\n      and\n        /* \"#utility.yul\":10124:10142   */\n      dup1\n        /* \"#utility.yul\":10114:10195   */\n      tag_236\n      jumpi\n        /* \"#utility.yul\":10180:10184   */\n      0x7f\n        /* \"#utility.yul\":10172:10178   */\n      dup3\n        /* \"#utility.yul\":10168:10185   */\n      and\n        /* \"#utility.yul\":10158:10185   */\n      swap2\n      pop\n        /* \"#utility.yul\":10114:10195   */\n    tag_236:\n        /* \"#utility.yul\":10242:10244   */\n      0x20\n        /* \"#utility.yul\":10234:10240   */\n      dup3\n        /* \"#utility.yul\":10231:10245   */\n      lt\n        /* \"#utility.yul\":10211:10229   */\n      dup2\n        /* \"#utility.yul\":10208:10246   */\n      eq\n        /* \"#utility.yul\":10205:10289   */\n      iszero\n      tag_237\n      jumpi\n        /* \"#utility.yul\":10261:10279   */\n      tag_238\n      tag_239\n      jump\t// in\n    tag_238:\n        /* \"#utility.yul\":10205:10289   */\n    tag_237:\n        /* \"#utility.yul\":10026:10295   */\n      pop\n        /* \"#utility.yul\":9975:10295   */\n      swap2\n      swap1\n      pop\n      jump\t// out\n        /* \"#utility.yul\":10301:10582   */\n    tag_209:\n        /* \"#utility.yul\":10384:10411   */\n      tag_241\n        /* \"#utility.yul\":10406:10410   */\n      dup3\n        /* \"#utility.yul\":10384:10411   */\n      tag_174\n      jump\t// in\n    tag_241:\n        /* \"#utility.yul\":10376:10382   */\n      dup2\n        /* \"#utility.yul\":10372:10412   */\n      add\n        /* \"#utility.yul\":10514:10520   */\n      dup2\n        /* \"#utility.yul\":10502:10512   */\n      dup2\n        /* \"#utility.yul\":10499:10521   */\n      lt\n        /* \"#utility.yul\":10478:10496   */\n      0xffffffffffffffff\n        /* \"#utility.yul\":10466:10476   */\n      dup3\n        /* \"#utility.yul\":10463:10497   */\n      gt\n        /* \"#utility.yul\":10460:10522   */\n      or\n        /* \"#utility.yul\":10457:10545   */\n      iszero\n      tag_242\n      jumpi\n        /* \"#utility.yul\":10525:10543   */\n      tag_243\n      tag_214\n      jump\t// in\n    tag_243:\n        /* \"#utility.yul\":10457:10545   */\n    tag_242:\n        /* \"#utility.yul\":10565:10575   */\n      dup1\n        /* \"#utility.yul\":10561:10563   */\n      0x40\n        /* \"#utility.yul\":10554:10576   */\n      mstore\n        /* \"#utility.yul\":10344:10582   */\n      pop\n        /* \"#utility.yul\":10301:10582   */\n      pop\n      pop\n      jump\t// out\n        /* \"#utility.yul\":10588:10667   */\n    tag_148:\n        /* \"#utility.yul\":10627:10634   */\n      0x00\n        /* \"#utility.yul\":10656:10661   */\n      dup2\n        /* \"#utility.yul\":10645:10661   */\n      swap1\n      pop\n        /* \"#utility.yul\":10588:10667   */\n      swap2\n      swap1\n      pop\n      jump\t// out\n        /* \"#utility.yul\":10673:10751   */\n    tag_157:\n        /* \"#utility.yul\":10711:10718   */\n      0x00\n        /* \"#utility.yul\":10740:10745   */\n      dup2\n        /* \"#utility.yul\":10729:10745   */\n      swap1\n      pop\n        /* \"#utility.yul\":10673:10751   */\n      swap2\n      swap1\n      pop\n      jump\t// out\n        /* \"#utility.yul\":10757:10937   */\n    tag_239:\n        /* \"#utility.yul\":10805:10882   */\n      0x4e487b7100000000000000000000000000000000000000000000000000000000\n        /* \"#utility.yul\":10802:10803   */\n      0x00\n        /* \"#utility.yul\":10795:10883   */\n      mstore\n        /* \"#utility.yul\":10902:10906   */\n      0x22\n        /* \"#utility.yul\":10899:10900   */\n      0x04\n        /* \"#utility.yul\":10892:10907   */\n      mstore\n        /* \"#utility.yul\":10926:10930   */\n      0x24\n        /* \"#utility.yul\":10923:10924   */\n      0x00\n        /* \"#utility.yul\":10916:10931   */\n      revert\n        /* \"#utility.yul\":10943:11123   */\n    tag_55:\n        /* \"#utility.yul\":10991:11068   */\n      0x4e487b7100000000000000000000000000000000000000000000000000000000\n        /* \"#utility.yul\":10988:10989   */\n      0x00\n        /* \"#utility.yul\":10981:11069   */\n      mstore\n        /* \"#utility.yul\":11088:11092   */\n      0x32\n        /* \"#utility.yul\":11085:11086   */\n      0x04\n        /* \"#utility.yul\":11078:11093   */\n      mstore\n        /* \"#utility.yul\":11112:11116   */\n      0x24\n        /* \"#utility.yul\":11109:11110   */\n      0x00\n        /* \"#utility.yul\":11102:11117   */\n      revert\n        /* \"#utility.yul\":11129:11309   */\n    tag_214:\n        /* \"#utility.yul\":11177:11254   */\n      0x4e487b7100000000000000000000000000000000000000000000000000000000\n        /* \"#utility.yul\":11174:11175   */\n      0x00\n        /* \"#utility.yul\":11167:11255   */\n      mstore\n        /* \"#utility.yul\":11274:11278   */\n      0x41\n        /* \"#utility.yul\":11271:11272   */\n      0x04\n        /* \"#utility.yul\":11264:11279   */\n      mstore\n        /* \"#utility.yul\":11298:11302   */\n      0x24\n        /* \"#utility.yul\":11295:11296   */\n      0x00\n        /* \"#utility.yul\":11288:11303   */\n      revert\n        /* \"#utility.yul\":11315:11432   */\n    tag_107:\n        /* \"#utility.yul\":11424:11425   */\n      0x00\n        /* \"#utility.yul\":11421:11422   */\n      dup1\n        /* \"#utility.yul\":11414:11426   */\n      revert\n        /* \"#utility.yul\":11438:11555   */\n    tag_88:\n        /* \"#utility.yul\":11547:11548   */\n      0x00\n        /* \"#utility.yul\":11544:11545   */\n      dup1\n        /* \"#utility.yul\":11537:11549   */\n      revert\n        /* \"#utility.yul\":11561:11678   */\n    tag_120:\n        /* \"#utility.yul\":11670:11671   */\n      0x00\n        /* \"#utility.yul\":11667:11668   */\n      dup1\n        /* \"#utility.yul\":11660:11672   */\n      revert\n        /* \"#utility.yul\":11684:11801   */\n    tag_116:\n        /* \"#utility.yul\":11793:11794   */\n      0x00\n        /* \"#utility.yul\":11790:11791   */\n      dup1\n        /* \"#utility.yul\":11783:11795   */\n      revert\n        /* \"#utility.yul\":11807:11909   */\n    tag_174:\n        /* \"#utility.yul\":11848:11854   */\n      0x00\n        /* \"#utility.yul\":11899:11901   */\n      0x1f\n        /* \"#utility.yul\":11895:11902   */\n      not\n        /* \"#utility.yul\":11890:11892   */\n      0x1f\n        /* \"#utility.yul\":11883:11888   */\n      dup4\n        /* \"#utility.yul\":11879:11893   */\n      add\n        /* \"#utility.yul\":11875:11903   */\n      and\n        /* \"#utility.yul\":11865:11903   */\n      swap1\n      pop\n        /* \"#utility.yul\":11807:11909   */\n      swap2\n      swap1\n      pop\n      jump\t// out\n        /* \"#utility.yul\":11915:12037   */\n    tag_94:\n        /* \"#utility.yul\":11988:12012   */\n      tag_255\n        /* \"#utility.yul\":12006:12011   */\n      dup2\n        /* \"#utility.yul\":11988:12012   */\n      tag_135\n      jump\t// in\n    tag_255:\n        /* \"#utility.yul\":11981:11986   */\n      dup2\n        /* \"#utility.yul\":11978:12013   */\n      eq\n        /* \"#utility.yul\":11968:12031   */\n      tag_256\n      jumpi\n        /* \"#utility.yul\":12027:12028   */\n      0x00\n        /* \"#utility.yul\":12024:12025   */\n      dup1\n        /* \"#utility.yul\":12017:12029   */\n      revert\n        /* \"#utility.yul\":11968:12031   */\n    tag_256:\n        /* \"#utility.yul\":11915:12037   */\n      pop\n      jump\t// out\n        /* \"#utility.yul\":12043:12165   */\n    tag_98:\n        /* \"#utility.yul\":12116:12140   */\n      tag_258\n        /* \"#utility.yul\":12134:12139   */\n      dup2\n        /* \"#utility.yul\":12116:12140   */\n      tag_143\n      jump\t// in\n    tag_258:\n        /* \"#utility.yul\":12109:12114   */\n      dup2\n        /* \"#utility.yul\":12106:12141   */\n      eq\n        /* \"#utility.yul\":12096:12159   */\n      tag_259\n      jumpi\n        /* \"#utility.yul\":12155:12156   */\n      0x00\n        /* \"#utility.yul\":12152:12153   */\n      dup1\n        /* \"#utility.yul\":12145:12157   */\n      revert\n        /* \"#utility.yul\":12096:12159   */\n    tag_259:\n        /* \"#utility.yul\":12043:12165   */\n      pop\n      jump\t// out\n        /* \"#utility.yul\":12171:12291   */\n    tag_102:\n        /* \"#utility.yul\":12243:12266   */\n      tag_261\n        /* \"#utility.yul\":12260:12265   */\n      dup2\n        /* \"#utility.yul\":12243:12266   */\n      tag_152\n      jump\t// in\n    tag_261:\n        /* \"#utility.yul\":12236:12241   */\n      dup2\n        /* \"#utility.yul\":12233:12267   */\n      eq\n        /* \"#utility.yul\":12223:12285   */\n      tag_262\n      jumpi\n        /* \"#utility.yul\":12281:12282   */\n      0x00\n        /* \"#utility.yul\":12278:12279   */\n      dup1\n        /* \"#utility.yul\":12271:12283   */\n      revert\n        /* \"#utility.yul\":12223:12285   */\n    tag_262:\n        /* \"#utility.yul\":12171:12291   */\n      pop\n      jump\t// out\n        /* \"#utility.yul\":12297:12419   */\n    tag_112:\n        /* \"#utility.yul\":12370:12394   */\n      tag_264\n        /* \"#utility.yul\":12388:12393   */\n      dup2\n        /* \"#utility.yul\":12370:12394   */\n      tag_184\n      jump\t// in\n    tag_264:\n        /* \"#utility.yul\":12363:12368   */\n      dup2\n        /* \"#utility.yul\":12360:12395   */\n      eq\n        /* \"#utility.yul\":12350:12413   */\n      tag_265\n      jumpi\n        /* \"#utility.yul\":12409:12410   */\n      0x00\n        /* \"#utility.yul\":12406:12407   */\n      dup1\n        /* \"#utility.yul\":12399:12411   */\n      revert\n        /* \"#utility.yul\":12350:12413   */\n    tag_265:\n        /* \"#utility.yul\":12297:12419   */\n      pop\n      jump\t// out\n\n    auxdata: 0xa26469706673582212201a68012e902b5a7f5e8f618496742f04bb80a50a7dd3f7815b766d36e8057af164736f6c63430008070033\n}\n",
				"bytecode": {
					"linkReferences": {},
					"object": "60806040523480156200001157600080fd5b506040516200132a3803806200132a8339818101604052810190620000379190620001dd565b816000806101000a81548173ffffffffffffffffffffffffffffffffffffffff021916908373ffffffffffffffffffffffffffffffffffffffff16021790555080600190805190602001906200008f92919062000098565b50505062000415565b828054620000a6906200030c565b90600052602060002090601f016020900481019282620000ca576000855562000116565b82601f10620000e557805160ff191683800117855562000116565b8280016001018555821562000116579182015b8281111562000115578251825591602001919060010190620000f8565b5b50905062000125919062000129565b5090565b5b80821115620001445760008160009055506001016200012a565b5090565b60006200015f62000159846200026c565b62000243565b9050828152602081018484840111156200017e576200017d620003db565b5b6200018b848285620002d6565b509392505050565b600081519050620001a481620003fb565b92915050565b600082601f830112620001c257620001c1620003d6565b5b8151620001d484826020860162000148565b91505092915050565b60008060408385031215620001f757620001f6620003e5565b5b6000620002078582860162000193565b925050602083015167ffffffffffffffff8111156200022b576200022a620003e0565b5b6200023985828601620001aa565b9150509250929050565b60006200024f62000262565b90506200025d828262000342565b919050565b6000604051905090565b600067ffffffffffffffff8211156200028a5762000289620003a7565b5b6200029582620003ea565b9050602081019050919050565b6000620002af82620002b6565b9050919050565b600073ffffffffffffffffffffffffffffffffffffffff82169050919050565b60005b83811015620002f6578082015181840152602081019050620002d9565b8381111562000306576000848401525b50505050565b600060028204905060018216806200032557607f821691505b602082108114156200033c576200033b62000378565b5b50919050565b6200034d82620003ea565b810181811067ffffffffffffffff821117156200036f576200036e620003a7565b5b80604052505050565b7f4e487b7100000000000000000000000000000000000000000000000000000000600052602260045260246000fd5b7f4e487b7100000000000000000000000000000000000000000000000000000000600052604160045260246000fd5b600080fd5b600080fd5b600080fd5b600080fd5b6000601f19601f8301169050919050565b6200040681620002a2565b81146200041257600080fd5b50565b610f0580620004256000396000f3fe608060405234801561001057600080fd5b50600436106100575760003560e01c80632aa8481f1461005c5780635cd3275c1461007a5780635fb86b01146100aa57806381d12c58146100c8578063eb3377d5146100fd575b600080fd5b61006461012d565b6040516100719190610b37565b60405180910390f35b610094600480360381019061008f91906108ed565b610151565b6040516100a19190610b52565b60405180910390f35b6100b261035d565b6040516100bf9190610b6d565b60405180910390f35b6100e260048036038101906100dd919061095c565b6103eb565b6040516100f496959493929190610b8f565b60405180910390f35b61011760048036038101906101129190610989565b61050c565b6040516101249190610b52565b60405180910390f35b60008054906101000a900473ffffffffffffffffffffffffffffffffffffffff1681565b600080600280549050905060006040518060c0016040528083815260200160008054906101000a900473ffffffffffffffffffffffffffffffffffffffff1673ffffffffffffffffffffffffffffffffffffffff168152602001868152602001877bffffffffffffffffffffffffffffffffffffffffffffffffffffffff191681526020018573ffffffffffffffffffffffffffffffffffffffff1681526020016000801916815250905060028190806001815401808255809150506001900390600052602060002090600502016000909190919091506000820151816000015560208201518160010160006101000a81548173ffffffffffffffffffffffffffffffffffffffff021916908373ffffffffffffffffffffffffffffffffffffffff1602179055506040820151816002019080519060200190610295929190610786565b5060608201518160030160006101000a81548163ffffffff021916908360e01c021790555060808201518160030160046101000a81548173ffffffffffffffffffffffffffffffffffffffff021916908373ffffffffffffffffffffffffffffffffffffffff16021790555060a082015181600401555050818560405161031c9190610b20565b60405180910390207f394611a31616be6c6ac9b70c798c776a5d7533f25ad93f61d72db1968d3ec20660405160405180910390a36001925050509392505050565b6001805461036a90610d4a565b80601f016020809104026020016040519081016040528092919081815260200182805461039690610d4a565b80156103e35780601f106103b8576101008083540402835291602001916103e3565b820191906000526020600020905b8154815290600101906020018083116103c657829003601f168201915b505050505081565b600281815481106103fb57600080fd5b90600052602060002090600502016000915090508060000154908060010160009054906101000a900473ffffffffffffffffffffffffffffffffffffffff169080600201805461044a90610d4a565b80601f016020809104026020016040519081016040528092919081815260200182805461047690610d4a565b80156104c35780601f10610498576101008083540402835291602001916104c3565b820191906000526020600020905b8154815290600101906020018083116104a657829003601f168201915b5050505050908060030160009054906101000a900460e01b908060030160049054906101000a900473ffffffffffffffffffffffffffffffffffffffff16908060040154905086565b6000806002848154811061052357610522610df0565b5b90600052602060002090600502016040518060c0016040529081600082015481526020016001820160009054906101000a900473ffffffffffffffffffffffffffffffffffffffff1673ffffffffffffffffffffffffffffffffffffffff1673ffffffffffffffffffffffffffffffffffffffff1681526020016002820180546105ac90610d4a565b80601f01602080910402602001604051908101604052809291908181526020018280546105d890610d4a565b80156106255780601f106105fa57610100808354040283529160200191610625565b820191906000526020600020905b81548152906001019060200180831161060857829003601f168201915b505050505081526020016003820160009054906101000a900460e01b7bffffffffffffffffffffffffffffffffffffffffffffffffffffffff19167bffffffffffffffffffffffffffffffffffffffffffffffffffffffff191681526020016003820160049054906101000a900473ffffffffffffffffffffffffffffffffffffffff1673ffffffffffffffffffffffffffffffffffffffff1673ffffffffffffffffffffffffffffffffffffffff16815260200160048201548152505090506000816080015173ffffffffffffffffffffffffffffffffffffffff16826060015185604051602001610719929190610add565b6040516020818303038152906040526040516107359190610b09565b6000604051808303816000865af19150503d8060008114610772576040519150601f19603f3d011682016040523d82523d6000602084013e610777565b606091505b50509050809250505092915050565b82805461079290610d4a565b90600052602060002090601f0160209004810192826107b457600085556107fb565b82601f106107cd57805160ff19168380011785556107fb565b828001600101855582156107fb579182015b828111156107fa5782518255916020019190600101906107df565b5b509050610808919061080c565b5090565b5b8082111561082557600081600090555060010161080d565b5090565b600061083c61083784610c1c565b610bf7565b90508281526020810184848401111561085857610857610e53565b5b610863848285610d08565b509392505050565b60008135905061087a81610e73565b92915050565b60008135905061088f81610e8a565b92915050565b6000813590506108a481610ea1565b92915050565b600082601f8301126108bf576108be610e4e565b5b81356108cf848260208601610829565b91505092915050565b6000813590506108e781610eb8565b92915050565b60008060006060848603121561090657610905610e5d565b5b600061091486828701610895565b935050602084013567ffffffffffffffff81111561093557610934610e58565b5b610941868287016108aa565b92505060406109528682870161086b565b9150509250925092565b60006020828403121561097257610971610e5d565b5b6000610980848285016108d8565b91505092915050565b600080604083850312156109a05761099f610e5d565b5b60006109ae858286016108d8565b92505060206109bf85828601610880565b9150509250929050565b6109d281610c8a565b82525050565b6109e181610c9c565b82525050565b6109f081610ca8565b82525050565b610a07610a0282610ca8565b610dad565b82525050565b610a1681610cb2565b82525050565b610a2d610a2882610cb2565b610db7565b82525050565b6000610a3e82610c4d565b610a488185610c63565b9350610a58818560208601610d17565b80840191505092915050565b6000610a6f82610c58565b610a798185610c6e565b9350610a89818560208601610d17565b610a9281610e62565b840191505092915050565b6000610aa882610c58565b610ab28185610c7f565b9350610ac2818560208601610d17565b80840191505092915050565b610ad781610cfe565b82525050565b6000610ae98285610a1c565b600482019150610af982846109f6565b6020820191508190509392505050565b6000610b158284610a33565b915081905092915050565b6000610b2c8284610a9d565b915081905092915050565b6000602082019050610b4c60008301846109c9565b92915050565b6000602082019050610b6760008301846109d8565b92915050565b60006020820190508181036000830152610b878184610a64565b905092915050565b600060c082019050610ba46000830189610ace565b610bb160208301886109c9565b8181036040830152610bc38187610a64565b9050610bd26060830186610a0d565b610bdf60808301856109c9565b610bec60a08301846109e7565b979650505050505050565b6000610c01610c12565b9050610c0d8282610d7c565b919050565b6000604051905090565b600067ffffffffffffffff821115610c3757610c36610e1f565b5b610c4082610e62565b9050602081019050919050565b600081519050919050565b600081519050919050565b600081905092915050565b600082825260208201905092915050565b600081905092915050565b6000610c9582610cde565b9050919050565b60008115159050919050565b6000819050919050565b60007fffffffff0000000000000000000000000000000000000000000000000000000082169050919050565b600073ffffffffffffffffffffffffffffffffffffffff82169050919050565b6000819050919050565b82818337600083830152505050565b60005b83811015610d35578082015181840152602081019050610d1a565b83811115610d44576000848401525b50505050565b60006002820490506001821680610d6257607f821691505b60208210811415610d7657610d75610dc1565b5b50919050565b610d8582610e62565b810181811067ffffffffffffffff82111715610da457610da3610e1f565b5b80604052505050565b6000819050919050565b6000819050919050565b7f4e487b7100000000000000000000000000000000000000000000000000000000600052602260045260246000fd5b7f4e487b7100000000000000000000000000000000000000000000000000000000600052603260045260246000fd5b7f4e487b7100000000000000000000000000000000000000000000000000000000600052604160045260246000fd5b600080fd5b600080fd5b600080fd5b600080fd5b6000601f19601f8301169050919050565b610e7c81610c8a565b8114610e8757600080fd5b50565b610e9381610ca8565b8114610e9e57600080fd5b50565b610eaa81610cb2565b8114610eb557600080fd5b50565b610ec181610cfe565b8114610ecc57600080fd5b5056fea26469706673582212201a68012e902b5a7f5e8f618496742f04bb80a50a7dd3f7815b766d36e8057af164736f6c63430008070033",
					"opcodes": "PUSH1 0x80 PUSH1 0x40 MSTORE CALLVALUE DUP1 ISZERO PUSH3 0x11 JUMPI PUSH1 0x0 DUP1 REVERT JUMPDEST POP PUSH1 0x40 MLOAD PUSH3 0x132A CODESIZE SUB DUP1 PUSH3 0x132A DUP4 CODECOPY DUP2 DUP2 ADD PUSH1 0x40 MSTORE DUP2 ADD SWAP1 PUSH3 0x37 SWAP2 SWAP1 PUSH3 0x1DD JUMP JUMPDEST DUP2 PUSH1 0x0 DUP1 PUSH2 0x100 EXP DUP2 SLOAD DUP2 PUSH20 0xFFFFFFFFFFFFFFFFFFFFFFFFFFFFFFFFFFFFFFFF MUL NOT AND SWAP1 DUP4 PUSH20 0xFFFFFFFFFFFFFFFFFFFFFFFFFFFFFFFFFFFFFFFF AND MUL OR SWAP1 SSTORE POP DUP1 PUSH1 0x1 SWAP1 DUP1 MLOAD SWAP1 PUSH1 0x20 ADD SWAP1 PUSH3 0x8F SWAP3 SWAP2 SWAP1 PUSH3 0x98 JUMP JUMPDEST POP POP POP PUSH3 0x415 JUMP JUMPDEST DUP3 DUP1 SLOAD PUSH3 0xA6 SWAP1 PUSH3 0x30C JUMP JUMPDEST SWAP1 PUSH1 0x0 MSTORE PUSH1 0x20 PUSH1 0x0 KECCAK256 SWAP1 PUSH1 0x1F ADD PUSH1 0x20 SWAP1 DIV DUP2 ADD SWAP3 DUP3 PUSH3 0xCA JUMPI PUSH1 0x0 DUP6 SSTORE PUSH3 0x116 JUMP JUMPDEST DUP3 PUSH1 0x1F LT PUSH3 0xE5 JUMPI DUP1 MLOAD PUSH1 0xFF NOT AND DUP4 DUP1 ADD OR DUP6 SSTORE PUSH3 0x116 JUMP JUMPDEST DUP3 DUP1 ADD PUSH1 0x1 ADD DUP6 SSTORE DUP3 ISZERO PUSH3 0x116 JUMPI SWAP2 DUP3 ADD JUMPDEST DUP3 DUP2 GT ISZERO PUSH3 0x115 JUMPI DUP3 MLOAD DUP3 SSTORE SWAP2 PUSH1 0x20 ADD SWAP2 SWAP1 PUSH1 0x1 ADD SWAP1 PUSH3 0xF8 JUMP JUMPDEST JUMPDEST POP SWAP1 POP PUSH3 0x125 SWAP2 SWAP1 PUSH3 0x129 JUMP JUMPDEST POP SWAP1 JUMP JUMPDEST JUMPDEST DUP1 DUP3 GT ISZERO PUSH3 0x144 JUMPI PUSH1 0x0 DUP2 PUSH1 0x0 SWAP1 SSTORE POP PUSH1 0x1 ADD PUSH3 0x12A JUMP JUMPDEST POP SWAP1 JUMP JUMPDEST PUSH1 0x0 PUSH3 0x15F PUSH3 0x159 DUP5 PUSH3 0x26C JUMP JUMPDEST PUSH3 0x243 JUMP JUMPDEST SWAP1 POP DUP3 DUP2 MSTORE PUSH1 0x20 DUP2 ADD DUP5 DUP5 DUP5 ADD GT ISZERO PUSH3 0x17E JUMPI PUSH3 0x17D PUSH3 0x3DB JUMP JUMPDEST JUMPDEST PUSH3 0x18B DUP5 DUP3 DUP6 PUSH3 0x2D6 JUMP JUMPDEST POP SWAP4 SWAP3 POP POP POP JUMP JUMPDEST PUSH1 0x0 DUP2 MLOAD SWAP1 POP PUSH3 0x1A4 DUP2 PUSH3 0x3FB JUMP JUMPDEST SWAP3 SWAP2 POP POP JUMP JUMPDEST PUSH1 0x0 DUP3 PUSH1 0x1F DUP4 ADD SLT PUSH3 0x1C2 JUMPI PUSH3 0x1C1 PUSH3 0x3D6 JUMP JUMPDEST JUMPDEST DUP2 MLOAD PUSH3 0x1D4 DUP5 DUP3 PUSH1 0x20 DUP7 ADD PUSH3 0x148 JUMP JUMPDEST SWAP2 POP POP SWAP3 SWAP2 POP POP JUMP JUMPDEST PUSH1 0x0 DUP1 PUSH1 0x40 DUP4 DUP6 SUB SLT ISZERO PUSH3 0x1F7 JUMPI PUSH3 0x1F6 PUSH3 0x3E5 JUMP JUMPDEST JUMPDEST PUSH1 0x0 PUSH3 0x207 DUP6 DUP3 DUP7 ADD PUSH3 0x193 JUMP JUMPDEST SWAP3 POP POP PUSH1 0x20 DUP4 ADD MLOAD PUSH8 0xFFFFFFFFFFFFFFFF DUP2 GT ISZERO PUSH3 0x22B JUMPI PUSH3 0x22A PUSH3 0x3E0 JUMP JUMPDEST JUMPDEST PUSH3 0x239 DUP6 DUP3 DUP7 ADD PUSH3 0x1AA JUMP JUMPDEST SWAP2 POP POP SWAP3 POP SWAP3 SWAP1 POP JUMP JUMPDEST PUSH1 0x0 PUSH3 0x24F PUSH3 0x262 JUMP JUMPDEST SWAP1 POP PUSH3 0x25D DUP3 DUP3 PUSH3 0x342 JUMP JUMPDEST SWAP2 SWAP1 POP JUMP JUMPDEST PUSH1 0x0 PUSH1 0x40 MLOAD SWAP1 POP SWAP1 JUMP JUMPDEST PUSH1 0x0 PUSH8 0xFFFFFFFFFFFFFFFF DUP3 GT ISZERO PUSH3 0x28A JUMPI PUSH3 0x289 PUSH3 0x3A7 JUMP JUMPDEST JUMPDEST PUSH3 0x295 DUP3 PUSH3 0x3EA JUMP JUMPDEST SWAP1 POP PUSH1 0x20 DUP2 ADD SWAP1 POP SWAP2 SWAP1 POP JUMP JUMPDEST PUSH1 0x0 PUSH3 0x2AF DUP3 PUSH3 0x2B6 JUMP JUMPDEST SWAP1 POP SWAP2 SWAP1 POP JUMP JUMPDEST PUSH1 0x0 PUSH20 0xFFFFFFFFFFFFFFFFFFFFFFFFFFFFFFFFFFFFFFFF DUP3 AND SWAP1 POP SWAP2 SWAP1 POP JUMP JUMPDEST PUSH1 0x0 JUMPDEST DUP4 DUP2 LT ISZERO PUSH3 0x2F6 JUMPI DUP1 DUP3 ADD MLOAD DUP2 DUP5 ADD MSTORE PUSH1 0x20 DUP2 ADD SWAP1 POP PUSH3 0x2D9 JUMP JUMPDEST DUP4 DUP2 GT ISZERO PUSH3 0x306 JUMPI PUSH1 0x0 DUP5 DUP5 ADD MSTORE JUMPDEST POP POP POP POP JUMP JUMPDEST PUSH1 0x0 PUSH1 0x2 DUP3 DIV SWAP1 POP PUSH1 0x1 DUP3 AND DUP1 PUSH3 0x325 JUMPI PUSH1 0x7F DUP3 AND SWAP2 POP JUMPDEST PUSH1 0x20 DUP3 LT DUP2 EQ ISZERO PUSH3 0x33C JUMPI PUSH3 0x33B PUSH3 0x378 JUMP JUMPDEST JUMPDEST POP SWAP2 SWAP1 POP JUMP JUMPDEST PUSH3 0x34D DUP3 PUSH3 0x3EA JUMP JUMPDEST DUP2 ADD DUP2 DUP2 LT PUSH8 0xFFFFFFFFFFFFFFFF DUP3 GT OR ISZERO PUSH3 0x36F JUMPI PUSH3 0x36E PUSH3 0x3A7 JUMP JUMPDEST JUMPDEST DUP1 PUSH1 0x40 MSTORE POP POP POP JUMP JUMPDEST PUSH32 0x4E487B7100000000000000000000000000000000000000000000000000000000 PUSH1 0x0 MSTORE PUSH1 0x22 PUSH1 0x4 MSTORE PUSH1 0x24 PUSH1 0x0 REVERT JUMPDEST PUSH32 0x4E487B7100000000000000000000000000000000000000000000000000000000 PUSH1 0x0 MSTORE PUSH1 0x41 PUSH1 0x4 MSTORE PUSH1 0x24 PUSH1 0x0 REVERT JUMPDEST PUSH1 0x0 DUP1 REVERT JUMPDEST PUSH1 0x0 DUP1 REVERT JUMPDEST PUSH1 0x0 DUP1 REVERT JUMPDEST PUSH1 0x0 DUP1 REVERT JUMPDEST PUSH1 0x0 PUSH1 0x1F NOT PUSH1 0x1F DUP4 ADD AND SWAP1 POP SWAP2 SWAP1 POP JUMP JUMPDEST PUSH3 0x406 DUP2 PUSH3 0x2A2 JUMP JUMPDEST DUP2 EQ PUSH3 0x412 JUMPI PUSH1 0x0 DUP1 REVERT JUMPDEST POP JUMP JUMPDEST PUSH2 0xF05 DUP1 PUSH3 0x425 PUSH1 0x0 CODECOPY PUSH1 0x0 RETURN INVALID PUSH1 0x80 PUSH1 0x40 MSTORE CALLVALUE DUP1 ISZERO PUSH2 0x10 JUMPI PUSH1 0x0 DUP1 REVERT JUMPDEST POP PUSH1 0x4 CALLDATASIZE LT PUSH2 0x57 JUMPI PUSH1 0x0 CALLDATALOAD PUSH1 0xE0 SHR DUP1 PUSH4 0x2AA8481F EQ PUSH2 0x5C JUMPI DUP1 PUSH4 0x5CD3275C EQ PUSH2 0x7A JUMPI DUP1 PUSH4 0x5FB86B01 EQ PUSH2 0xAA JUMPI DUP1 PUSH4 0x81D12C58 EQ PUSH2 0xC8 JUMPI DUP1 PUSH4 0xEB3377D5 EQ PUSH2 0xFD JUMPI JUMPDEST PUSH1 0x0 DUP1 REVERT JUMPDEST PUSH2 0x64 PUSH2 0x12D JUMP JUMPDEST PUSH1 0x40 MLOAD PUSH2 0x71 SWAP2 SWAP1 PUSH2 0xB37 JUMP JUMPDEST PUSH1 0x40 MLOAD DUP1 SWAP2 SUB SWAP1 RETURN JUMPDEST PUSH2 0x94 PUSH1 0x4 DUP1 CALLDATASIZE SUB DUP2 ADD SWAP1 PUSH2 0x8F SWAP2 SWAP1 PUSH2 0x8ED JUMP JUMPDEST PUSH2 0x151 JUMP JUMPDEST PUSH1 0x40 MLOAD PUSH2 0xA1 SWAP2 SWAP1 PUSH2 0xB52 JUMP JUMPDEST PUSH1 0x40 MLOAD DUP1 SWAP2 SUB SWAP1 RETURN JUMPDEST PUSH2 0xB2 PUSH2 0x35D JUMP JUMPDEST PUSH1 0x40 MLOAD PUSH2 0xBF SWAP2 SWAP1 PUSH2 0xB6D JUMP JUMPDEST PUSH1 0x40 MLOAD DUP1 SWAP2 SUB SWAP1 RETURN JUMPDEST PUSH2 0xE2 PUSH1 0x4 DUP1 CALLDATASIZE SUB DUP2 ADD SWAP1 PUSH2 0xDD SWAP2 SWAP1 PUSH2 0x95C JUMP JUMPDEST PUSH2 0x3EB JUMP JUMPDEST PUSH1 0x40 MLOAD PUSH2 0xF4 SWAP7 SWAP6 SWAP5 SWAP4 SWAP3 SWAP2 SWAP1 PUSH2 0xB8F JUMP JUMPDEST PUSH1 0x40 MLOAD DUP1 SWAP2 SUB SWAP1 RETURN JUMPDEST PUSH2 0x117 PUSH1 0x4 DUP1 CALLDATASIZE SUB DUP2 ADD SWAP1 PUSH2 0x112 SWAP2 SWAP1 PUSH2 0x989 JUMP JUMPDEST PUSH2 0x50C JUMP JUMPDEST PUSH1 0x40 MLOAD PUSH2 0x124 SWAP2 SWAP1 PUSH2 0xB52 JUMP JUMPDEST PUSH1 0x40 MLOAD DUP1 SWAP2 SUB SWAP1 RETURN JUMPDEST PUSH1 0x0 DUP1 SLOAD SWAP1 PUSH2 0x100 EXP SWAP1 DIV PUSH20 0xFFFFFFFFFFFFFFFFFFFFFFFFFFFFFFFFFFFFFFFF AND DUP2 JUMP JUMPDEST PUSH1 0x0 DUP1 PUSH1 0x2 DUP1 SLOAD SWAP1 POP SWAP1 POP PUSH1 0x0 PUSH1 0x40 MLOAD DUP1 PUSH1 0xC0 ADD PUSH1 0x40 MSTORE DUP1 DUP4 DUP2 MSTORE PUSH1 0x20 ADD PUSH1 0x0 DUP1 SLOAD SWAP1 PUSH2 0x100 EXP SWAP1 DIV PUSH20 0xFFFFFFFFFFFFFFFFFFFFFFFFFFFFFFFFFFFFFFFF AND PUSH20 0xFFFFFFFFFFFFFFFFFFFFFFFFFFFFFFFFFFFFFFFF AND DUP2 MSTORE PUSH1 0x20 ADD DUP7 DUP2 MSTORE PUSH1 0x20 ADD DUP8 PUSH28 0xFFFFFFFFFFFFFFFFFFFFFFFFFFFFFFFFFFFFFFFFFFFFFFFFFFFFFFFF NOT AND DUP2 MSTORE PUSH1 0x20 ADD DUP6 PUSH20 0xFFFFFFFFFFFFFFFFFFFFFFFFFFFFFFFFFFFFFFFF AND DUP2 MSTORE PUSH1 0x20 ADD PUSH1 0x0 DUP1 NOT AND DUP2 MSTORE POP SWAP1 POP PUSH1 0x2 DUP2 SWAP1 DUP1 PUSH1 0x1 DUP2 SLOAD ADD DUP1 DUP3 SSTORE DUP1 SWAP2 POP POP PUSH1 0x1 SWAP1 SUB SWAP1 PUSH1 0x0 MSTORE PUSH1 0x20 PUSH1 0x0 KECCAK256 SWAP1 PUSH1 0x5 MUL ADD PUSH1 0x0 SWAP1 SWAP2 SWAP1 SWAP2 SWAP1 SWAP2 POP PUSH1 0x0 DUP3 ADD MLOAD DUP2 PUSH1 0x0 ADD SSTORE PUSH1 0x20 DUP3 ADD MLOAD DUP2 PUSH1 0x1 ADD PUSH1 0x0 PUSH2 0x100 EXP DUP2 SLOAD DUP2 PUSH20 0xFFFFFFFFFFFFFFFFFFFFFFFFFFFFFFFFFFFFFFFF MUL NOT AND SWAP1 DUP4 PUSH20 0xFFFFFFFFFFFFFFFFFFFFFFFFFFFFFFFFFFFFFFFF AND MUL OR SWAP1 SSTORE POP PUSH1 0x40 DUP3 ADD MLOAD DUP2 PUSH1 0x2 ADD SWAP1 DUP1 MLOAD SWAP1 PUSH1 0x20 ADD SWAP1 PUSH2 0x295 SWAP3 SWAP2 SWAP1 PUSH2 0x786 JUMP JUMPDEST POP PUSH1 0x60 DUP3 ADD MLOAD DUP2 PUSH1 0x3 ADD PUSH1 0x0 PUSH2 0x100 EXP DUP2 SLOAD DUP2 PUSH4 0xFFFFFFFF MUL NOT AND SWAP1 DUP4 PUSH1 0xE0 SHR MUL OR SWAP1 SSTORE POP PUSH1 0x80 DUP3 ADD MLOAD DUP2 PUSH1 0x3 ADD PUSH1 0x4 PUSH2 0x100 EXP DUP2 SLOAD DUP2 PUSH20 0xFFFFFFFFFFFFFFFFFFFFFFFFFFFFFFFFFFFFFFFF MUL NOT AND SWAP1 DUP4 PUSH20 0xFFFFFFFFFFFFFFFFFFFFFFFFFFFFFFFFFFFFFFFF AND MUL OR SWAP1 SSTORE POP PUSH1 0xA0 DUP3 ADD MLOAD DUP2 PUSH1 0x4 ADD SSTORE POP POP DUP2 DUP6 PUSH1 0x40 MLOAD PUSH2 0x31C SWAP2 SWAP1 PUSH2 0xB20 JUMP JUMPDEST PUSH1 0x40 MLOAD DUP1 SWAP2 SUB SWAP1 KECCAK256 PUSH32 0x394611A31616BE6C6AC9B70C798C776A5D7533F25AD93F61D72DB1968D3EC206 PUSH1 0x40 MLOAD PUSH1 0x40 MLOAD DUP1 SWAP2 SUB SWAP1 LOG3 PUSH1 0x1 SWAP3 POP POP POP SWAP4 SWAP3 POP POP POP JUMP JUMPDEST PUSH1 0x1 DUP1 SLOAD PUSH2 0x36A SWAP1 PUSH2 0xD4A JUMP JUMPDEST DUP1 PUSH1 0x1F ADD PUSH1 0x20 DUP1 SWAP2 DIV MUL PUSH1 0x20 ADD PUSH1 0x40 MLOAD SWAP1 DUP2 ADD PUSH1 0x40 MSTORE DUP1 SWAP3 SWAP2 SWAP1 DUP2 DUP2 MSTORE PUSH1 0x20 ADD DUP3 DUP1 SLOAD PUSH2 0x396 SWAP1 PUSH2 0xD4A JUMP JUMPDEST DUP1 ISZERO PUSH2 0x3E3 JUMPI DUP1 PUSH1 0x1F LT PUSH2 0x3B8 JUMPI PUSH2 0x100 DUP1 DUP4 SLOAD DIV MUL DUP4 MSTORE SWAP2 PUSH1 0x20 ADD SWAP2 PUSH2 0x3E3 JUMP JUMPDEST DUP3 ADD SWAP2 SWAP1 PUSH1 0x0 MSTORE PUSH1 0x20 PUSH1 0x0 KECCAK256 SWAP1 JUMPDEST DUP2 SLOAD DUP2 MSTORE SWAP1 PUSH1 0x1 ADD SWAP1 PUSH1 0x20 ADD DUP1 DUP4 GT PUSH2 0x3C6 JUMPI DUP3 SWAP1 SUB PUSH1 0x1F AND DUP3 ADD SWAP2 JUMPDEST POP POP POP POP POP DUP2 JUMP JUMPDEST PUSH1 0x2 DUP2 DUP2 SLOAD DUP2 LT PUSH2 0x3FB JUMPI PUSH1 0x0 DUP1 REVERT JUMPDEST SWAP1 PUSH1 0x0 MSTORE PUSH1 0x20 PUSH1 0x0 KECCAK256 SWAP1 PUSH1 0x5 MUL ADD PUSH1 0x0 SWAP2 POP SWAP1 POP DUP1 PUSH1 0x0 ADD SLOAD SWAP1 DUP1 PUSH1 0x1 ADD PUSH1 0x0 SWAP1 SLOAD SWAP1 PUSH2 0x100 EXP SWAP1 DIV PUSH20 0xFFFFFFFFFFFFFFFFFFFFFFFFFFFFFFFFFFFFFFFF AND SWAP1 DUP1 PUSH1 0x2 ADD DUP1 SLOAD PUSH2 0x44A SWAP1 PUSH2 0xD4A JUMP JUMPDEST DUP1 PUSH1 0x1F ADD PUSH1 0x20 DUP1 SWAP2 DIV MUL PUSH1 0x20 ADD PUSH1 0x40 MLOAD SWAP1 DUP2 ADD PUSH1 0x40 MSTORE DUP1 SWAP3 SWAP2 SWAP1 DUP2 DUP2 MSTORE PUSH1 0x20 ADD DUP3 DUP1 SLOAD PUSH2 0x476 SWAP1 PUSH2 0xD4A JUMP JUMPDEST DUP1 ISZERO PUSH2 0x4C3 JUMPI DUP1 PUSH1 0x1F LT PUSH2 0x498 JUMPI PUSH2 0x100 DUP1 DUP4 SLOAD DIV MUL DUP4 MSTORE SWAP2 PUSH1 0x20 ADD SWAP2 PUSH2 0x4C3 JUMP JUMPDEST DUP3 ADD SWAP2 SWAP1 PUSH1 0x0 MSTORE PUSH1 0x20 PUSH1 0x0 KECCAK256 SWAP1 JUMPDEST DUP2 SLOAD DUP2 MSTORE SWAP1 PUSH1 0x1 ADD SWAP1 PUSH1 0x20 ADD DUP1 DUP4 GT PUSH2 0x4A6 JUMPI DUP3 SWAP1 SUB PUSH1 0x1F AND DUP3 ADD SWAP2 JUMPDEST POP POP POP POP POP SWAP1 DUP1 PUSH1 0x3 ADD PUSH1 0x0 SWAP1 SLOAD SWAP1 PUSH2 0x100 EXP SWAP1 DIV PUSH1 0xE0 SHL SWAP1 DUP1 PUSH1 0x3 ADD PUSH1 0x4 SWAP1 SLOAD SWAP1 PUSH2 0x100 EXP SWAP1 DIV PUSH20 0xFFFFFFFFFFFFFFFFFFFFFFFFFFFFFFFFFFFFFFFF AND SWAP1 DUP1 PUSH1 0x4 ADD SLOAD SWAP1 POP DUP7 JUMP JUMPDEST PUSH1 0x0 DUP1 PUSH1 0x2 DUP5 DUP2 SLOAD DUP2 LT PUSH2 0x523 JUMPI PUSH2 0x522 PUSH2 0xDF0 JUMP JUMPDEST JUMPDEST SWAP1 PUSH1 0x0 MSTORE PUSH1 0x20 PUSH1 0x0 KECCAK256 SWAP1 PUSH1 0x5 MUL ADD PUSH1 0x40 MLOAD DUP1 PUSH1 0xC0 ADD PUSH1 0x40 MSTORE SWAP1 DUP2 PUSH1 0x0 DUP3 ADD SLOAD DUP2 MSTORE PUSH1 0x20 ADD PUSH1 0x1 DUP3 ADD PUSH1 0x0 SWAP1 SLOAD SWAP1 PUSH2 0x100 EXP SWAP1 DIV PUSH20 0xFFFFFFFFFFFFFFFFFFFFFFFFFFFFFFFFFFFFFFFF AND PUSH20 0xFFFFFFFFFFFFFFFFFFFFFFFFFFFFFFFFFFFFFFFF AND PUSH20 0xFFFFFFFFFFFFFFFFFFFFFFFFFFFFFFFFFFFFFFFF AND DUP2 MSTORE PUSH1 0x20 ADD PUSH1 0x2 DUP3 ADD DUP1 SLOAD PUSH2 0x5AC SWAP1 PUSH2 0xD4A JUMP JUMPDEST DUP1 PUSH1 0x1F ADD PUSH1 0x20 DUP1 SWAP2 DIV MUL PUSH1 0x20 ADD PUSH1 0x40 MLOAD SWAP1 DUP2 ADD PUSH1 0x40 MSTORE DUP1 SWAP3 SWAP2 SWAP1 DUP2 DUP2 MSTORE PUSH1 0x20 ADD DUP3 DUP1 SLOAD PUSH2 0x5D8 SWAP1 PUSH2 0xD4A JUMP JUMPDEST DUP1 ISZERO PUSH2 0x625 JUMPI DUP1 PUSH1 0x1F LT PUSH2 0x5FA JUMPI PUSH2 0x100 DUP1 DUP4 SLOAD DIV MUL DUP4 MSTORE SWAP2 PUSH1 0x20 ADD SWAP2 PUSH2 0x625 JUMP JUMPDEST DUP3 ADD SWAP2 SWAP1 PUSH1 0x0 MSTORE PUSH1 0x20 PUSH1 0x0 KECCAK256 SWAP1 JUMPDEST DUP2 SLOAD DUP2 MSTORE SWAP1 PUSH1 0x1 ADD SWAP1 PUSH1 0x20 ADD DUP1 DUP4 GT PUSH2 0x608 JUMPI DUP3 SWAP1 SUB PUSH1 0x1F AND DUP3 ADD SWAP2 JUMPDEST POP POP POP POP POP DUP2 MSTORE PUSH1 0x20 ADD PUSH1 0x3 DUP3 ADD PUSH1 0x0 SWAP1 SLOAD SWAP1 PUSH2 0x100 EXP SWAP1 DIV PUSH1 0xE0 SHL PUSH28 0xFFFFFFFFFFFFFFFFFFFFFFFFFFFFFFFFFFFFFFFFFFFFFFFFFFFFFFFF NOT AND PUSH28 0xFFFFFFFFFFFFFFFFFFFFFFFFFFFFFFFFFFFFFFFFFFFFFFFFFFFFFFFF NOT AND DUP2 MSTORE PUSH1 0x20 ADD PUSH1 0x3 DUP3 ADD PUSH1 0x4 SWAP1 SLOAD SWAP1 PUSH2 0x100 EXP SWAP1 DIV PUSH20 0xFFFFFFFFFFFFFFFFFFFFFFFFFFFFFFFFFFFFFFFF AND PUSH20 0xFFFFFFFFFFFFFFFFFFFFFFFFFFFFFFFFFFFFFFFF AND PUSH20 0xFFFFFFFFFFFFFFFFFFFFFFFFFFFFFFFFFFFFFFFF AND DUP2 MSTORE PUSH1 0x20 ADD PUSH1 0x4 DUP3 ADD SLOAD DUP2 MSTORE POP POP SWAP1 POP PUSH1 0x0 DUP2 PUSH1 0x80 ADD MLOAD PUSH20 0xFFFFFFFFFFFFFFFFFFFFFFFFFFFFFFFFFFFFFFFF AND DUP3 PUSH1 0x60 ADD MLOAD DUP6 PUSH1 0x40 MLOAD PUSH1 0x20 ADD PUSH2 0x719 SWAP3 SWAP2 SWAP1 PUSH2 0xADD JUMP JUMPDEST PUSH1 0x40 MLOAD PUSH1 0x20 DUP2 DUP4 SUB SUB DUP2 MSTORE SWAP1 PUSH1 0x40 MSTORE PUSH1 0x40 MLOAD PUSH2 0x735 SWAP2 SWAP1 PUSH2 0xB09 JUMP JUMPDEST PUSH1 0x0 PUSH1 0x40 MLOAD DUP1 DUP4 SUB DUP2 PUSH1 0x0 DUP7 GAS CALL SWAP2 POP POP RETURNDATASIZE DUP1 PUSH1 0x0 DUP2 EQ PUSH2 0x772 JUMPI PUSH1 0x40 MLOAD SWAP2 POP PUSH1 0x1F NOT PUSH1 0x3F RETURNDATASIZE ADD AND DUP3 ADD PUSH1 0x40 MSTORE RETURNDATASIZE DUP3 MSTORE RETURNDATASIZE PUSH1 0x0 PUSH1 0x20 DUP5 ADD RETURNDATACOPY PUSH2 0x777 JUMP JUMPDEST PUSH1 0x60 SWAP2 POP JUMPDEST POP POP SWAP1 POP DUP1 SWAP3 POP POP POP SWAP3 SWAP2 POP POP JUMP JUMPDEST DUP3 DUP1 SLOAD PUSH2 0x792 SWAP1 PUSH2 0xD4A JUMP JUMPDEST SWAP1 PUSH1 0x0 MSTORE PUSH1 0x20 PUSH1 0x0 KECCAK256 SWAP1 PUSH1 0x1F ADD PUSH1 0x20 SWAP1 DIV DUP2 ADD SWAP3 DUP3 PUSH2 0x7B4 JUMPI PUSH1 0x0 DUP6 SSTORE PUSH2 0x7FB JUMP JUMPDEST DUP3 PUSH1 0x1F LT PUSH2 0x7CD JUMPI DUP1 MLOAD PUSH1 0xFF NOT AND DUP4 DUP1 ADD OR DUP6 SSTORE PUSH2 0x7FB JUMP JUMPDEST DUP3 DUP1 ADD PUSH1 0x1 ADD DUP6 SSTORE DUP3 ISZERO PUSH2 0x7FB JUMPI SWAP2 DUP3 ADD JUMPDEST DUP3 DUP2 GT ISZERO PUSH2 0x7FA JUMPI DUP3 MLOAD DUP3 SSTORE SWAP2 PUSH1 0x20 ADD SWAP2 SWAP1 PUSH1 0x1 ADD SWAP1 PUSH2 0x7DF JUMP JUMPDEST JUMPDEST POP SWAP1 POP PUSH2 0x808 SWAP2 SWAP1 PUSH2 0x80C JUMP JUMPDEST POP SWAP1 JUMP JUMPDEST JUMPDEST DUP1 DUP3 GT ISZERO PUSH2 0x825 JUMPI PUSH1 0x0 DUP2 PUSH1 0x0 SWAP1 SSTORE POP PUSH1 0x1 ADD PUSH2 0x80D JUMP JUMPDEST POP SWAP1 JUMP JUMPDEST PUSH1 0x0 PUSH2 0x83C PUSH2 0x837 DUP5 PUSH2 0xC1C JUMP JUMPDEST PUSH2 0xBF7 JUMP JUMPDEST SWAP1 POP DUP3 DUP2 MSTORE PUSH1 0x20 DUP2 ADD DUP5 DUP5 DUP5 ADD GT ISZERO PUSH2 0x858 JUMPI PUSH2 0x857 PUSH2 0xE53 JUMP JUMPDEST JUMPDEST PUSH2 0x863 DUP5 DUP3 DUP6 PUSH2 0xD08 JUMP JUMPDEST POP SWAP4 SWAP3 POP POP POP JUMP JUMPDEST PUSH1 0x0 DUP2 CALLDATALOAD SWAP1 POP PUSH2 0x87A DUP2 PUSH2 0xE73 JUMP JUMPDEST SWAP3 SWAP2 POP POP JUMP JUMPDEST PUSH1 0x0 DUP2 CALLDATALOAD SWAP1 POP PUSH2 0x88F DUP2 PUSH2 0xE8A JUMP JUMPDEST SWAP3 SWAP2 POP POP JUMP JUMPDEST PUSH1 0x0 DUP2 CALLDATALOAD SWAP1 POP PUSH2 0x8A4 DUP2 PUSH2 0xEA1 JUMP JUMPDEST SWAP3 SWAP2 POP POP JUMP JUMPDEST PUSH1 0x0 DUP3 PUSH1 0x1F DUP4 ADD SLT PUSH2 0x8BF JUMPI PUSH2 0x8BE PUSH2 0xE4E JUMP JUMPDEST JUMPDEST DUP2 CALLDATALOAD PUSH2 0x8CF DUP5 DUP3 PUSH1 0x20 DUP7 ADD PUSH2 0x829 JUMP JUMPDEST SWAP2 POP POP SWAP3 SWAP2 POP POP JUMP JUMPDEST PUSH1 0x0 DUP2 CALLDATALOAD SWAP1 POP PUSH2 0x8E7 DUP2 PUSH2 0xEB8 JUMP JUMPDEST SWAP3 SWAP2 POP POP JUMP JUMPDEST PUSH1 0x0 DUP1 PUSH1 0x0 PUSH1 0x60 DUP5 DUP7 SUB SLT ISZERO PUSH2 0x906 JUMPI PUSH2 0x905 PUSH2 0xE5D JUMP JUMPDEST JUMPDEST PUSH1 0x0 PUSH2 0x914 DUP7 DUP3 DUP8 ADD PUSH2 0x895 JUMP JUMPDEST SWAP4 POP POP PUSH1 0x20 DUP5 ADD CALLDATALOAD PUSH8 0xFFFFFFFFFFFFFFFF DUP2 GT ISZERO PUSH2 0x935 JUMPI PUSH2 0x934 PUSH2 0xE58 JUMP JUMPDEST JUMPDEST PUSH2 0x941 DUP7 DUP3 DUP8 ADD PUSH2 0x8AA JUMP JUMPDEST SWAP3 POP POP PUSH1 0x40 PUSH2 0x952 DUP7 DUP3 DUP8 ADD PUSH2 0x86B JUMP JUMPDEST SWAP2 POP POP SWAP3 POP SWAP3 POP SWAP3 JUMP JUMPDEST PUSH1 0x0 PUSH1 0x20 DUP3 DUP5 SUB SLT ISZERO PUSH2 0x972 JUMPI PUSH2 0x971 PUSH2 0xE5D JUMP JUMPDEST JUMPDEST PUSH1 0x0 PUSH2 0x980 DUP5 DUP3 DUP6 ADD PUSH2 0x8D8 JUMP JUMPDEST SWAP2 POP POP SWAP3 SWAP2 POP POP JUMP JUMPDEST PUSH1 0x0 DUP1 PUSH1 0x40 DUP4 DUP6 SUB SLT ISZERO PUSH2 0x9A0 JUMPI PUSH2 0x99F PUSH2 0xE5D JUMP JUMPDEST JUMPDEST PUSH1 0x0 PUSH2 0x9AE DUP6 DUP3 DUP7 ADD PUSH2 0x8D8 JUMP JUMPDEST SWAP3 POP POP PUSH1 0x20 PUSH2 0x9BF DUP6 DUP3 DUP7 ADD PUSH2 0x880 JUMP JUMPDEST SWAP2 POP POP SWAP3 POP SWAP3 SWAP1 POP JUMP JUMPDEST PUSH2 0x9D2 DUP2 PUSH2 0xC8A JUMP JUMPDEST DUP3 MSTORE POP POP JUMP JUMPDEST PUSH2 0x9E1 DUP2 PUSH2 0xC9C JUMP JUMPDEST DUP3 MSTORE POP POP JUMP JUMPDEST PUSH2 0x9F0 DUP2 PUSH2 0xCA8 JUMP JUMPDEST DUP3 MSTORE POP POP JUMP JUMPDEST PUSH2 0xA07 PUSH2 0xA02 DUP3 PUSH2 0xCA8 JUMP JUMPDEST PUSH2 0xDAD JUMP JUMPDEST DUP3 MSTORE POP POP JUMP JUMPDEST PUSH2 0xA16 DUP2 PUSH2 0xCB2 JUMP JUMPDEST DUP3 MSTORE POP POP JUMP JUMPDEST PUSH2 0xA2D PUSH2 0xA28 DUP3 PUSH2 0xCB2 JUMP JUMPDEST PUSH2 0xDB7 JUMP JUMPDEST DUP3 MSTORE POP POP JUMP JUMPDEST PUSH1 0x0 PUSH2 0xA3E DUP3 PUSH2 0xC4D JUMP JUMPDEST PUSH2 0xA48 DUP2 DUP6 PUSH2 0xC63 JUMP JUMPDEST SWAP4 POP PUSH2 0xA58 DUP2 DUP6 PUSH1 0x20 DUP7 ADD PUSH2 0xD17 JUMP JUMPDEST DUP1 DUP5 ADD SWAP2 POP POP SWAP3 SWAP2 POP POP JUMP JUMPDEST PUSH1 0x0 PUSH2 0xA6F DUP3 PUSH2 0xC58 JUMP JUMPDEST PUSH2 0xA79 DUP2 DUP6 PUSH2 0xC6E JUMP JUMPDEST SWAP4 POP PUSH2 0xA89 DUP2 DUP6 PUSH1 0x20 DUP7 ADD PUSH2 0xD17 JUMP JUMPDEST PUSH2 0xA92 DUP2 PUSH2 0xE62 JUMP JUMPDEST DUP5 ADD SWAP2 POP POP SWAP3 SWAP2 POP POP JUMP JUMPDEST PUSH1 0x0 PUSH2 0xAA8 DUP3 PUSH2 0xC58 JUMP JUMPDEST PUSH2 0xAB2 DUP2 DUP6 PUSH2 0xC7F JUMP JUMPDEST SWAP4 POP PUSH2 0xAC2 DUP2 DUP6 PUSH1 0x20 DUP7 ADD PUSH2 0xD17 JUMP JUMPDEST DUP1 DUP5 ADD SWAP2 POP POP SWAP3 SWAP2 POP POP JUMP JUMPDEST PUSH2 0xAD7 DUP2 PUSH2 0xCFE JUMP JUMPDEST DUP3 MSTORE POP POP JUMP JUMPDEST PUSH1 0x0 PUSH2 0xAE9 DUP3 DUP6 PUSH2 0xA1C JUMP JUMPDEST PUSH1 0x4 DUP3 ADD SWAP2 POP PUSH2 0xAF9 DUP3 DUP5 PUSH2 0x9F6 JUMP JUMPDEST PUSH1 0x20 DUP3 ADD SWAP2 POP DUP2 SWAP1 POP SWAP4 SWAP3 POP POP POP JUMP JUMPDEST PUSH1 0x0 PUSH2 0xB15 DUP3 DUP5 PUSH2 0xA33 JUMP JUMPDEST SWAP2 POP DUP2 SWAP1 POP SWAP3 SWAP2 POP POP JUMP JUMPDEST PUSH1 0x0 PUSH2 0xB2C DUP3 DUP5 PUSH2 0xA9D JUMP JUMPDEST SWAP2 POP DUP2 SWAP1 POP SWAP3 SWAP2 POP POP JUMP JUMPDEST PUSH1 0x0 PUSH1 0x20 DUP3 ADD SWAP1 POP PUSH2 0xB4C PUSH1 0x0 DUP4 ADD DUP5 PUSH2 0x9C9 JUMP JUMPDEST SWAP3 SWAP2 POP POP JUMP JUMPDEST PUSH1 0x0 PUSH1 0x20 DUP3 ADD SWAP1 POP PUSH2 0xB67 PUSH1 0x0 DUP4 ADD DUP5 PUSH2 0x9D8 JUMP JUMPDEST SWAP3 SWAP2 POP POP JUMP JUMPDEST PUSH1 0x0 PUSH1 0x20 DUP3 ADD SWAP1 POP DUP2 DUP2 SUB PUSH1 0x0 DUP4 ADD MSTORE PUSH2 0xB87 DUP2 DUP5 PUSH2 0xA64 JUMP JUMPDEST SWAP1 POP SWAP3 SWAP2 POP POP JUMP JUMPDEST PUSH1 0x0 PUSH1 0xC0 DUP3 ADD SWAP1 POP PUSH2 0xBA4 PUSH1 0x0 DUP4 ADD DUP10 PUSH2 0xACE JUMP JUMPDEST PUSH2 0xBB1 PUSH1 0x20 DUP4 ADD DUP9 PUSH2 0x9C9 JUMP JUMPDEST DUP2 DUP2 SUB PUSH1 0x40 DUP4 ADD MSTORE PUSH2 0xBC3 DUP2 DUP8 PUSH2 0xA64 JUMP JUMPDEST SWAP1 POP PUSH2 0xBD2 PUSH1 0x60 DUP4 ADD DUP7 PUSH2 0xA0D JUMP JUMPDEST PUSH2 0xBDF PUSH1 0x80 DUP4 ADD DUP6 PUSH2 0x9C9 JUMP JUMPDEST PUSH2 0xBEC PUSH1 0xA0 DUP4 ADD DUP5 PUSH2 0x9E7 JUMP JUMPDEST SWAP8 SWAP7 POP POP POP POP POP POP POP JUMP JUMPDEST PUSH1 0x0 PUSH2 0xC01 PUSH2 0xC12 JUMP JUMPDEST SWAP1 POP PUSH2 0xC0D DUP3 DUP3 PUSH2 0xD7C JUMP JUMPDEST SWAP2 SWAP1 POP JUMP JUMPDEST PUSH1 0x0 PUSH1 0x40 MLOAD SWAP1 POP SWAP1 JUMP JUMPDEST PUSH1 0x0 PUSH8 0xFFFFFFFFFFFFFFFF DUP3 GT ISZERO PUSH2 0xC37 JUMPI PUSH2 0xC36 PUSH2 0xE1F JUMP JUMPDEST JUMPDEST PUSH2 0xC40 DUP3 PUSH2 0xE62 JUMP JUMPDEST SWAP1 POP PUSH1 0x20 DUP2 ADD SWAP1 POP SWAP2 SWAP1 POP JUMP JUMPDEST PUSH1 0x0 DUP2 MLOAD SWAP1 POP SWAP2 SWAP1 POP JUMP JUMPDEST PUSH1 0x0 DUP2 MLOAD SWAP1 POP SWAP2 SWAP1 POP JUMP JUMPDEST PUSH1 0x0 DUP2 SWAP1 POP SWAP3 SWAP2 POP POP JUMP JUMPDEST PUSH1 0x0 DUP3 DUP3 MSTORE PUSH1 0x20 DUP3 ADD SWAP1 POP SWAP3 SWAP2 POP POP JUMP JUMPDEST PUSH1 0x0 DUP2 SWAP1 POP SWAP3 SWAP2 POP POP JUMP JUMPDEST PUSH1 0x0 PUSH2 0xC95 DUP3 PUSH2 0xCDE JUMP JUMPDEST SWAP1 POP SWAP2 SWAP1 POP JUMP JUMPDEST PUSH1 0x0 DUP2 ISZERO ISZERO SWAP1 POP SWAP2 SWAP1 POP JUMP JUMPDEST PUSH1 0x0 DUP2 SWAP1 POP SWAP2 SWAP1 POP JUMP JUMPDEST PUSH1 0x0 PUSH32 0xFFFFFFFF00000000000000000000000000000000000000000000000000000000 DUP3 AND SWAP1 POP SWAP2 SWAP1 POP JUMP JUMPDEST PUSH1 0x0 PUSH20 0xFFFFFFFFFFFFFFFFFFFFFFFFFFFFFFFFFFFFFFFF DUP3 AND SWAP1 POP SWAP2 SWAP1 POP JUMP JUMPDEST PUSH1 0x0 DUP2 SWAP1 POP SWAP2 SWAP1 POP JUMP JUMPDEST DUP3 DUP2 DUP4 CALLDATACOPY PUSH1 0x0 DUP4 DUP4 ADD MSTORE POP POP POP JUMP JUMPDEST PUSH1 0x0 JUMPDEST DUP4 DUP2 LT ISZERO PUSH2 0xD35 JUMPI DUP1 DUP3 ADD MLOAD DUP2 DUP5 ADD MSTORE PUSH1 0x20 DUP2 ADD SWAP1 POP PUSH2 0xD1A JUMP JUMPDEST DUP4 DUP2 GT ISZERO PUSH2 0xD44 JUMPI PUSH1 0x0 DUP5 DUP5 ADD MSTORE JUMPDEST POP POP POP POP JUMP JUMPDEST PUSH1 0x0 PUSH1 0x2 DUP3 DIV SWAP1 POP PUSH1 0x1 DUP3 AND DUP1 PUSH2 0xD62 JUMPI PUSH1 0x7F DUP3 AND SWAP2 POP JUMPDEST PUSH1 0x20 DUP3 LT DUP2 EQ ISZERO PUSH2 0xD76 JUMPI PUSH2 0xD75 PUSH2 0xDC1 JUMP JUMPDEST JUMPDEST POP SWAP2 SWAP1 POP JUMP JUMPDEST PUSH2 0xD85 DUP3 PUSH2 0xE62 JUMP JUMPDEST DUP2 ADD DUP2 DUP2 LT PUSH8 0xFFFFFFFFFFFFFFFF DUP3 GT OR ISZERO PUSH2 0xDA4 JUMPI PUSH2 0xDA3 PUSH2 0xE1F JUMP JUMPDEST JUMPDEST DUP1 PUSH1 0x40 MSTORE POP POP POP JUMP JUMPDEST PUSH1 0x0 DUP2 SWAP1 POP SWAP2 SWAP1 POP JUMP JUMPDEST PUSH1 0x0 DUP2 SWAP1 POP SWAP2 SWAP1 POP JUMP JUMPDEST PUSH32 0x4E487B7100000000000000000000000000000000000000000000000000000000 PUSH1 0x0 MSTORE PUSH1 0x22 PUSH1 0x4 MSTORE PUSH1 0x24 PUSH1 0x0 REVERT JUMPDEST PUSH32 0x4E487B7100000000000000000000000000000000000000000000000000000000 PUSH1 0x0 MSTORE PUSH1 0x32 PUSH1 0x4 MSTORE PUSH1 0x24 PUSH1 0x0 REVERT JUMPDEST PUSH32 0x4E487B7100000000000000000000000000000000000000000000000000000000 PUSH1 0x0 MSTORE PUSH1 0x41 PUSH1 0x4 MSTORE PUSH1 0x24 PUSH1 0x0 REVERT JUMPDEST PUSH1 0x0 DUP1 REVERT JUMPDEST PUSH1 0x0 DUP1 REVERT JUMPDEST PUSH1 0x0 DUP1 REVERT JUMPDEST PUSH1 0x0 DUP1 REVERT JUMPDEST PUSH1 0x0 PUSH1 0x1F NOT PUSH1 0x1F DUP4 ADD AND SWAP1 POP SWAP2 SWAP1 POP JUMP JUMPDEST PUSH2 0xE7C DUP2 PUSH2 0xC8A JUMP JUMPDEST DUP2 EQ PUSH2 0xE87 JUMPI PUSH1 0x0 DUP1 REVERT JUMPDEST POP JUMP JUMPDEST PUSH2 0xE93 DUP2 PUSH2 0xCA8 JUMP JUMPDEST DUP2 EQ PUSH2 0xE9E JUMPI PUSH1 0x0 DUP1 REVERT JUMPDEST POP JUMP JUMPDEST PUSH2 0xEAA DUP2 PUSH2 0xCB2 JUMP JUMPDEST DUP2 EQ PUSH2 0xEB5 JUMPI PUSH1 0x0 DUP1 REVERT JUMPDEST POP JUMP JUMPDEST PUSH2 0xEC1 DUP2 PUSH2 0xCFE JUMP JUMPDEST DUP2 EQ PUSH2 0xECC JUMPI PUSH1 0x0 DUP1 REVERT JUMPDEST POP JUMP INVALID LOG2 PUSH5 0x6970667358 0x22 SLT KECCAK256 BYTE PUSH9 0x12E902B5A7F5E8F61 DUP5 SWAP7 PUSH21 0x2F04BB80A50A7DD3F7815B766D36E8057AF164736F PUSH13 0x63430008070033000000000000 "
				},
				"gasEstimates": {
					"creation": {
						"codeDepositCost": "769000",
						"executionCost": "infinite",
						"totalCost": "infinite"
					},
					"external": {
						"adapterId()": "infinite",
						"fulfillOracleRequest(uint256,bytes32)": "infinite",
						"newOracleRequest(bytes4,string,address)": "infinite",
						"nodeAddress()": "2489",
						"requests(uint256)": "infinite"
					}
				},
				"methodIdentifiers": {
					"adapterId()": "5fb86b01",
					"fulfillOracleRequest(uint256,bytes32)": "eb3377d5",
					"newOracleRequest(bytes4,string,address)": "5cd3275c",
					"nodeAddress()": "2aa8481f",
					"requests(uint256)": "81d12c58"
				}
			},
			"storageLayout": {
				"storage": [
					{
						"astId": 6,
						"contract": "Users/drewhyte/Sites/BLOCKCHAIN/klay-oracle/contracts/v0.0.5/Oracle.sol:Oracle",
						"label": "nodeAddress",
						"offset": 0,
						"slot": "0",
						"type": "t_address"
					},
					{
						"astId": 8,
						"contract": "Users/drewhyte/Sites/BLOCKCHAIN/klay-oracle/contracts/v0.0.5/Oracle.sol:Oracle",
						"label": "adapterId",
						"offset": 0,
						"slot": "1",
						"type": "t_string_storage"
					},
					{
						"astId": 25,
						"contract": "Users/drewhyte/Sites/BLOCKCHAIN/klay-oracle/contracts/v0.0.5/Oracle.sol:Oracle",
						"label": "requests",
						"offset": 0,
						"slot": "2",
						"type": "t_array(t_struct(Request)21_storage)dyn_storage"
					}
				],
				"types": {
					"t_address": {
						"encoding": "inplace",
						"label": "address",
						"numberOfBytes": "20"
					},
					"t_array(t_struct(Request)21_storage)dyn_storage": {
						"base": "t_struct(Request)21_storage",
						"encoding": "dynamic_array",
						"label": "struct Oracle.Request[]",
						"numberOfBytes": "32"
					},
					"t_bytes32": {
						"encoding": "inplace",
						"label": "bytes32",
						"numberOfBytes": "32"
					},
					"t_bytes4": {
						"encoding": "inplace",
						"label": "bytes4",
						"numberOfBytes": "4"
					},
					"t_string_storage": {
						"encoding": "bytes",
						"label": "string",
						"numberOfBytes": "32"
					},
					"t_struct(Request)21_storage": {
						"encoding": "inplace",
						"label": "struct Oracle.Request",
						"members": [
							{
								"astId": 10,
								"contract": "Users/drewhyte/Sites/BLOCKCHAIN/klay-oracle/contracts/v0.0.5/Oracle.sol:Oracle",
								"label": "requestId",
								"offset": 0,
								"slot": "0",
								"type": "t_uint256"
							},
							{
								"astId": 12,
								"contract": "Users/drewhyte/Sites/BLOCKCHAIN/klay-oracle/contracts/v0.0.5/Oracle.sol:Oracle",
								"label": "nodeAddress",
								"offset": 0,
								"slot": "1",
								"type": "t_address"
							},
							{
								"astId": 14,
								"contract": "Users/drewhyte/Sites/BLOCKCHAIN/klay-oracle/contracts/v0.0.5/Oracle.sol:Oracle",
								"label": "adapterId",
								"offset": 0,
								"slot": "2",
								"type": "t_string_storage"
							},
							{
								"astId": 16,
								"contract": "Users/drewhyte/Sites/BLOCKCHAIN/klay-oracle/contracts/v0.0.5/Oracle.sol:Oracle",
								"label": "callbackFunctionId",
								"offset": 0,
								"slot": "3",
								"type": "t_bytes4"
							},
							{
								"astId": 18,
								"contract": "Users/drewhyte/Sites/BLOCKCHAIN/klay-oracle/contracts/v0.0.5/Oracle.sol:Oracle",
								"label": "callBackContract",
								"offset": 4,
								"slot": "3",
								"type": "t_address"
							},
							{
								"astId": 20,
								"contract": "Users/drewhyte/Sites/BLOCKCHAIN/klay-oracle/contracts/v0.0.5/Oracle.sol:Oracle",
								"label": "data",
								"offset": 0,
								"slot": "4",
								"type": "t_bytes32"
							}
						],
						"numberOfBytes": "160"
					},
					"t_uint256": {
						"encoding": "inplace",
						"label": "uint256",
						"numberOfBytes": "32"
					}
				}
			},
			"userdoc": {
				"kind": "user",
				"methods": {},
				"version": 1
			}
		}
	}
}